:020000040800F2
:10000000002000201D3B0008692100086B2100082A
:1000100000000000000000000000000000000000E0
:100020000000000000000000000000006D2100083A
:1000300000000000000000006F210008712100088E
:100040006D3B00086D3B0008732100086D3B000804
:100050006D3B00086D3B00086D3B00086D3B0008E0
:10006000000000006D3B00086D3B00087521000892
:100070006D3B000877210008000000006D3B000880
:10008000000000006D3B00080000000000000000C0
:100090006D3B0008000000006D3B00086D3B000850
:1000A0006D3B00086D3B00086D3B00086D3B000890
:1000B0007F2100086D3B00080000000000000000E8
:1000C00010B5064C2378002B07D1054B002B02D02E
:1000D000044800E000BF0123237010BD98000020F9
:1000E0000000000060510008044B10B5002B03D045
:1000F0000349044800E000BF10BDC04600000000F6
:100100009C0000206051000802780B78002A03D080
:10011000013001319A42F7D0D01A704703B47146CA
:10012000490840004900095E49008E4403BC7047FD
:10013000002243088B4274D303098B425FD3030A26
:100140008B4244D3030B8B4228D3030C8B420DD339
:10015000FF22090212BA030C8B4202D312120902C7
:1001600065D0030B8B4219D300E0090AC30B8B4205
:1001700001D3CB03C01A5241830B8B4201D38B03B3
:10018000C01A5241430B8B4201D34B03C01A524158
:10019000030B8B4201D30B03C01A5241C30A8B429B
:1001A00001D3CB02C01A5241830A8B4201D38B0286
:1001B000C01A5241430A8B4201D34B02C01A52412A
:1001C000030A8B4201D30B02C01A5241CDD2C3099C
:1001D0008B4201D3CB01C01A524183098B4201D318
:1001E0008B01C01A524143098B4201D34B01C01A03
:1001F000524103098B4201D30B01C01A5241C3087B
:100200008B4201D3CB00C01A524183088B4201D3E9
:100210008B00C01A524143088B4201D34B00C01AD5
:100220005241411A00D20146524110467047FFE741
:1002300001B5002000F0F0F802BDC0460029F7D05B
:1002400076E7704703460B437FD4002243088B4276
:1002500074D303098B425FD3030A8B4244D3030B4D
:100260008B4228D3030C8B420DD3FF22090212BA12
:10027000030C8B4202D31212090265D0030B8B428E
:1002800019D300E0090AC30B8B4201D3CB03C01A78
:100290005241830B8B4201D38B03C01A5241430B53
:1002A0008B4201D34B03C01A5241030B8B4201D343
:1002B0000B03C01A5241C30A8B4201D3CB02C01AAE
:1002C0005241830A8B4201D38B02C01A5241430A26
:1002D0008B4201D34B02C01A5241030A8B4201D315
:1002E0000B02C01A5241CDD2C3098B4201D3CB01BC
:1002F000C01A524183098B4201D38B01C01A52416B
:1003000043098B4201D34B01C01A524103098B426E
:1003100001D30B01C01A5241C3088B4201D3CB0059
:10032000C01A524183088B4201D38B00C01A52413C
:1003300043088B4201D34B00C01A5241411A00D2EC
:1003400001465241104670475DE0CA0F00D0494255
:10035000031000D34042534000229C4603098B42C5
:100360002DD3030A8B4212D3FC22890112BA030A4D
:100370008B420CD3890192118B4208D389019211CF
:100380008B4204D389013AD0921100E08909C30954
:100390008B4201D3CB01C01A524183098B4201D356
:1003A0008B01C01A524143098B4201D34B01C01A41
:1003B000524103098B4201D30B01C01A5241C308B9
:1003C0008B4201D3CB00C01A524183088B4201D328
:1003D0008B00C01A5241D9D243088B4201D34B0043
:1003E000C01A5241411A00D20146634652415B1085
:1003F000104601D34042002B00D549427047634666
:100400005B1000D3404201B5002000F005F802BDAA
:100410000029F8D016E770477047C0469E2110B5F6
:10042000C905041C01F034FA002803D1201C00F097
:10043000E1FA10BD9E21201CC90500F02DF900F045
:10044000D9FA80231B069C466044F2E7F0B54F467C
:100450004646D64644024500C0B5640A0F1C2D0E20
:10046000C60F002D00D18DE0FF2D00D192E00023BA
:10047000802099469A46E400C00404437F3D7802F8
:10048000430A98467B001B0EFF0F002B00D170E043
:10049000FF2B00D186E04246D00080227F3BED1842
:1004A0000023D204024390469C4631004B467940DB
:1004B000681C0F2B1CD8764A9B00D3589F463900E6
:1004C0004446E2465346022B0FD0032B00D1D7E01F
:1004D000012B37D100200024C0052043C907084361
:1004E000E0BCBA46B146A846F0BDFF200024F3E7C1
:1004F000260C2404220C44462404240C43462700E2
:100500001B0C574374435A435E4312193B0C9B1810
:100510009C4203D980225202944666443F041A0446
:100520003F0CD2199401671EBC411B0C920E9B1903
:1005300014439B011C431B0100D49BE00123620870
:100540001C40144302007F32002A64DD630704D09C
:100550000F232340042B00D00434230103D50200D1
:100560004C4B80321C40FE2ABFDCA401640AD0B28E
:10057000B2E74346002B3DD14A4601331A43914628
:100580009C4692E7002C29D104239946033B002581
:100590009A4674E7002C1BD108239946063BFF2599
:1005A0009A466CE74346FF35002B0BD102234A469F
:1005B0001A4391469C4678E753463100022B00D0FF
:1005C00083E792E703234A461A4391469C466CE729
:1005D0000C239946093BFF259A4650E7200001F07D
:1005E00061F97625431F9C4000236D4299469A4647
:1005F0002D1A44E7404601F055F94246431F9A4000
:1006000000232D1A90469C46763D4EE7802400211B
:10061000FF20E40360E701239B1A1B2B00DD59E751
:1006200022009E30DA4084401300621E94411C4335
:10063000630704D00F232340042B00D0043463014C
:100640001AD50120002447E78020C003044209D0C6
:100650004346034206D14446044364023900FF2066
:10066000640A39E78020C003044364023100FF209C
:10067000640A31E7280065E7A4010020640A2BE73B
:100680008020C00304436402FF20640A24E7C046BC
:10069000D8510008FFFFFFF7F8B5CE4647464302A2
:1006A0005B0A4E02DA009446720A914645004A00FF
:1006B00080B52D0E1F00C40F120EC90FB609FF2AF8
:1006C0005BD0012041408C4239D0A81A00285ADD65
:1006D000002A6AD0FF2D00D1D9E08022D20416432F
:1006E0001B2800DCE9E001206346181A430100D40E
:1006F000B4E080018709380001F0D4F8053887405C
:10070000854200DCCCE02D1AB5483840430704D0C0
:100710000F230340042B00D00430430100D4A0E099
:100720006A1CFE2D00D18DE08001470AD2B2D005AF
:100730003843E4072043C0BCB946B046F8BDA81A08
:100740008046002845DD002A70D0FF2D00D19EE0B4
:100750008023DB041E4343461B2B00DCD2E0012038
:10076000604443017AD50135FF2D6BD001239D4AAA
:100770000340400810401843C8E7002E20D08C42A8
:1007800023D02800FF38002839D0571B002D00D077
:100790009DE06346002B00D1DBE07B1E012F00D1E2
:1007A0000DE1FF2F71D01F0098E0002E00D1A7E0CF
:1007B000421E012800D1E6E0FF2868D010008FE734
:1007C00001204140A14200D07FE7FF204042804607
:1007D000A8444046002838D0511B002D00D1AEE07F
:1007E000FF2A00D1DFE080236046DB041843844603
:1007F0001B2900DCD9E0012015008019B1E7FE209B
:100800006A1C104271D1002D00D0A6E06346002B77
:1008100000D1D9E00022002E00D188E7981B4301C7
:1008200000D4E1E063460C00F01A6FE7002E00D11F
:10083000B7E00200013A012800D19CE0FF2826D051
:10084000904688E7FF22002771E7FE206A1C1042CD
:1008500064D0FF2AF6D0150066447008430700D024
:1008600056E7C308FF2D12D05B025F0AEAB25EE7CB
:100870006246002A00D196E0002E08D08022D203E2
:10088000134204D04846104201D10C004B46002BC5
:10089000D8D08027FF031F437F02FF227F0A46E74D
:1008A00020233A00451B38000135EA405D1BA84073
:1008B000431E98410025104328E720231B1A3200CD
:1008C0009E40C2403000431E984110430CE7FF2A6F
:1008D000DBD080236046DB04184384461B2F56DDA3
:1008E00001200C001500301A00E763469F1B7B01B6
:1008F0003DD4002F00D0FEE600240022002716E79A
:100900000500AFE7320043464146DA4020235B1A38
:100910009E403000431E9841104321E7002DA7D18F
:100920006346002B59D00022002E00D1FFE6300094
:100930006044430192D52A4B013518408EE7634647
:10094000002B47D04B1E012915D0FF292BD01900B1
:100950004EE70C004B463D0084E76246002A8BD1EF
:10096000002E92D180270024FF22FF03DFE663469A
:100970000C00F71ABFE6300060440125430100D4A3
:100980006CE70225F2E663460125981BAEE62023BC
:1009900064466046FC40DF1BB840431E984120433C
:1009A0009FE705005EE74B4671E7202365466046FA
:1009B000CD40591A8840431E984128431CE763469E
:1009C0000C000125F01A91E6002E95D00C004F4640
:1009D0000022ACE64B460D0044E74F460022A6E657
:1009E000FFFFFFFBFFFFFF7D002800D036E700245C
:1009F00000279CE641024200C30F490A0020120E64
:100A00007E2A03DD9D2A02DD094A9818704780205E
:100A100000040143952A07DC9620821AD1404842FF
:100A2000002BF3D10800F1E7963A9140F7E7C04672
:100A3000FFFFFF7FF0B557464E464546DE46E0B520
:100A400098460C034B000600924687B0240B5B0DC2
:100A5000CF0F002B00D15CE1D94A934200D175E160
:100A6000420FE4001443802212041443D54AC50007
:100A7000944663440093002399469B46434642466E
:100A80001E03D20F5B0050469046360B5B0D00D123
:100A900020E1CB4A934200D162E1CA49420F8C4621
:100AA00000996344F6008C46164380229C4412044D
:100AB00063461643C200002000930099434601316B
:100AC0008C4649467B4001930F2926D8BE4B8900AE
:100AD00059588F46434601933400150083465B46C0
:100AE000022B16D0032B00D103E2012B00D0CDE066
:100AF000002200240025019B12052243DB071A4334
:100B00002800110007B0F0BCBB46B246A946A0467B
:100B1000F0BD00240025AA4AEDE7280C2D042D0C79
:100B20002B00110C1204120C5343984613002F0093
:100B3000434399464F434F44BB4647460B003F0C47
:100B4000BA464343DA440293D14504D980277F0251
:100B5000B9464B44029353461B0C9B4653461F0415
:100B600043461B041B0C98463B0043440493330C40
:100B70003604360C98463300434399464346434374
:100B80002F009A46434677435D43380C4D44451940
:100B9000A94503D980235B029946CA443F04280C27
:100BA0003F0C2D04ED19270C2404240C0300200015
:100BB00050437A4391463A0053440593030C9A46B6
:100BC0004A43614349445144AB44894503D9802396
:100BD0005B0299464A4400040B0C000C09040918F6
:100BE00020009946434670435C437E435F43030CB9
:100BF0009846A41944444A440397A64204D9802342
:100C00005B029846474403972304029E9A46059B3D
:100C10005E449846AE42AD4176188E42894100044A
:100C2000000C504440446D424719B846934649422F
:100C30008946C344D94498428041A845AD41934573
:100C40009241894589416D4240422843240C5242D9
:100C500049420A43039B00198018C7184B46DC0D14
:100C6000049B75021D436A1E95414B46F60D7F029B
:100C700035435A023C431543FB0100D41CE10121DA
:100C80006A080D401543E207154364084F49614463
:100C9000002900DCB0E06B0709D00F222A40042AAB
:100CA00005D02A1DAA42AD416D4264191500E30129
:100CB00004D58021464AC90014406144454A914206
:100CC00000DD26E76207ED08640249051543240BA1
:100CD0004A0D10E75246324300D17FE0002E00D18A
:100CE000DCE0300000F0DEFD02000B3A1D230100C5
:100CF0009B1A52460839DA408E40164352468A40C3
:100D0000009B3549181A03008C4663440020009369
:100D1000D3E6250005434AD0002C00D1B0E02000E6
:100D200000F0C0FD010002000B391D2310005B1A0A
:100D30003100350008388440D94085400C432648AE
:100D4000831A0093002399469B4697E605002543A6
:100D500026D1082200930223002491469B468DE66B
:100D60005246009B324310D1154900268C466344FD
:100D70004946009302231943894602209DE65B46BB
:100D80000197022B00D0ADE6C3E60D4A032094463E
:100D900063444A46009303231A43914652468CE625
:100DA0000C2200930323050091469B4666E604232C
:100DB000994600230093013300249B465EE6C0461B
:100DC000FF07000001FCFFFF18520008FF030000AE
:100DD000FFFFFFFEFE0700000DFCFFFF4946012359
:100DE000194389460026012067E600238024002558
:100DF000434A019324037EE60120401A382800DD8F
:100E000076E61F285BDD1F2223005242511ACB4099
:100E10001900202803D03B4A6244944025436A1EAF
:100E200095412A000A4307210D0000241540114274
:100E30005BD00F2100241140042953D0111D914291
:100E400092415242A4180A0023024BD501220024E9
:100E5000002550E680231B031C4209D01E4207D107
:100E600033431C0343461500240B254A019342E6F5
:100E70008022120314432403214A240B01973AE6EB
:100E800000F010FD01000200153120321C2900DCA9
:100E90004BE7340008380025844050E700F002FD9D
:100EA00003001A00153220301C2A00DC1EE75646CB
:100EB000083B00229E4023E7009B9C46E6E6124941
:100EC000220061442E008D408A40C640691E8D413B
:100ED00032432A43C4405307B6D00F21114004299E
:100EE000ACD1B1E765076402240BD2081543002298
:100EF00001E68022120314432403014A240BFAE57D
:100F0000FF0700003E0400001E040000F8B557462D
:100F10004E464546DE46E0B51E0017004A000B036C
:100F2000520D5B0A9046420F1A43CD0FCD4C310350
:100F3000C300944670007A0F490AFF009A46B946EA
:100F4000400DF60F1143A04200D1B1E001225640FE
:100F5000B346B54200D188E04246121A002A00DCAE
:100F6000AEE0002800D1C1E0BE48804500D151E18B
:100F7000802000040143382A00DD7BE11F2A00DDC8
:100F8000EEE120203E00801A0C00D640D140874080
:100F900062468440521A781E874194463443274360
:100FA000DC1BA3429B4162465B42D31A99464B46E7
:100FB0001B0200D418E14B465802430A99464B469F
:100FC000002B00D137E1484600F06CFC01000839E5
:100FD0002023220048465B1ADA4088408C40434672
:100FE0001043884500DD36E1C91A4B1C1F2B00DD7C
:100FF000EAE020222600D21A01009440DE40D840C8
:1010000000239140621E94418146984631430C432F
:10101000630709D00F232340042B05D0231DA342CF
:10102000A4416442A1441C004B461B0200D4DEE0F4
:1010300041468C4B0131994200D1E7E04B468A484A
:10104000E4080340180049055B07400223434A0DAA
:10105000040B1205ED0722432A4318001100F0BCCF
:10106000BB46B246A946A046F8BD4246121A002A1F
:1010700052DD002800D19CE0A04500D1CAE08020CC
:1010800000040143382A00DD49E11F2A00DC97E112
:1010900010000E002038C640202A04D04020821ABA
:1010A00091400F43B9464C46621E944134433AE1A5
:1010B0000A003A4328D0B346B5422BD06B4A42448B
:1010C000002A5DD042464446821A002C00D0F5E04A
:1010D00065461D4300D19CE1551E012A00D1FBE16C
:1010E000604CA24200D1BDE12A00F0E00800384384
:1010F00000D1C3E0501E012A00D1A8E1594CA24200
:1011000000D187E0020036E701225640B346B542DF
:1011100000D021E7554A4244002A00D1B5E04246BA
:101120004446821A002C00D138E14E4EB04200D124
:10113000DEE18026644636043443A446382A00DDC6
:1011400096E11F2A00DD24E22026B41AA246644656
:101150005646B440A1461C004E46D44026433400B7
:101160005646B3405E1EB3411C436346D340C91884
:10117000E419BC42BF417F42B94680468944D8E069
:1011800040463B4C0130204200D0B4E040460028AD
:1011900000D044E16046184300D190E10800384394
:1011A00000D0AAE16146DB0849070B436146CC0841
:1011B00027E00800384361D0501E012A00D139E1F0
:1011C000A24227D002005DE702001F39CA40110089
:1011D000202B03D04022D31A98400443631E9C4125
:1011E0000023994698460C43630700D012E74B460C
:1011F0004A46E4085B072343D408424619498A4219
:101200000ED024035205240B520D22E70A000024BD
:1012100000231EE7DB086246520713436246D408E8
:101220001A00224300D1FCE180221203144324035C
:101230000C4A240B0DE7200000F034FB01001831AC
:101240001F2900DCC4E608388440434620000024FF
:10125000884500DCC8E6044A5B1A1040984681467F
:10126000D6E6C046FF070000FFFF7FFF01F8FFFF43
:10127000FE0700000F437A1E974191E66146DB08A6
:1012800049070B436146CC08B8E74046D34C0130D0
:10129000204200D0A2E04046002800D001E1604694
:1012A000184300D15EE10800384300D05FE1614699
:1012B000DB0849070B436146CC08A2E7C84DA842AA
:1012C00000D1CFE0802564462D042C43A446382A63
:1012D00056DC1F2A00DDD1E020251E00AD1A644631
:1012E000AB40AC40D6405D1EAB4134432343644623
:1012F000D440091B49E06046DC1B461AA3428041EA
:101300004042814630004E46801B8146000276D422
:101310004B46234300D052E60024002571E73943B1
:101320000C00621E9441E4189C429B415B42634462
:1013300099464B461B0200D456E701239C46A84B16
:10134000E044984538D04B46A64801220340180097
:10135000630814401C43C3071C434308994657E6DF
:1013600010000E002038C640202A04D04020821AE7
:1013700091400F43B9464F467A1E974137430FE6D7
:1013800062461A4313005A1E9341FC1AA742BF41FA
:101390007F42CB1B99465D46804608E666461E4363
:1013A00000D1BEE0561E012A00D109E18C4CA242B8
:1013B00000D119E13200C1E642460024002348E68C
:1013C00020200C00801A3E0087408440D640781EC2
:1013D0008741D14034433C438C44A4E7804A904247
:1013E00000D1E9E0DF199F429B4161445B42C9188B
:1013F000CC077F084B08994680463C43F4E6FC1A2C
:10140000A742BF4163467F42C91ACB1B99465D463E
:10141000D5E5FF084B075D463B43CC08EEE6624648
:101420001A4300D082E00B003B431BD180240025EF
:101430002403F9E6DC199C429B41614489465B42E6
:1014400099444B461B0244D401239846CCE6DC1B4E
:101450006246A3429B41511A5B42CB1A9946012333
:101460009846A4E5FF084B075D463B43CC08D7E60A
:1014700062461A431400631E9C4179E615006446D7
:10148000203DEC40A046202A05D040256446AA1AFB
:10149000944023439A465446631E9C41434623434B
:1014A00073E762461A4323D00A003A4300D0A0E013
:1014B0006246DB08520713436246D408B0E60B00CD
:1014C0003B4300D128E7FF084B075D463B43CC0870
:1014D00097E60223984636E7FC1AA742BF416346C7
:1014E0007F42C91ACB1B994601235D4698465EE5AB
:1014F0004B07FF083B43CC0892E6DC1B6046A34247
:10150000B641401A7642801B8146000260D5FC1A23
:10151000A742BF4163467F42C91ACB1B99465D462D
:1015200076E5FF084B073B43CC0867E60A00DB087B
:101530003A4300D16FE66246520713436246D4082D
:1015400080221203144207D0C808104204D15D461D
:101550000400FB0849070B435A0FDB00DB08520766
:1015600013435DE64B07FF083B43CC0849E6DC1913
:101570009C429B41614489465B4299444B461B0215
:1015800000D431E64A46174B1A400123914698464B
:101590002AE616006446203EF440A046202A05D0E4
:1015A00040266446B21A944023439A465446631E2A
:1015B0009C4143461C43DBE502000024002348E530
:1015C000DC19BC42BF41614489467F42B94438E7D7
:1015D0004B46234300D19FE606E6C046FE070000C7
:1015E000FF070000FFFF7FFFFF084B073B43CC08CE
:1015F00016E66246DB08520713436246D40880228F
:101600001203144207D0C808104204D15D460400FA
:10161000FB0849070B435A0FDB005207DB08134353
:10162000FEE50023014A1C0013E5C046FF07000049
:1016300070B5002816D0C317C5185D40C40F280028
:1016400000F030F9114A121A0A2816DC03002E00A5
:1016500015339E400B23181AC54052052D032D0B40
:10166000530D03E000240023002500261B052B4317
:10167000E40723433000190070BD0B388540520544
:101680002D0300262D0B530DF0E7C0461E0400006D
:1016900070B543004602C40FFE201B0E591C750A8C
:1016A00008420CD0E022920094466D07360B63444A
:1016B0001B053343E40723432800190070BD002BAA
:1016C00014D1002D1BD0280000F0ECF80A281CDCF7
:1016D0000B232E001B1ADE40030015339D400E4ADB
:1016E0003603121A5205360B530DE1E7002D09D0CF
:1016F0008022360B1203094B6D071643D8E70023EF
:101700000026D5E70026054BD2E703000B3B9D40A2
:101710002E000025E3E7C04689030000FF07000014
:1017200002004B00F0B55B0D0C033D4E640A400F08
:101730005F1CC90F0443D50037420AD039481E1830
:10174000FE2E16DDFF200024C0052043C9070843F4
:10175000F0BD002B06D12C4326D005229201540A5D
:10176000D8B2F1E72543EDD08020C0030443FF2029
:10177000EAE7002E1BDD9201531E9A41E4006D0F33
:1017800022432A43530748D00F231340042B00D091
:1017900004328023DB0413403FD0701CFE2ED1D0D6
:1017A0009201540AC0B2CFE700200024CCE73200F7
:1017B000173222DB8020000420431E24A41B1F2C90
:1017C0001DDD02225242961B0200F2401600202C20
:1017D00004D0154A94466344984005432A00531E9A
:1017E0009A41324300265307CED180241300E404EB
:1017F000012023402242D3D1B0E70023ADE70B4ABA
:1018000094462A00E24014002A0063449A4098401B
:10181000551EAA4102432243E4E733009EE7C04637
:10182000FE07000080FCFFFFA2FCFFFF82FCFFFF21
:10183000844608006146FFE71FB500F0BDF80028A8
:1018400001D40021C8421FBD10B500F049F8404244
:10185000013010BD10B500F0AFF8002801DB00200A
:1018600010BD012010BDC04610B500F0A5F800283D
:1018700001DD002010BD012010BDC04610B500F0F4
:1018800055F8002801DC002010BD012010BDC04625
:1018900010B500F04BF8002801DA002010BD01203F
:1018A00010BDC0461C2101231B04984201D3000C2B
:1018B00010391B0A984201D3000A08391B099842C3
:1018C00001D30009043902A2105C40187047C046D9
:1018D00004030202010101010000000000000000F9
:1018E00070B5420045024E024C00C30F6D0A012044
:1018F000120E760A240EC90FFF2A06D0FF2C03D041
:10190000A24201D1B54206D070BD002DFCD1FF2C02
:10191000FAD1002EF8D18B4206D00120002AF3D153
:101920002800431E9841EFE70020EDE770B5420024
:1019300045024E024C00C30F6D0A120E760A240EA9
:10194000C80FFF2A1BD0FF2C0ED0002A1BD1002C61
:1019500001D1002E1CD0002D0CD083421CD00221BE
:10196000581E0840013870BD002E22D1002AF4D143
:10197000002DF2D10028F6D101204042F3E7002DDE
:1019800017D1FF2CF0D0002CE7D1002EE5D1E6E7EF
:101990000020002DE7D0E2E7A24205DCEADBB542F9
:1019A00002D8E7D30020DEE7434258414000013827
:1019B000D9E702204042D6E770B5420045024E0208
:1019C0004C00C30F6D0A120E760A240EC80FFF2AB0
:1019D0000BD0FF2C0DD0002A1FD1002C16D1002EC9
:1019E00014D10020002D10D009E0002D0CD1FF2CC7
:1019F00013D1002E08D1002A08D0834212D0022130
:101A0000581E0840013800E0022070BD002DF4D1BE
:101A10000028FAD101204042F7E7002CEDD1002E3A
:101A2000EBD1ECE7A24205DCF2DBB54202D8EFD302
:101A30000020EAE74342584140000138E5E7C0464C
:101A4000044BC02189005A58034802405A500422CE
:101A50001A60704700E100E0FFFF00FF10B5524A36
:101A6000136801218B430B4313604F4B1B68DB074B
:101A7000FBD54E490B684E4A1A4080231B01134385
:101A80000B604C4A136801210B431360494B1B68E0
:101A90005B07FBD5474B5A684749114080225201EA
:101AA0000A435A60414908688022520002430A6092
:101AB0001B6DC0229202134080225202934209D031
:101AC0003C4B196D802212030A431A651A6D3B497B
:101AD0000A401A65374B1A6D35490A401A65196D67
:101AE000802252000A431A65324B1B6D9B05FBD5C1
:101AF000304B1B6DC022920213408022520293424F
:101B000007D02C490B6D2E4A1A4080235B021343E9
:101B10000B65284B196D8022D2020A431A65DA68D8
:101B2000284911408822D2030A43DA6019688022CA
:101B300052040A431A601F4B1B689B01FBD51D4BC7
:101B4000DA68F0218A43DA60DA681F490A40DA600D
:101B5000DA681E490A40DA60DA6803218A430A43D8
:101B6000DA60144BDA680C2313400C2BF9D1184CB3
:101B7000200000F063FC200000F084FC0D4BDA6CC8
:101B800003218A43DA64DA6C09318A43DA64DA6C55
:101B900010490A40DA64DA6C0F491140C02212037E
:101BA0000A43DA6410BDC0460020024000700040C5
:101BB000FFE7FFFF00100240FFE0FFFFFFFFF7FF1E
:101BC000FFFFFCFFFFFF02FFFFF8FFFFFFC7FFFF64
:101BD0000048E801FFCFFFFFFFFFF3FF00B583B030
:101BE000174B596B012211435963596B0A400192FB
:101BF000019A9A6B802149050A439A639B6B0B40BB
:101C00000093009B0F490B6A1B021B0AC02212069D
:101C100013430B62FFF722FF00F028F800F0D2F820
:101C200000F088FA00F042FA00F06EF900F008F9CE
:101C3000FFF706FF01F04EF801F06CF8FCE7C04634
:101C40000010024000ED00E010B50C001000002272
:101C500007E0054BDB691B06FBD5A15C024B9962D3
:101C600001328242F5DB10BD0038014070B58AB008
:101C70001822002104A801F0A8FF184BD96A0422F9
:101C80001143D962D96A0A400392039ADA6A01259C
:101C90002A43DA62DA6A2A400292029AD96A022256
:101CA0001143D962DB6A13400193019BA024E40530
:101CB000A26280267600A6620492059504A92000FF
:101CC00000F062FA049605950023069307930893A3
:101CD00004A9200000F058FA0AB070BD00100240BC
:101CE000F0B5C64600B590B01C22002109A801F04D
:101CF0006CFF1822002103A801F067FF294CE36A5A
:101D000002252B43E362E36A2B400293029B4023AC
:101D1000039304953D3B9846059301260696089645
:101D2000214F03A9380000F02FFA80230393049574
:101D300043460593069600250795089603A93800A3
:101D400000F022FAA26B802189030A43A263A36BED
:101D50000B400193019B154C626880239B04134345
:101D60006360E368124A1340E3602368114A13403A
:101D700023602368104A1340236009950F4B0A9390
:101D80000B950C950D950E950F9509A9200000F067
:101D90007FFBE3680A4A1340E36010B080BCB8469A
:101DA000F0BDC04600100240000400500054004046
:101DB000FF7FFFFFFFFFF7FFFFFFFDFFBB7C700012
:101DC00001F8FFFF70B586B00C22002103A801F0D6
:101DD000FCFE01AD08220021280001F0F6FE0026DD
:101DE0000096154A116D8023DB020B4313657F2398
:101DF000049380330593114C03A9200000F0B6FB37
:101E00002E716E71AE712A000021200000F02EFCB0
:101E100001236A461370537093701533D3700021F9
:101E2000200000F09BFCA36807229343013A134370
:101E3000A36006B070BDC0460010024000280040FC
:101E4000F0B5C64600B590B01C22002109A801F0EB
:101E5000BCFE1822002103A801F0B7FE274B596BE6
:101E60008020C001014359635A6B02400292029ADA
:101E7000DA6A01252A43DA62DB6A2B400193019B6F
:101E800080239B000393FF3BFF3B9846049303246E
:101E9000059404270897A026F60503A9300000F052
:101EA00073F98023DB0003934346049305940024D5
:101EB00006940794089703A9300000F065F9E12320
:101EC0005B0209930A940B940C940C230D930E94CB
:101ED0000F940B4C09A9200000F0B6FC6368094A76
:101EE00013406360A3682A229343A36023682B43B3
:101EF000236010B080BCB846F0BDC0460010024060
:101F000000380140FFB7FFFFF0B5DE4657464E46AA
:101F10004546E0B591B01C22002109A801F055FE0C
:101F20001822002103A801F050FE534B996B80202A
:101F30008002014399639A6B02400292029ADA6A24
:101F400001252A43DA62DB6A2B400193019B0426B8
:101F50000396022398460493032405940896A02729
:101F6000FF0503A9380000F00FF908230393434647
:101F700004930594002406940794089603A9380056
:101F800000F002F93D490B683D4A1A408023DB020C
:101F900013430B603B4B1A683B48814602401A6072
:101FA0001A683A48804602401A601A68202084461F
:101FB00082431A60186840229346904318601E6856
:101FC0008020864306431E601E68314F3E401E60DF
:101FD0001A68304E32401A600B682F4A1A4080232C
:101FE000DB0113430B602D4B19684A461140102248
:101FF0001143196019684246114019601968624618
:102000009143196019685A46914319601A688243CE
:1020100002431A601A6817401F601A6816401E6053
:102020001F4BC72189005A587F3082435A50802263
:1020300052051A60E1235B0209930A940B940C94F5
:102040000C230D930E940F94164C09A9200000F058
:10205000FBFB6368144A13406360A3682A2293431E
:10206000A36023681D43256011B0F0BCBB46B24697
:10207000A946A046F0BDC04600100240A80002409C
:10208000FFFFF0FF58000240EFBFFFFFFFCFFFFF51
:10209000FFFCFFFFFFF3FFFFFF0FFFFF44000240C5
:1020A00000E100E000440040FFB7FFFF82B0184BA2
:1020B000996B802212060A439A639B6BDB0FDB0746
:1020C0000193019B134BC32189005A5812480240C7
:1020D0005A50802292011A60104BDA6801218A431B
:1020E000DA60DA680E490A40DA60DA680D490A40B7
:1020F000DA60DA680C490A40DA60DA680B490A40AB
:10210000DA60DA680A490A40DA6002B07047C0460D
:102110000010024000E100E0FF00FFFF007C0040F3
:10212000FFF1FFFFFFFFDFFFFFFFBFFFFFFF7FFFAD
:10213000FFFFF9FF82B00A4A116B012319431163B3
:10214000126B13400193019B064AC2218900535828
:102150001B021B0A535080231B01136002B07047FF
:102160000010024000E100E0FEE7FEE77047704724
:1021700070477047704710B500F052FD10BD10B5A4
:1021800001F074FC10BD7047F0B5002216E0C6687F
:102190002B006B435F00FF18FC43A446BE430F694E
:1021A0005F433E43C6604C68022C27D004686546F6
:1021B0002C404D686B432343036001320C682300BD
:1021C000D34037D00123934025001D401C42F4D05A
:1021D0004B68013B012BDAD883682C006C43660006
:1021E0003619B3438E687443234383600C68436895
:1021F000A343CE68744323434360C8E7FF2D0BD845
:10220000066A1C006C4365432C01641BA6434C69A1
:10221000654335430562C9E7466A2D0A2C006C43C5
:102220006C4365432C01641BA6434C6965433543ED
:102230004562BBE70020F0BD044BDA6812090F23AA
:102240001340034AD35CD8407047C0460010024098
:1022500058520008044BDA68120A07231340034A55
:10226000D35CD8407047C046001002406852000856
:10227000044BDA68D20A07231340034AD35CD840E0
:102280007047C046001002406852000810B50E4B5F
:10229000DB68DB0305D40C4B1B68DB0612D50B484F
:1022A00000E00B480849CA68920C0F231340094A02
:1022B000D35C5843CB689B0D032119400131FDF7D6
:1022C00037FF10BD0448EDE70010024000093D0053
:1022D00000127A00705200080024F40010B5174B69
:1022E000DA680C231340082B23D009D8002B0CD01C
:1022F000042B14D1114B1B68DB061CD510480DE0D4
:102300000C2B0CD1FFF7C2FF08E00C4B5A68520BA4
:1023100007231340013380200002984010BD074B73
:102320005A68520B07231340013380200002984063
:10233000F4E70448F2E70448F0E7C0460010024022
:1023400000093D0000127A000024F40010B50400DA
:10235000032803D000200C2C32D010BD2E4BDB6C98
:102360000340020413432D4A93420FD02C4A934258
:1023700019D02C4A934206D0FFF7B0FFFFF75CFF5D
:10238000FFF776FFE7E7FFF7A9FFE4E7224B1B68BB
:102390000422100018401A42DDD01F4B1B68DB06D8
:1023A0000CD42148D7E71C4B1A6D80239B001000EA
:1023B00018401A42CFD080200002CCE71B48CAE761
:1023C000154BDB6C234024041C43194B9C420FD05B
:1023D000184B9C4216D0184B9C4206D0FFF77EFF4C
:1023E000FFF72AFFFFF736FFB7E7FFF777FFB4E7FE
:1023F000094B1B685B07B0D5074B1B68DB0608D48D
:102400000948AAE7044B1B6D9B05A6D58020000256
:10241000A3E70648A1E7C0460010024002000300FF
:1024200003000300010003000024F40000093D0044
:1024300008000C000C000C0004000C0010B5FA2180
:102440008900FDF775FE0138034B586000229A6041
:1024500005321A6010BDC04610E000E082B0084BA3
:102460001B680193019B431C00D00130002805D05C
:10247000034B1B68DB03F9D50138F7E702B070475F
:1024800010E000E0014B18607047C04600000020DB
:1024900030B502680124A24302600368174A134062
:1024A000CA6812028D682A43134303604B680361B4
:1024B0000368234303608368114A13408360836881
:1024C000DB0ADB020A698C692243134383600B69D0
:1024D000002B04D0826880231B02134383600368AF
:1024E000084A13400A68134303604B694268044971
:1024F0000A4013434360002030BDC046FFE0FFFFA9
:10250000FF7FFFFFFFFFCFFF10B582B00400FA236B
:102510009B000193C3685B0623D401235B42C36025
:10252000C3684022110019401A4218D10020019BB3
:10253000002B17D0012915D00B4B1B68DB0302D5EC
:10254000019B013B0193E3684022110019401A42AC
:1025500000D00121019B002BE9D10120E7E70121F7
:10256000E4E7002002B010BD10E000E070B5040008
:102570000D00CA234362773B4362FFF7C5FF012882
:1025800016D0A368402293432A681343A3602369AB
:10259000DB0BDB03AA68134323616A6823690649DE
:1025A0000B4012041343236181235B42E36000204C
:1025B000FF23636270BDC046FFFF80FF30B583B06C
:1025C0000100FA239B000193C26880231A40223B3A
:1025D000FF3B1343C360C368202214001C401A420F
:1025E00018D10020019B002B16D0002C14D01E4BBC
:1025F0001B68DB0302D5019B013B0193CB682022C2
:1026000015001D401A4200D12C00019B002BE9D17E
:102610000120E7E70124E4E7012822D0FA239B0008
:102620000193CB68202214001C401A4217D1019B51
:10263000002B16D0012C14D00B4B1B68DB0302D5EA
:10264000019B013B0193CB68202214001C401A42DD
:1026500000D00124019B002BE9D10120E7E70124F0
:10266000E5E703B030BDC04610E000E0F8B5CE4667
:10267000474680B504000E001500002927D1836865
:102680005B0601D400231360CA236362773B636255
:102690002000FFF739FF012857D0002E1DD02A68EF
:1026A00028796979AB790004024309020A4313438C
:1026B000226829490A401343236081235B42E36077
:1026C000A3689B0640D42000FFF778FF3DE08368B5
:1026D0005B06D9D400231360D6E72B6898462E7981
:1026E0000A213000FDF724FD0701FFB20A21300066
:1026F000FDF7A4FD0F43FFB26B7999460A2118003C
:10270000FDF716FD0601F6B20A214846FDF796FDD3
:102710000E43F6B2AB7999460A211800FDF708FD81
:102720000501EDB20A214846FDF788FD0D43EDB2E3
:102730003F0443461F4336023E4335432168064B60
:1027400019400D432560B8E70020FF236362C0BC39
:10275000B946B046F8BDC046808080FFF8B5CE4689
:10276000474680B504000E001500002906D15378B5
:10277000DA0603D5102293430A336B70CA236362CF
:10278000773B63622000FFF7BFFE012853D0002E85
:1027900018D02B78AA786978E8785B0300040343A3
:1027A00009020B431343626826490A4013436360DE
:1027B00081235B42E360A3689B063BD42000FFF7C4
:1027C000FDFE38E02B789846AF780A213800FDF7F7
:1027D000AFFC0601F6B20A213800FDF72FFD0E43CB
:1027E000F6B26B7899460A211800FDF7A1FC0701A3
:1027F000FFB20A214846FDF721FD0F43FFB2EB78F7
:1028000099460A211800FDF793FC0501EDB20A2153
:102810004846FDF713FD0D43EDB2434659032D0421
:102820000D433F023D432E436568064F3D402E4316
:102830006660BDE70020FF236362C0BCB946B046B6
:10284000F8BDC046C00000FF70B504000D0003686D
:10285000DB0749D40368264A1A404B68C9680B4312
:1028600029690B43A9690B43134303604368214A59
:102870001340AA681343436083681F4A13406A6980
:10288000134383601D4B984204D01D4B98420BD0DC
:1028900001202AE00320FFF759FD002826D02968EF
:1028A000002905D1012020E00C20FFF74FFDF4E7BF
:1028B000AA6980231B029A4208D04B08C018FDF772
:1028C00037FC03041B0CE36000200EE040004B08C3
:1028D000C018FDF72DFC0B4B03400004400C0722F1
:1028E00010401843E060EFE7012070BD0120FCE7D5
:1028F000F369FFEFFFCFFFFFFFFCFFFF0038014050
:1029000000440040F0FF000070B584B005006A4646
:10291000104B51CB51C21B781370022903D06B4668
:10292000585C04B070BDAB0706D162312800FDF7DA
:1029300085FC89B2002909D1C82149002800FDF78A
:102940007DFC89B2002903D11D20EAE71D20E8E7BC
:102950001C20E6E778510008F0B5C64600B5051E14
:1029600036D04679022E36D80C3676B2C388013B73
:102970001BB2984664214046FDF764FC07B264210F
:102980004046FDF745FD09B2CC1703231C406418EF
:10299000A4106418E4B2C82149004046FDF752FC77
:1029A0002418E4B27F00E41BE4B201361A2070431D
:1029B0000A21FDF747FC2418E3B2EC781B19DBB2BF
:1029C000013B5BB28C3318000721FDF721FD297113
:1029D00080BCB846F0BD76B20622835E9846C9E751
:1029E00070B51E4A13780133DBB213703B2B2ED91E
:1029F0000023137053780133DBB253703B2B28D97B
:102A00000023537093780133DBB29370172B22D9D4
:102A1000130000229A70DC780134E4B2DC70DE88A6
:102A20005D7929003000FFF76FFF84420AD90B4B14
:102A30000122DA700135EDB25D710C2D02D95A71A7
:102A40000136DE800548FFF787FF012000E0002007
:102A500070BD0020FCE70020FAE7C046040000201B
:102A6000F0B5CE46474680B585B026490B687F272E
:102A70001F40254C27700B68FE26F60133401E0BC5
:102A800036011B0A0F2213401E4366700B68FC20A0
:102A9000800303401D0D2D011B0C13401D43A57029
:102AA0004B683F2003409946E3704868F8235B0178
:102AB0001840030B1B01000A104003439C4663713E
:102AC0004868430B0720184020714968FF20000424
:102AD00001400B00090D0901180C02401143FA23B3
:102AE000DB0098464144E1800297019600954B46F1
:102AF0006246064801F072F805B0C0BCB946B0465F
:102B0000F0BDC04600280040040000207C520008B0
:102B1000F0B5C64600B588B0041E57D0057806ABA0
:102B20009D71427890465A7186781E71C37805AFC0
:102B3000BB7043797B7003793B70C0886421FDF7DB
:102B40007DFBF970234BCA225A62773A5A62543A93
:102B5000DA60204BDB685B06FBD5360443461B027C
:102B60001E4335431B4B1A681B490A4015431D6021
:102B700005A8027881784578C078520300040243A2
:102B80002D022A430A435968144801400A435A60F7
:102B900081225242DA60D9680232FF321140223A71
:102BA000FF3A0A43DA600B4BDB689B06FBD5094B07
:102BB000FF225A62E1886279E378A0786578247808
:102BC000029401950090064801F008F808B080BC16
:102BD000B846F0BD00280040808080FFC00000FFA4
:102BE000B052000800487047040000200A4B9A6861
:102BF00002210A439A601A6901390A431A619A69E3
:102C0000120C120405490A439A611A6906218A4383
:102C100002390A431A617047007C0040FF0300003C
:102C2000214B1B689B073DD51F4A536802210B436C
:102C3000536001231D4A13701D4A13701D4A1378F7
:102C40000133DBB21370072B05D9130000221A7071
:102C5000194B01321A70194A13780133DBB2137021
:102C60000F2B05D9130000221A70154B01321A7070
:102C7000144A13780133DBB213701F2B05D91300EC
:102C800000221A70104B01321A70104A1378013367
:102C9000DBB213703F2B05D9130000221A700C4BC6
:102CA00001321A707047C046007C0040BB00002013
:102CB000BC000020B4000020B9000020B5000020B6
:102CC000BD000020B6000020B8000020B7000020A2
:102CD000BA00002010B5FFF789FF00F03DF800F0C2
:102CE000E3FB00F095FE074B074A0849084800F04F
:102CF00075FF00F0E3FB00F073FE012100F0C2FD60
:102D000010BDC046E4520008F0520008FC52000812
:102D10000453000810B50F4B1B78002B00D110BDD9
:102D20000C4B00221A70A021C905486903048022B7
:102D30005204134080225200824313438B61FFF7F9
:102D40004FFE00F0BBFB00F04BFE00F0EBFD00F08F
:102D50000FF8E4E7B800002010B500F087F900286C
:102D600000D010BD014800F0C5FFFAE72453000869
:102D7000F0B5CE46474680B587B000F0E3FB0700CC
:102D800000F0E6FB0600FFF72DFF04000021002005
:102D900000F0DEF9A278404B9846190002A800F036
:102DA000E7FF3E4D0122290002A800F029FA002188
:102DB000202000F0CDF93A2399466B464A461A8105
:102DC000393A290002A800F01BFA00212E2000F059
:102DD000BFF96278414602A800F0CAFF012229002B
:102DE00002A800F00DFA00214E2000F0B1F96B4668
:102DF0004A461A81393A290002A800F001FA002156
:102E00005E2000F0A5F92278414602A800F0B0FF4C
:102E10000122290002A800F0F3F91821082000F08F
:102E200097F9E2786379E18800911D4902A800F0E2
:102E30009FFF1C4B98460122190002A800F0E0F900
:102E40002A21042000F084F90A213800FDF7FAF95C
:102E5000C4B20A213800FDF7DBFACDB20A213000F6
:102E6000FDF766F9C7B20A213000FDF7E7F9C9B2EC
:102E7000019100972B0022000B4902A800F078FF77
:102E80000122414602A800F0BBF900F0D3F807B0D8
:102E9000C0BCB946B046F0BD4C5300081400002039
:102EA000545300080C0000206453000870B5FA2346
:102EB0009B00334CA469240404D5013B9BB2002B36
:102EC000F7D13FE02E4B5C68A40AA40278252C437E
:102ED0005C605C682B4D2C405C60551C5C682A4E25
:102EE00034402D042C435C605D688024A4012C4395
:102EF0005C60FA239B00224CA469E40704D4013BE4
:102F00009BB2002BF7D11DE01D4B9862FA239B006A
:102F10001B488069C0071FD4013B9BB2002BF7D12F
:102F200010E001339BB2934218D2CC5C1448846207
:102F3000FA208000124CA469E407F2D4013880B270
:102F40000028F7D10E4A51688023DB010B43536000
:102F50000E4800F0CFFE70BD0023E4E7084A516838
:102F60008023DB010B435360FA239B00044A9269E0
:102F70001204F0D5013B9BB2002BF7D1E2E7C0462B
:102F800000540040FFFBFFFFFFFF00FF207400081C
:102F900010B5FEF7A5FE034A136801210B43136029
:102FA00010BDC0460054004000B583B06B46D91D2B
:102FB000087001220020FFF779FF03B000BD10B5B3
:102FC0004020FFF773FF10BD7F2815D83F2913D885
:102FD0000F4B1B79002B02D053425A41D2B2012A27
:102FE0000BD0CB08DB0118180723194001228A40B7
:102FF00008490B5C93430B547047CB08DB0118184E
:10300000072319408A4003490B5C13430B54F3E731
:10301000C0000020C800002010B5002806D1002103
:103020008022D200024800F0D0FD10BDFF21F7E75A
:10303000C800002010B5002413E020005038C0B2B2
:10304000FFF7B2FF0020FFF7AFFF1020FFF7ACFF44
:10305000E101054BC91880224020FFF7B0FF013481
:10306000E4B2072CE9D910BDC800002010B5FFF765
:103070008FFF354B01E0013B9BB2002BFBD1AE2013
:10308000FFF792FF2020FFF78FFF1020FFF78CFF44
:10309000B020FFF789FFC820FFF786FF0020FFF769
:1030A00083FF1020FFF780FF4020FFF77DFF812086
:1030B000FFF77AFFFF20FFF777FFA120FFF774FFEC
:1030C000A620FFF771FFA820FFF76EFF3F20FFF754
:1030D0006BFFA420FFF768FFD320FFF765FF0020F8
:1030E000FFF762FFD520FFF75FFFF020FFF75CFFDF
:1030F000D920FFF759FF2220FFF756FFDA20FFF70C
:1031000053FF1220FFF750FFDB20FFF74DFF202079
:10311000FFF74AFF8D20FFF747FF1420FFF744FF1A
:10312000AF20FFF741FF2E20FFF73EFF0020FFF703
:1031300073FFFFF77FFF054B00221A805A80013290
:103140005A71012010BDC046A8610000C0000020D7
:10315000014B188059807047C0000020F8B5CE465A
:10316000474680B581460D009046244B1B880A785F
:103170009B187F2B3EDC214B5B884A789B183F2BAA
:103180003ADC002620E01D4B1888598843465A42F5
:103190005A41D2B2891989B2001980B2FFF714FFDF
:1031A00001342B78A3420ED93B00A3401B04EAD57F
:1031B000124B18885988891989B2001980B2424681
:1031C000FFF702FFECE701366B78B34208D94A46B5
:1031D000203A53439B195B006A689F5A0024E0E73A
:1031E0002B78064A11885B1813804846C0BCB94644
:1031F000B046F8BD0020F9E70020F7E7C000002046
:1032000070B504000E00150000E00134207800289D
:1032100007D02A003100FFF7A1FF03002078834286
:10322000F3D070BD10B50EE04000C0B20133DBB288
:10323000072B07D841B20029F6DA40003121484077
:10324000C0B2F3E721001300013AD2B2002B04D040
:103250004C1C0B7858400023EAE710BD10B5FEF770
:103260003FFD034A136801210B43136010BDC046A4
:103270000054004070B582B005000C00FA239B009A
:103280007C4A9269120408D5013B9BB2002BF7D10E
:103290003721794800F0A2FCC7E0764B5A6877499D
:1032A0000A405A605A68920A920280210A435A6080
:1032B0005A6873490A405A605A687249114080221C
:1032C00052020A435A605968802292010A435A60A6
:1032D000FA239B00674A9269D20708D4013B9BB24C
:1032E000002BF7D13F21644800F078FC9DE0614B52
:1032F0009D62FA239B005F4A9269520608D4013B03
:103300009BB2002BF7D141215B4800F067FC8CE0B9
:103310006420FFF7A3F8574B5A6858490A405A608F
:103320005A68920A920280210A435A605A685449A4
:1033300011408022D2000A435A605A685149114014
:10334000C02292020A435A605968802292010A43BD
:103350005A60FA239B00474A9269D2071FD4013B67
:103360009BB2002BF7D14B21434800F037FC5CE0C7
:10337000404A516A01AAD1540133DBB2022B10D862
:10338000FA2292003B4989694907F1D4013A92B285
:10339000002AF7D14D21384800F020FC45E00023F9
:1033A000ECE7344B59688022D2010A435A60DA694B
:1033B00020210A43DA61FA239B002E4A9269120403
:1033C00027D401AE022231000020FFF72BFFB37893
:1033D000984227D101AB187800025B781843E32D9F
:1033E0002BD0FEF725F90022274BFDF723FBFEF734
:1033F00097F9DE218905FDF729F82449FDF74CF9F5
:103400002349FDF723F8FDF709F86080012002B099
:1034100070BD013B9BB2002BCFD15321164800F069
:10342000DDFB02E01B4800F065FC124A5168802376
:10343000DB010B4353600020E9E7FEF7F9F8164A79
:10344000164BFDF7F7FAFEF76BF9DE218905FCF75D
:10345000FDFFFEF71DF9124A124BFDF757FDFEF76F
:103460005FF90B49FCF7F2FFFDF7C4FA2080012059
:10347000CDE7C046005400404C740008FFFFFFFD3C
:10348000FFFBFFFFFFFF00FF00405F400000C04068
:103490000000204178740008D7A3703D0AF765400A
:1034A000CDCCCCCCCC6C474010B5FFF7D7FE024852
:1034B00000F020FC10BDC046A4740008F0B583B035
:1034C0001D4A13780133DBB21370042B01D803B00B
:1034D000F0BD130000221A701849E320FFF7CAFE5E
:1034E0000028F4D00120FEF7B9FF1449E520FFF7CA
:1034F000C1FE0028EBD0114E0023F55E0A21280002
:10350000FCF7A0FEC4B20A212800FCF781FFCDB26F
:1035100077880A213800FCF70BFEC6B20A21380072
:10352000FCF78CFEC9B2009133002A002100044848
:1035300000F054FBCBE7C046C8040020CC040020B8
:10354000C8740008014B0020185E7047CC040020AE
:10355000014B58887047C046CC0400200300303827
:10356000C0B2092806D91A00413AD2B2052A02D8B7
:10357000373BD8B270471A00613AD2B2052A02D856
:10358000573BD8B2F6E7FF20F4E7002343707047BB
:1035900010B50400054800F0ADFBA378012B02D064
:1035A0000223237110BD0133A371F9E700760008EF
:1035B00010B50400034800F09DFB0123A3702371A4
:1035C00010BDC0462076000810B50400044800F085
:1035D00091FB044B986800F08BFA0323237110BD14
:1035E000447600081C00002010B50400054800F0D7
:1035F00081FB054B986800F07BFA0023A3702371D0
:1036000010BDC046687600081C00002070B504009C
:103610004378012B19D08378012B18D0C378022B63
:1036200003D901234370012070BD0A4D9B005859F6
:1036300000F05EFAE3789B005959074800F0CEFA93
:10364000E3780133E3700020EEE70120ECE701208E
:10365000EAE7C0461C0000208C76000830B589B02F
:10366000050001A90E4B0A0013CB13C213CB13C2E2
:103670001B681360002401E00134E4B2062C07D873
:10368000A30001AA98582900FCF73EFD0028F3D1B9
:103690002100044800F0A2FA200009B030BDC04665
:1036A00088510008AC76000830B58FB005000D4990
:1036B00034221C3101A800F07FFA00240C2C0AD817
:1036C000A30001AA98582900FCF71EFD002802D08B
:1036D0000134E4B2F2E72100034800F07FFA200051
:1036E0000FB030BD88510008C8760008F0B5DE463E
:1036F00057464E464546E0B587B001900C00002382
:1037000005930B000D335C4A042105A800F0FCFA78
:10371000002800DC99E005AB1800FFF79FFF03AB22
:10372000187123001133544A042105AD280000F01C
:10373000EBFA002800DC90E02800FFF7B5FF804698
:1037400003AF7871607DFFF709FF0500A07DFFF7EB
:1037500005FFAE00AD196D004519EEB2FE70207E7A
:10376000FFF7FCFE0500607EFFF7F8FEAB00ED18EA
:103770006D004519EBB29946BB70E07EFFF7EEFE97
:103780000500207FFFF7EAFEAB00ED186D0045193C
:10379000EBB29A467B70A07FFFF7E0FE0500E07F6A
:1037A000FFF7DCFEAB00ED186D004519EBB29B4650
:1037B0003B702123E05CFFF7D1FE05002223E05C93
:1037C000FFF7CCFEFA239B005D43642358432D187A
:1037D000ADB22323E05CFFF7C1FE8300C0184000B8
:1037E0002D18ADB22423E05CFFF7B8FE80B22D188F
:1037F000ADB2FD80214B9C466544ADB2632D2ED801
:103800004346013BD8B20B282BD8013EF6B21E2E00
:1038100029D83B79062B28D84B46172B27D8534657
:103820003B2B26D85B463B2B01D900200EE0019CA8
:1038300020000A300822390000F0BEF90523237168
:103840000F4800F057FA012000E0002007B0F0BC5C
:10385000BB46B246A946A046F0BD0020F6E70020D0
:10386000F4E70020F2E70020F0E70020EEE7002078
:10387000ECE70020EAE7C046E476000830F8FFFFF6
:10388000E876000810B5041E0BD001290AD0A02349
:10389000DB0502229A62002343710370094800F09D
:1038A00029FA10BD1222002100F08FF9A023DB05B8
:1038B00002229A6178236371773B2370024800F0FB
:1038C00019FAEEE7387700081877000870B5040099
:1038D0000D00124800F00EFA042323712900200085
:1038E000FFF704FF002814D10D4800F003FAE37934
:1038F000042B04D80133E371022323720DE000236B
:10390000E37100212000FFF7BDFF2000FFF73DFE1F
:1039100003E000212000FFF7B5FF70BD5C770008D1
:103920008077000810B5041E1BD0FFF76FFE00283B
:1039300017D06379002B04D0013BDBB26371002BFD
:1039400010D0237A002B04D0013BDBB22372002B72
:103950000DD0A379002B04D0013BDBB2A371002B67
:103960000AD010BD00212000FFF78CFFE9E7064BCD
:10397000186900F0BDF8ECE7034BD86800F0B8F820
:1039800002232372EDE7C0461C000020F8B50700B3
:103990000E0000281DD000291DD00024042C16D8AC
:1039A00063001B199B000D4AD3185968300000F0C2
:1039B000FFF9002802D10134E4B2EFE763001D19DA
:1039C000AD00064B5D19AB680100380098473879A7
:1039D000F8BD0020FCE70020FAE7C046A877000801
:1039E00000487047D004002030B5002400E00134C6
:1039F00094420BD20B5D8362FA239B00C5696D066E
:103A0000F5D4013B9BB2002BF8D1F0E730BD0000AC
:103A100030B5124A124B9360124BD36053681B0CA3
:103A20001B04C8210B435360EFF31084C73981F3A3
:103A300010880D4B186810252843186084F31088EF
:103A4000EFF3108C81F3108898684024204398602D
:103A50008CF3108813680B43136030BD580002408C
:103A600024440040E80400200044004070B5FFF703
:103A7000B7FF0400194BDB69DB0626D5174B102274
:103A80001A62174B1A6801218A431A605A68C823C0
:103A90009B1A144D6B80144B802252025A60802274
:103AA000D2025A60802292025A60802212035A6027
:103AB000FFF7AEFF291D2000FFF768FF052805D09E
:103AC000C8220021094800F080F870BD20000A30AB
:103AD000FFF71EF8FEF7C4FFF2E7C04600440040BF
:103AE00058000240E404002000000240E8040020E6
:103AF0000FB400B5B5B036AA02CA019202A800F010
:103B000083F9021E03DC35B008BC04B0184702A9D3
:103B10000148FFF769FFF6E7004400400D4885467D
:103B20000D480E490E4A002302E0D458C450043315
:103B3000C4188C42F9D30B4A0B4C002301E01360EC
:103B40000432A242FBD3FEF71EFB00F011F8FEF791
:103B500045F8FEE70020002000000020980000202B
:103B60008478000898000020C4050020FEE70000CB
:103B700070B500260C4D0D4C641BA410A64209D153
:103B8000002601F0EDFA0A4D0A4C641BA410A6426F
:103B900005D170BDB300EB5898470136EEE7B3008E
:103BA000EB5898470136F2E77C7800087C780008EB
:103BB0007C78000880780008002310B59A4200D174
:103BC00010BDCC5CC4540133F8E703008218934263
:103BD00000D1704719700133F9E700000FB40B4BA7
:103BE00013B51C68002C05D0A369002B02D120005E
:103BF00000F012FB05AB2000049AA168019300F0CD
:103C000087FE16BC08BC04B01847C046340000202C
:103C100070B505000E00002804D08369002B01D187
:103C200000F0FAFAAB69AC68002B02D1280000F072
:103C3000F3FA2D4B9C4222D16C68636EDB0705D4EE
:103C4000A3899B0502D4A06D00F087FBA3891B0705
:103C500002D52369002B29D12100280000F036F974
:103C6000002823D001256D42636EDB0705D4A389AC
:103C70009B0502D4A06D00F071FB280070BD1B4BAA
:103C80009C4201D1AC68D8E7194B9C42D5D1EC6875
:103C9000D3E70136A360002B04DAA2699A4216DC4E
:103CA0000A2914D023685A1C22601970A36831783D
:103CB000013B0029EDD1A360002B0FDA2800220080
:103CC0000A3100F0ADF80A25431CCDD1CAE7220025
:103CD000280000F0A5F8431CE8D1C3E70A252368B3
:103CE0005A1C22601D70BFE7087800082878000879
:103CF000E877000810B5034B01001868FFF788FF4C
:103D000010BDC046340000200CB430B5174B0C0079
:103D10001D689DB0002908DA8B2301202B604042EA
:103D20001DB030BC08BC02B0184782236A469B0015
:103D30009382002302900690994200D04B1E049378
:103D4000079301236A465B42D382280021AB209A65
:103D500002A9019300F0B4FC431C01DA8B232B6011
:103D6000002CDDD00023029A1370D9E73400002024
:103D70000EB400B50B499CB01DAB029006900791A4
:103D800004910948094904CB0591006802A90193EF
:103D900000F096FC0023029A13701CB008BC03B01C
:103DA0001847C046FFFFFF7F340000200802FFFFD6
:103DB0000A7830B5002A0CD130BD9A4208D10123CF
:103DC000CC5C002CF8D0C55CA54201D10133F7E7EB
:103DD00001300378002BF0D11800EDE700B59BB05F
:103DE00000910491064905910291064903916946A3
:103DF00000F066FC0023009A13701BB000BDC046A3
:103E0000FFFFFF7F0802FFFF10B513000A0001004B
:103E100002480068FFF7E2FF10BDC04634000020F2
:103E2000F8B505000E001400002804D08369002BAB
:103E300001D100F0F1F9224B9C422ED16C68A369AC
:103E4000A360A3891B0732D52369002B2FD02368D9
:103E50002269F7B2981A6369F6B2834205DC210041
:103E6000280000F037F9002827D1A3680130013B72
:103E7000A36023685A1C22601F706369834204D0C8
:103E8000A389DB0707D50A2E05D12100280000F001
:103E900021F9002811D13000F8BD0A4B9C4201D114
:103EA000AC68CCE7084B9C42C9D1EC68C7E721005D
:103EB000280000F00BF80028C9D001267642EAE776
:103EC0000878000828780008E8770008374B70B5B4
:103ED0001D6806000C00002D05D0AB69002B02D137
:103EE000280000F099F9324B9C420FD16C680C23EA
:103EF000E25E93B211072DD4D90611D40923012013
:103F0000336037331343A381404270BD294B9C4239
:103F100001D1AC68EBE7284B9C42E8D1EC68E6E7BE
:103F20005B0713D5616B002908D023004433994205
:103F300002D0300000F080FA002363632422A389BA
:103F40009343A38100236360236923600823A2892C
:103F50001343A3812369002B0BD1A0218022A389C5
:103F6000890092000B40934203D02100300000F002
:103F70001FFA0C22A35E01201A0099B202400342EC
:103F80000FD00022A26062695242A2610020226921
:103F90008242BAD10A06B8D540221343A381013820
:103FA000B3E7880700D46269A260EFE7340000201D
:103FB0000878000828780008E8770008F7B58B89AA
:103FC00005000C001A075FD44A68002A04DC0A6C5A
:103FD000002A01DC0020FEBDE76A002FFAD0002293
:103FE00080212E682A601A0049010A400B4234D011
:103FF000606DA3895B0706D56368C01A636B002BED
:1040000001D0236CC01A0200216A00232800E76A4D
:10401000B847A189431C06D12B681D2B31D82C4AE7
:10402000DA40D3072DD50023636023692360CB04D6
:1040300005D5431C02D12B68002B00D16065616B54
:104040002E600029C6D023004433994202D02800B4
:1040500000F0F2F900206063BDE701232800216A27
:10406000B847431CC5D12B68002BC2D01D2B01D0F3
:10407000162B01D12E60ADE74023A2891343A38103
:10408000A9E740230B43FAE70F69002FA2D00A6883
:104090000F60D21B019200229B0700D14A69A260E7
:1040A000019B002B00DC95E73A002800019B216A68
:1040B000A66AB047002806DC40230120A2894042BE
:1040C0001343A38187E7019B3F181B1A0193E7E77E
:1040D000010040200B6970B505000C00002B02D1D7
:1040E0000025280070BD002804D08369002B01D171
:1040F00000F092F8144B9C421BD16C680C22A35E1A
:10410000002BEDD0626ED20704D49B0502D4A06DC3
:1041100000F023F928002100FFF750FF636E05002F
:10412000DB07DED4A3899B05DBD4A06D00F016F974
:10413000D7E7064B9C4201D1AC68DFE7044B9C42B9
:10414000DCD1EC68DAE7C046087800082878000877
:10415000E8770008002310B5040003604360836023
:10416000818143661900C281036143618361082232
:104170005C30FFF72AFD054B24626362044BA362A7
:10418000044BE362044B236310BDC046AD4E0008F0
:10419000D54E00080D4F0008394F000810B50249F0
:1041A00000F0BAF810BDC046D540000870B56825CB
:1041B0004A1E55430E002900743100F0A9F9041E6F
:1041C00008D000212A00016046600C30A0606832EF
:1041D000FFF7FBFC200070BD10B5024800F0BDF8F1
:1041E00010BDC046B105002010B5024800F0B6F879
:1041F00010BDC046B105002010B5024800F0ADF872
:1042000010BDC046B205002010B5024800F0A6F867
:1042100010BDC046B205002013B50400FFF7ECFF47
:10422000A369002B02D0FFF7EFFF13BDA364E36483
:104230002365134B134A1B68A2620193A34201D169
:104240000123A361200000F01FF86060200000F04F
:104250001BF8A060200000F017F800220421E060A5
:104260006068FFF777FF01220921A068FFF772FF5E
:1042700002221221E068FFF76DFF0123A361D2E75C
:10428000E47700089D410008F8B50700FFF7A4FF98
:104290001F4B1E68B369002B02D13000FFF7BCFF33
:1042A0004836B4687368013B04D53368002B22D0CC
:1042B0003668F6E70C22A55E002D1AD12000154BBA
:1042C0005830E360656600F047F8FFF78DFF200087
:1042D000082229002560A560656025616561A561EA
:1042E0005C30FFF772FC6563A563A564E56420009C
:1042F000F8BD6834D7E704213800FFF757FF041EE4
:104300003060D5D1FFF770FF0C233B60EFE7C0466C
:10431000E47700080100FFFFF7B50400060000275E
:10432000019148346368A5680093009B013B0093AA
:1043300004D52468002CF5D13800FEBDAB89012BD3
:1043400008D90E22AB5E013304D029003000019B56
:10435000984707436835E8E77047704770470000A3
:1043600070B50E001D000E23C95E140096B0002922
:1043700008DA0C22B35E00222A601B0611D48023C7
:10438000DB000FE06A4600F003FE0028F1DBF023BB
:1043900001991B021940054BC9184B42594129602C
:1043A000EDE740230020236016B070BD00E0FFFF62
:1043B000F7B502268B8905000C00334206D0230096
:1043C00047332360236101236361F7BD6A4601AB74
:1043D000FFF7C6FF00990700280000F099F80028B1
:1043E00008D10C22A35E9A05EFD4032293431E4307
:1043F000A681E4E70F4BAB628023A28920601343C0
:10440000A381009B20616361019B002B0DD02800DC
:104410000E23E15E00F0CEFD002806D00322A38922
:1044200093431A0001231343A381A0890743A78163
:10443000CBE7C0469D41000870B50500002910D0AB
:104440000C1F2368002B00DAE418280000F0F6FDAA
:104450001D4A1368002B05D163601460280000F02A
:10446000F5FD70BDA34208D9216860188342F3D1DD
:1044700018685B6841182160EEE71A005B68002B42
:1044800001D0A342F9D911685018A0420BD120687D
:104490000918501811608342E0D118685B68411810
:1044A00011605360DAE7A04202D90C232B60D5E7F4
:1044B00021686018834203D118685B684118216045
:1044C00063605460CAE7C046B405002070B50F4E63
:1044D0000D0031680400002902D100F0D5FC3060E5
:1044E0002900200000F0D0FC431C0AD00323C51C87
:1044F0009D43A84207D0291A200000F0C5FC431CA8
:1045000001D101256D42280070BDC046B8050020CC
:10451000F7B50322CB1C9343083306001F000C2B76
:1045200032D20C27B94231D8300000F087FD324D2D
:104530002B681C00002C2ED139003000FFF7C6FF7D
:104540000400431C1ED12C682500002D4AD123688D
:104550002900E3183000019300F096FC019B834290
:1045600043D123680337FF1A03239F4308370C2FD7
:1045700000D20C2739003000FFF7A8FF431C34D0CD
:104580002368DF19276013E0002BCBDA0C2300250A
:1045900033602800FEBD2268D11B20D40B2917D917
:1045A000E2192760A34211D12A6063681160536049
:1045B0003000250000F04AFD07220B35231D9543EE
:1045C000EA1A9D42E5D05B1BA350E2E75A60ECE794
:1045D0006268A34201D12A60EAE75A60E8E7230053
:1045E0006468A7E72C006D68AFE70C2330003360E8
:1045F00000F02CFDCDE7C046B4050020F0B58E6874
:1046000085B007000C00039201939E423CD8902392
:104610008A89DB001A4234D00969236860695B1A11
:10462000029303234343DD0FED18019B02980133EE
:104630001B186D10AB4200D91D00530532D529005F
:104640003800FFF765FF061E09D10C233B604023AD
:104650000120A28940421343A38105B0F0BD029A14
:104660002169FFF7A9FAA389144A1A40802313434A
:10467000A381029B2661F61826606561019EED1AF2
:10468000A560019B9E4200D9019E320003992068DB
:1046900000F0C1FCA36800209B1BA36023689E1947
:1046A0002660DAE72A00380000F0D8FC061EE0D1C8
:1046B00038002169FFF7C0FEC7E7C0467FFBFFFF58
:1046C000F0B5A1B003901D008B890F0016001B06EA
:1046D00011D50B69002B0ED14021FFF719FF38606F
:1046E0003861002805D10C23039A0138136021B0EA
:1046F000F0BD40237B61002308AC63612033637607
:104700001033A376079535002B78002B01D0252B8D
:1047100047D1AB1B0593B5420CD03200390003984A
:10472000FFF76CFF431C00D1AEE06269059B944625
:10473000634463612B78002B00D1A5E001220023A4
:104740005242626004A9543252186E1C2360E36026
:10475000A3601370A36505223178544800F050FC23
:10476000751C00281FD12268D30604D5532304A941
:104770005B1820211970130704D5532304A95B1873
:104780002B21197033782A2B16D0350000210A20EE
:10479000E3682A786E1C303A092A4ED9002911D1D3
:1047A00017E00135B0E7414B2268C01A012383406E
:1047B00013432E002360CEE7079B191D1B6807914A
:1047C000002B01DB0B9304E05B42E3600223134305
:1047D00023602B782E2B0AD16B782A2B35D1079B9F
:1047E00002351A1D1B680792002B2BDB0993304EF4
:1047F00003223000297800F003FC002806D0402373
:10480000801B8340226801351343236029780622E8
:1048100028486E1C217600F0F3FB00283CD0264B84
:10482000002B25D10722079B0733934308330793B7
:104830006369049A9B18636165E74343350001216E
:104840009B18A6E701235B42D0E700230A201A0049
:104850000135636029786E1C3039092903D9002B92
:10486000C5D00992C3E74243350001235218F1E74E
:1048700007AB00933A002100104B039800E000BF03
:104880000490049B0133D3D1BB890D985B0600D4FF
:104890002DE7012040422AE707AB00933A002100B0
:1048A000064B039800F0DEF9EAE7C04648780008B6
:1048B0004E7800085278000800000000FD4500080E
:1048C000936810B5013B9360002B04DA9469A3420E
:1048D00007DB0A2905D01368581C106019700800FE
:1048E00010BDFFF79DFA0100F9E7F8B506000F00CB
:1048F0001400D518AC4201D1002007E021783A001D
:104900003000FFF7DDFF0134431CF3D1F8BD000098
:10491000F0B5A1B006000C001F000392002804D0DF
:104920008369002B01D1FFF777FC8E4B9C421CD191
:104930007468636EDB0705D4A3899B0502D4A06D60
:10494000FFF70BFDA3891B0702D52369002B1DD19F
:1049500021003000FFF7BAFA002817D0636EDB079A
:104960000DD50120404221B0F0BD7F4B9C4201D1CA
:10497000B468DEE77D4B9C42DBD1F468D9E7A389BC
:104980009B05EED4A06DFFF7E9FCEAE7002308AD34
:104990006B6120336B761033AB760797039F3B78C0
:1049A000002B01D0252B4ED1039BFB1A0593039BB3
:1049B0009F420DD0059B21003000039AFFF795FF21
:1049C000431C00D1B5E06A69059B944663446B6162
:1049D0003B78002B00D1ACE001227B1C0393002329
:1049E00052426A6004A9543252182B60EB60AB60EB
:1049F0001370AB65039B052219785D4800F000FB3E
:104A0000039B5F1C002820D12A68D30604D55323BA
:104A100004A95B1820211970130704D5532304A996
:104A20005B182B211970039B1B782A2B16D00021B1
:104A3000EB68039F3A78781C303A8446092A4FD9AC
:104A4000002911D117E00137A9E7494B2A68C01A9C
:104A50000123834013432B600397CBE7079B191D6A
:104A60001B680791002B01DB0B9304E05B42EB60BA
:104A7000022313432B603B782E2B0AD17B782A2B01
:104A800037D1079B02371A1D1B680792002B2DDBBD
:104A9000099303223978374800F0B2FA002807D08A
:104AA000344B2A68C01A40238340134301372B60DC
:104AB00039787B1C062230480393297600F0A0FA4F
:104AC000002845D02D4B002B27D10722079B073309
:104AD0009343083307936B69049A9B186B615DE7F6
:104AE0000A214B4367469B180939A3E701235B4220
:104AF000CEE700231A0001376B603978781C303913
:104B00008446092903D9002BC3D00992C1E70A239F
:104B10005A4367465218093BEFE707AB0093220060
:104B200029003000164B00E000BF0490049B0133C5
:104B3000D1D1636EDB0705D4A3899B0502D4A06D98
:104B4000FFF70CFCA3895B0600D50AE70D980AE77E
:104B500007AB0093220029003000094B00F082F8D7
:104B6000E3E7C0460878000828780008E8770008DE
:104B7000487800084E7800085278000800000000CD
:104B8000EB480008F7B5150001938A680B690C0023
:104B90000090934200DA130022002B604332127817
:104BA000002A01D001332B6023689B0602D52B68B5
:104BB00002332B602268062317001F401A4227D0B9
:104BC000230043331B785A1E93412268920630D447
:104BD000220001990098089E4332B047431C25D01B
:104BE000062320682A68E16800250340042B03D1CE
:104BF0008D1AEB43DB171D40A3682269934201DD48
:104C00009B1AED180027BD4220D1002010E001378B
:104C1000E3682A689B1ABB42D2DD22000123019976
:104C20000098089E1932B047431CF0D10120404241
:104C3000FEBD3020E1184331087021005A1C453177
:104C40000978A218433202331170C1E72200012310
:104C500001990098089E1A32B047431CE6D00137EC
:104C6000D1E70000F0B58BB006920A0043320793FB
:104C7000059004920A7E0C00109B782A07D8622ABD
:104C800009D8002A00D1C1E0582A00D18CE02600C2
:104C90004236327022E0100063381528F7D8FBF74F
:104CA0003DFA16001F00F6FFF6FFF6FFF6FF1F00A5
:104CB000F6FFF6FFF6FFF6FFA80036009A00F6FFB3
:104CC000F6FFB900F6FF3600F6FFF6FF9E0026005D
:104CD0001A684236111D1960136833700123A7E06A
:104CE000086819680A1D05060BD50D681A60002DA5
:104CF00003DA2D23049A6D421370614B0A27039344
:104D00001BE00D681A604106F1D52DB2EFE70D6882
:104D10001968081D18602E0601D50D6803E06D06A0
:104D2000FBD50D68ADB2564B082703936F2A00D010
:104D300002372300002243331A706368A360002BFC
:104D400003DB0422216891432160002D02D1049EDF
:104D5000002B0CD0049E28003900FBF76FFA039B50
:104D6000013E5B5C33702B0005009F42F3D9082F96
:104D700009D12368DB0706D563682269934202DC08
:104D80003023013E3370049B9B1B2361079B210052
:104D900000930598069B09AAFFF7F4FE431C4CD12B
:104DA000012040420BB0F0BD45310A70344A0392F5
:104DB0001A68216820CA1A60080616D5CB0702D5E2
:104DC0002023194321601027002DB2D1202322680F
:104DD0009A432260ADE7202209680A43226022003C
:104DE000782145321170274AE1E74806E6D5ADB291
:104DF000E4E71A680D68101D4969186013682E06EB
:104E000001D5196002E06D06FBD519800023049ED0
:104E10002361BBE71A68111D196016680021300074
:104E2000626800F0EDF8002801D0801B60606368C4
:104E300023610023049A1370A8E7236932000699BE
:104E40000598079DA847431CAAD023689B0715D443
:104E5000099BE0689842A5DA1800A3E72200012325
:104E600006990598079E1932B047431C98D0013522
:104E7000E368099A9B1AAB42F0DCE9E70025F7E703
:104E8000597800086A780008002370B5064D0400C0
:104E900008002B6000F056F9431C03D12B68002B4F
:104EA00000D0236070BDC046BC05002070B50C006A
:104EB0000E25495F00F002F9002803DB636D1B1823
:104EC000636570BDA389024A1340A381F9E7C04618
:104ED000FFEFFFFFF8B51F008B8905000C001600DF
:104EE000DB0505D50E23C95E0022022300F074F80D
:104EF000A389054A28001340A38132000E23E15EF6
:104F00003B0000F01FF8F8BDFFEFFFFF70B50C008D
:104F10000E25495F00F060F8A389421C03D1054AC1
:104F20001340A38170BD802252011343A3816065A9
:104F3000F8E7C046FFEFFFFF10B50E23C95E00F093
:104F400015F810BD70B50400080011001A00002308
:104F5000054D2B60FCF778FE431C03D12B68002B1A
:104F600000D0236070BDC046BC050020002370B592
:104F7000064D040008002B6000F0BCF8431C03D170
:104F80002B68002B00D0236070BDC046BC050020FC
:104F9000002370B5064D0400080011002B6000F0DE
:104FA000B1F8431C03D12B68002B00D0236070BDE7
:104FB000BC050020002370B5064D040008002B60DE
:104FC00000F0A8F8431C03D12B68002B00D023600D
:104FD00070BDC046BC05002070B50400080011007B
:104FE0001A000023054D2B6000F09CF8431C03D1F0
:104FF0002B68002B00D0236070BDC046BC0500208C
:10500000C9B28218904201D10020704703788B42C8
:10501000FBD00130F6E710B5884202D98B189842D0
:1050200003D3002307E08B5C8354013AFBD210BD0D
:10503000CC5CC45401339A42FAD1F8E710B5024867
:10504000FFF78BF910BDC046B005002010B502482F
:10505000FFF784F910BDC046B0050020F7B5070082
:105060000E001400002905D11100FFF751FA0500C8
:105070002800FEBD002A03D1FFF7DEF92500F7E77F
:1050800000F030F80190844203D835004308A34271
:10509000EED321003800FFF73BFA051EE8D0019B54
:1050A00022009C4200D91A0031002800FEF784FD3E
:1050B00031003800FFF7C0F9DAE7000070B50400EE
:1050C000080011001A000023054D2B6000F032F893
:1050D000431C03D12B68002B00D0236070BDC04659
:1050E000BC0500200B1F1B68181F002B01DA0B5892
:1050F000C018704758220120014B40421A60704787
:10510000BC05002058220120014B40421A60704724
:10511000BC0500205822024B00201A607047C04690
:10512000BC05002058220120014B40421A60704704
:10513000BC05002058220120014B40421A607047F4
:10514000BC050020044A03001068002802D0C318E0
:10515000136070470148FAE7C0050020C805002029
:10516000F8B5C046F8BC08BC9E467047F8B5C046C6
:08517000F8BC08BC9E46704724
:10517800001F1C1F1E1F1E1F1F1E1F1E1F000000BA
:10518800F0740008F4740008F8740008FC7400084F
:105198000075000804750008087500080C750008FB
:1051A8001075000814750008187500081C750008AB
:1051B8002075000824750008287500082C7500085B
:1051C8003075000834750008387500083C7500080B
:1051D800F0040008C0040008C0040008BE04000869
:1051E800C4040008C40400080C060008BE04000833
:1051F800C40400080C060008C4040008BE04000823
:10520800B8050008B8050008B805000848060008F1
:105218001A0B0008D80A0008D80A0008D40A00089F
:10522800DE0A0008DE0A0008EA0D0008D40A0008B1
:10523800DE0A0008EA0D0008DE0A0008D40A0008A1
:105248007E0D00087E0D00087E0D0008540E000833
:10525800000000000000000001020304060708091E
:105268000000000001020304030406080C101820C3
:1052780030000000496E666F3A20205B636C6F63F4
:105288006B5D206765742074696D653A2025642D0F
:1052980025642D256420253032643A253032643A5D
:1052A80025303264200D0A00496E666F3A20205B73
:1052B800636C6F636B5D207365742074696D653A08
:1052C8002025642D25642D256420253032643A2557
:1052D8003032643A25303264200D0A004A756C2059
:1052E800323420323032320031373A30393A3338BA
:1052F800000000005631303100000000496E666F32
:105308003A20205B636F6D6D6F6E5D2025732C20D6
:1053180025732C2025730D0A000000004572726F5A
:10532800723A205B646973706C61795D20535344F1
:105338003133303620696E6974206572726F72215C
:105348000D00000025303264000000002530326472
:105358002D253032642D25303264000025642E2539
:10536800303164432025642E253031642525000022
:105378000000000000000000000000000000000025
:105388000000000000000000000000000000000015
:10539800000000000000000C000C000C000C000CC9
:1053A800000C000C000C000C000C000C0000000CA1
:1053B800000C0000000000000000001B001B001B88
:1053C800001B001B0000000000000000000000009F
:1053D800000000000000000000000000000080192C
:1053E800801980198019C07FC07F80190033C07F61
:1053F800C07F00330033003300330000000000009A
:105408000000001E003F807580650074003C001E8F
:1054180000078005806580658075003F001E0004D8
:10542800000400000000007000D840D8C0D880D91F
:1054380000730006000C801BC036C066C046C0065C
:1054480080030000000000000000001E003F003341
:1054580000330033001E000CC03CC06680638061CE
:105468008063C03E801C0000000000000000000CAB
:10547800000C000C000C000C0000000000000000F4
:105488000000000000000000000000000000000014
:10549800800000010003000600060004000C000C58
:1054A800000C000C000C000C0004000600060003B1
:1054B80000018000002000100018000C000C0004FF
:1054C8000006000600060006000600060004000CA0
:1054D800000C0018001000200000000C002D003FF8
:1054E800001E003300000000000000000000000063
:1054F80000000000000000000000000000000000A4
:105508000000000C000C000C000CC0FFC0FF000CD9
:10551800000C000C000C000000000000000000005F
:105528000000000000000000000000000000000073
:1055380000000000000000000000000C000C000447
:105548000004000800000000000000000000000047
:10555800000000000000001E001E00000000000007
:105568000000000000000000000000000000000033
:105578000000000000000000000000000000000023
:105588000000000C000C00000000000000000003F8
:10559800000300030006000600060006000C000CCD
:1055A800000C000C00180018001800000000000093
:1055B8000000001E003F0033806180618061806DC3
:1055C800806D8061806180610033003F001E0000B3
:1055D8000000000000000006000E001E0036002635
:1055E8000006000600060006000600060006000683
:1055F80000060000000000000000001E003F80734D
:1056080080618061800100030006000C00180030F2
:105618000060807F807F0000000000000000001C08
:10562800003E006300630003000E000E00038001CB
:10563800800180618073003F001E000000000000B0
:1056480000000006000E000E001E001E00160036A8
:1056580000360066807F807F000600060006000096
:10566800000000000000007F007F00600060006014
:10567800006E007F80638001800180618073003F3D
:10568800001E0000000000000000001E003F8033E4
:1056980080610060006E007F80738061806180613E
:1056A8008033003F001E0000000000000000807FE3
:1056B800807F80010003000300060006000C000C38
:1056C800000C000800180018001800000000000076
:1056D8000000001E003F8063806180610021001E81
:1056E800003F8061806180618061003F001E000092
:1056F800000000000000001E003F00738061806110
:1057080080618073803F801D800180610073003F4D
:10571800001E000000000000000000000000000063
:105728000000000C000C0000000000000000000059
:105738000000000C000C0000000000000000000049
:105748000000000000000000000C000C0000000039
:10575800000000000000000C000C00040004000819
:10576800000000000000000080008003000E0038E8
:1057780000600038000E8003800000000000000078
:105788000000000000000000000000000000807F12
:10579800807F00000000807F807F00000000000004
:1057A80000000000000000000000000000000000F1
:1057B80000400070001C000780010007001C0070FA
:1057C8000040000000000000000000000000001F72
:1057D800803FC071C060C000C00180030007000E98
:1057E800000C000C0000000C000C00000000000081
:1057F8000000001E003F803180718063806F806DE3
:10580800806D806F806700600032003E001C0000E1
:10581800000000000000000E000E001B001B001B13
:10582800001B80318031803F803F8031C060C06084
:10583800C0600000000000000000007C007E0063E3
:10584800006300630063007E007E00638061806106
:105858008063007F007E0000000000000000001E42
:10586800003F80318061006000600060006000607F
:10587800006080618031003F001E000000000000D1
:105888000000007C007F006380638061806180612C
:1058980080618061806100630063007E007C00009D
:1058A800000000000000807F807F006000600060D2
:1058B8000060007F007F0060006000600060807F03
:1058C800807F0000000000000000807F807F006073
:1058D800006000600060007F007F00600060006082
:1058E8000060006000600000000000000000001E72
:1058F800003F8031806100600060006080638063E9
:10590800806180618031803F001E0000000000003F
:105918000000806180618061806180618061807F3A
:10592800807F80618061806180618061806100002A
:10593800000000000000003F003F000C000C000CBD
:10594800000C000C000C000C000C000C000C003FBC
:10595800003F00000000000000008001800180017D
:105968008001800180018001800180018061806167
:105978008073003F001E0000000000000000C060AF
:105988008061006300660066006C0078007C006639
:105998000066006380618061C06000000000000054
:1059A800000000600060006000600060006000604F
:1059B80000600060006000600060807F807F000001
:1059C800000000000000C071C071C07BC07AC06ACE
:1059D800C06AC06EC064C060C060C060C060C060A3
:1059E800C0600000000000000000807180718079B4
:1059F80080798079806D806D806D80658067806733
:105A08008067806380630000000000000000001EC3
:105A1800003F0033806180618061806180618061C6
:105A2800806180610033003F001E0000000000001C
:105A38000000007E007F80638061806180618063F8
:105A4800007F007E00600060006000600060000071
:105A5800000000000000001E003F003380618061EC
:105A68008061806180618061806580670033803FEC
:105A7800401E0000000000000000007E007F8063E0
:105A8800806180618063007F007E00660063006340
:105A980080618061C0600000000000000000000E0E
:105AA800001F8031803100300038001E000780035D
:105AB800806180618031003F001E0000000000000E
:105AC8000000C0FFC0FF000C000C000C000C000C14
