:020000040800F2
:1000000030090020D5000008151A0008E10E00088C
:1000100000000000000000000000000000000000E0
:10002000000000000000000000000000172400088D
:100030000000000000000000171A00081924000842
:10004000E7000008E70000083D1D0008E700000881
:10005000E7000008E7000008E7000008E7000008E4
:1000600000000000E7000008E7000008D50E0008C7
:10007000E70000088115000800000000E700000804
:1000800000000000E7000008000000000000000081
:10009000E700000800000000E7000008E700000893
:1000A000E7000008E7000008E7000008E700000894
:1000B00053250008E70000080000000000000000D1
:1000C0000348854600F04AFC0048004771330008A9
:1000D000300900200448804704480047FEE7FEE757
:1000E000FEE7FEE7FEE7FEE751250008C100000835
:1000F00030B50B46014600202022012409E00D46C0
:10010000D5409D4205D31D469540491B2546954047
:1001100040191546521E002DF1DC30BD70B500248B
:100120002546002801DA01244042002901DA012590
:100130004942FFF7DDFFAC4200D04042002C00D026
:10014000494270BD03460B439B0703D009E008C931
:10015000121F08C0042AFAD203E00B780370401C77
:10016000491C521EF9D27047D2B201E00270401C05
:10017000491EFBD270470022F6E710B513460A4627
:1001800004461946FFF7F0FF204610BD30B505467E
:100190002A460B4610781C78521C5B1C002801D0A4
:1001A000A042F7D0002C03D0002802D06D1CEFE74E
:1001B000284630BD10B5002200E0521C835C8C5CE8
:1001C000A34201D1002BF8D1D8B2E1B2401A10BD40
:1001D000F8B502464A40D40F42004B0052085B0873
:1001E0009A4202D20246084611464A0023D0C30D65
:1001F0004A00DDB2120EAD1A202D35DA4902012671
:10020000490AF6058A19002C00D0524220214F1BC2
:100210001146B9402A411018C20D9A4221D0002C33
:1002200017D0012D08DCDA05801AD20F8019D20709
:10023000DBB200F04FFAF8BDDA05801A0123400066
:100240001B06C01880185A428018CA0F1043490074
:1002500007E04908C2071143DA05801A80194008EF
:10026000801800F02FFAF8BD61000122511A001B1E
:10027000F7E70122D2075140AAE70122D2075040F6
:10028000A6E7024670B54A40D30FDB0740002DD0E9
:100290004A002AD0010E140E000212020919400A67
:1002A000520A8418E50104465443000A120A2E0437
:1002B0005043A4194219200CC543AA18120C012559
:1002C000AD03521C521912047F39240400D0521C71
:1002D000104301D44000491EC2B20C06C0092018C8
:1002E000401C4008802A02D003E0002070BD400876
:1002F0004000002900DA0020184370BD420005D0FC
:100300004200120E52428A4201DB00207047C905AA
:1003100008187047F0B507460846584087B0C00F28
:10032000049048000E46590040084908BC1A88410C
:1003300005D2384631461E4617460B46024658003F
:10034000400810434CD0300D039040055900400D3B
:10035000490D0590401A0290402872DA18030121D5
:10036000000B09050843019004980092002805D06D
:100370000199524200208841009201900298402148
:100380000A1A0199009800F07AF905460C466B4666
:1003900007CB00F084F9C0197141039A0E0D0023B8
:1003A000D71756401A467A40164344D0049A002A7A
:1003B0002DD0029A012A039A15DC1205C01A914128
:1003C00001263605001C7141D20F059ED20700930D
:1003D000019202962A46234600F0C2F907B0F0BD0A
:1003E00038463146FAE71605224A0F46B218C01AB7
:1003F000B74101210905001C4F4100187F411146FA
:1004000018187941E20F10436D19644113E0E207B7
:100410006D0815436408C2071443039A01261205A8
:10042000C01A91413605001C7141CE074008304387
:100430004908C01851412A46234600F084F9CDE707
:10044000FFE7049801224000C117121A00238B41D4
:1004500004983146C417381AA141EEE730B401249C
:10046000E407634030BC55E730B40124E407614041
:1004700030BC4FE70000E0FFF0B51FB488B00B9927
:100480000998002448400999C00F4900490809917A
:10049000C0070B990090490049080B9109990898E9
:1004A000A64608431CD00B990A98084318D009980F
:1004B00001244000420D4800410D09982405000325
:1004C000000B204309900B980003000B20430B9076
:1004D00050181C494018002201901446104605E0AF
:1004E000002001460DB0F0BD032801DA034600E00C
:1004F00003239C46C11A0AAE0AE05F0008ADED5B1B
:100500004F00F75B7D430027AA187C41491C5B1E06
:100510006145F2DD410004AB5A522104120C0A433A
:10052000240C401C0828DFDB0198029000997046DB
:1005300001910090059B049A0799069800F010F924
:10054000D0E700000DFCFFFF0EB505490291002128
:1005500000910A460B46019100F002F903B000BD7C
:1005600033040000C20F410040020123400ADB05B2
:10057000D207090EC0187F2901DA0020704796299A
:1005800003DC9623591AC84001E096398840002AB6
:10059000F4D040427047410040020122400AD20597
:1005A000090E80187F2901DA00207047962903DCA4
:1005B0009622511AC8407047963988407047C20F3A
:1005C000D207400040080BD0C10D0723DB01C9183A
:1005D00040020905400A1143C20840071143704711
:1005E000002001467047CB0FDB07490010B54908D2
:1005F00002460A4307D00A0D07240903E401090B48
:10060000121B002A01DC002010BDC900440F0C435E
:10061000C100E018D205801800F054F810BDF0B504
:100620001FB40646002082B0054640240191009088
:100630001BE0019922460F46304600F0A1F9049ACA
:10064000059B801A994110D310461946224600F0A6
:1006500016F8361A8F410197224601200021009F8B
:1006600000F00DF838184D4100902046641E002817
:10067000DFDC019B00982946324607B0F0BD10B57B
:10068000202A04DB0146203A9140002010BD914011
:1006900020239C1A0346E3401943904010BD10B537
:1006A000202A06DBCB170846203A1041C1170B431E
:1006B00006E00B461341D0402024A21A9140084383
:1006C000194610BD002904DA401C490001D1400838
:1006D0004000704770B40024050C05D110240004BC
:1006E00002D1002921D01124050E01D100020834C5
:1006F000050F01D10001241D850F01D18000A41C2C
:10070000002801DB4000641C002908D020252E1B96
:100710000D46F540A14000D00121294308430106C0
:100720001B1B000ADB1D02D5002070BC7047DB05D7
:10073000181880180029F8DA401C4900F5D170BC5F
:1007400040084000704710B5002B08DA0024401C18
:10075000614192185B411A4301D14008400010BD2D
:10076000F0B51FB482B005460C0003D0084602F075
:1007700047F902E002F044F9203002460090214699
:100780002846FFF77CFF049B059A04460F46184352
:100790001143084314D0184610431BD00098402141
:1007A0000A1A1846059900F0EBF805460E46009A1D
:1007B00005990498FFF763FF084305D0012004E082
:1007C0002046394607B0F0BD0020C11705430E434F
:1007D0002C43374300990E986305401A7905E40AC3
:1007E00000220C43FD0A0A3002D500200146E9E749
:1007F0000105101969410C9C0D9D00196941FFF715
:10080000A2FFDFE7F0B50C465C4085B0E40FE407DB
:1008100003944C0000266408590094464908024697
:100820000296224321D062460A431ED06200570D31
:100830004A000E032303550D012402462C492405CA
:10084000781B1B0B360B4018234326436146009050
:100850001C46501AB44103D30098401C009002E09B
:10086000921800985B41002803DA0020014605B089
:10087000F0BD0020012109050746864611E06446C7
:100880001D46141BB54106D36546521BB341744641
:1008900007430C43A646CD07400849082843921851
:1008A0005B4105460D43EAD11046184313D060461C
:1008B000194650407140084306D06046101AB341B3
:1008C00006D20122002306E000220123DB0702E01A
:1008D0000122D2435310009874460105381C61412F
:1008E000029C039D00196941FFF72DFFBFE700003F
:1008F000FD0300004A0009030123090B1B051943EE
:100900000A4B10B5520D9A4202DA0020014610BD82
:10091000064B34339A4203DC9A1A00F031F810BDCA
:10092000034BD218FFF7ABFE10BD0000FF03000021
:10093000CDFBFFFF10B5002904DB0124E407404292
:100940008C412146002B04DB1C460123DB0752426D
:10095000A341994200D1904210BD0000064C0125F0
:10096000064E05E0E36807CC2B430C3C9847103457
:10097000B442F7D3FFF7A8FB4C5600086C560008AA
:1009800010B5202A04DB0846203AD040002110BDD3
:100990000B46D340D0402024A21A91400843194668
:1009A00010BD01463039092901D8C8B27047014647
:1009B0004139052901D8373804E001466139052954
:1009C00002D85738C0B27047FF207047F8B504000E
:1009D0002CD06079032805D20C3045B2E088401E47
:1009E00000B203E0052506206557205E6421FFF76D
:1009F00095FB06B2C817800F401880104018F117F9
:100A0000890F891989104718681C1A2148430A213F
:100A1000FFF784FBE1787200BA1A8918401E40186B
:100A200040B207218C30FFF779FB2171F8BD00003F
:100A3000FEB5194917480A685606760E06700A6808
:100A40007F231B021A405204550E45700A683F234B
:100A50001B041A409202940E84704A6893069B0EFF
:100A6000C3704A681F273F023A40D204D20E427137
:100A70004F683F047F0F077149687D270902090EFF
:100A80003F01C919C1806F4670C704A001F068FF1B
:100A9000FEBD00000400002000280040496E666F83
:100AA0003A20205B636C6F636B5D20676574207414
:100AB000696D653A2025642D25642D256420253037
:100AC00032643A253032643A25303264200D0A000F
:100AD0000048704704000020F0B5284C85B020780D
:100AE000401CC0B220703C280ED3002020706178DA
:100AF000491CC9B261703C2906D36070A178491CB9
:100B0000C9B2A170182902D2002005B0F0BDA070B2
:100B1000E0781BA1401CC6B2E6708EC96079E588FA
:100B200003976F460EC7022814D06946085CB0428E
:100B30000BD20120E0706179491CC9B261710D29A5
:100B400003D36071E088401CE0802046FFF73EFF41
:100B50000120DAE7A80705D164212846FFF7C8FA83
:100B6000002908D1FF2191312846FFF7C1FA002959
:100B700001D01C20DBE71D20D9E700000400002085
:100B8000001F1C1F1E1F1E1F1F1E1F1E1F000000F8
:100B9000F0B587B0040052D0277868468771617835
:100BA00041710291A17801710191E67886706579B1
:100BB0004570217901700491E0886421FFF798FA6B
:100BC0006846C1701F48CA22426253224262002214
:100BD000D243C260C2685206D20FFBD0019A029B78
:100BE00012041B021A4303683A43174F3B40134356
:100BF0000360049A09065203090A0A4329020A43B8
:100C000041683243114B1940114341608021C9436F
:100C1000C160C16880221140A139C160C1688906E4
:100C2000C90FFBD0FF214162A078227861786B4622
:100C300007C3E3786279E18805A001F091FE07B06F
:100C4000F0BD000000280040808080FFC00000FF51
:100C5000496E666F3A20205B636C6F636B5D207337
:100C600065742074696D653A2025642D25642D25F1
:100C70006420253032643A253032643A25303264BB
:100C8000200D0A0010B50E48017A002916D0002167
:100C90000172FF220132052109074869034613400A
:100CA0001B04824313438B61FFF716FF01F0B0F979
:100CB00000F012F901F0ACFD00F052F810BD000098
:100CC0000C00002010B51448816802221143816095
:100CD0000169012211430161104A8169090C09046B
:100CE0001143816101690422062399431143016183
:100CF00000F0D2F801F03CF801F0BAFD08A30BA215
:100D00000DA10FA001F02CFE01F082F900F0E4F833
:100D1000012101F0CFFC10BD007C0040FF0300006A
:100D20004A756C20333120323032320032323A355B
:100D3000363A3233000000005631303100000000F6
:100D4000496E666F3A20205B636F6D6D6F6E5D203C
:100D500025732C2025732C2025730D0A000000001C
:100D600070B586B000F0F2FF054600F0E9FF0646D8
:100D7000FFF7AEFE04460021084601F0BFF9A27855
:100D800037A102A801F016FE0122374902A801F09E
:100D90000BFB0021202001F0B1F934A102A801F0E1
:100DA00009FE0122304902A801F0FEFA00212E209E
:100DB00001F0A4F962782AA102A801F0FBFD01224A
:100DC000294902A801F0F0FA00214E2001F096F91D
:100DD00026A102A801F0EEFD0122234902A801F09C
:100DE000E3FA00215E2001F089F922781CA102A813
:100DF00001F0E0FD01221C4902A801F0D5FA1821FA
:100E0000082001F07BF9E08800906379E27818A16E
:100E100002A801F0CFFD0122194902A801F0C4FA8D
:100E20002A21042001F06AF90A213046FFF760F90F
:100E30000E46C4B20A212846FFF770F9CBB2C2B2FF
:100E400010A102A80196009401F0B4FD01220C4902
:100E500002A801F0A9FA01F0BBFA06B070BD0000CB
:100E60002530326400000000200000203A0000001D
:100E7000253032642D253032642D25303264000057
:100E80001800002025642E25303164432025642E6F
:100E9000253031642525000010B501F0CDF900287A
:100EA00002D102A001F05CFD10BD00004572726F1E
:100EB000723A205B646973706C61795D20535344AE
:100EC0003133303620696E6974206572726F722119
:100ED0000D0A0000704700000048704750040020D1
:100EE000FEE70000054B10B559182039C97F43585B
:100EF00003242403A3431343435010BDD8330008F5
:100F0000054B10B559182039C97F4358034C23406D
:100F10001343435010BD0000D8330008EFBFFFFF5C
:100F2000054B10B559182039C97F43588024A34375
:100F30001343435010BD0000D8330008054B10B5D3
:100F400059182039C97F43580324A402A3431343EB
:100F5000435010BDD8330008054B10B5591820393F
:100F6000C97F43582024A3431343435010BD0000BE
:100F7000D8330008054B10B559182039C97F43589C
:100F80004024A3431343435010BD0000D83300084E
:100F900010B589000F24091F8C408030836A8A4075
:100FA000A3431343836210BD054B10B55918203974
:100FB000C97F435803242402A3431343435010BD65
:100FC000D8330008F0B500244DE00123A3401A40B7
:100FD00048D04B68012B01D0022B10D18E68856858
:100FE000134653435F00DF19BD4373431D438560C0
:100FF000CD680B6846689E436B431E4346600F698D
:10100000C668134653435D005D19AE435F433E43DC
:10101000C6604E68022E1FD1FF2A0ED817464A69B5
:10102000066A94461A467A437A431701BF1ABE43AA
:1010300067467A43164306620EE0160A324672434A
:101040004F6972437243BC461601B71A466ABE43E3
:1010500067467A43164346624A6806685343AE437E
:101060001E430660641C0A681346E340ADD10020AD
:10107000F0BD30B502685208520002608C68CA6840
:1010800003681F252D021202AB4322431343036062
:101090004A680261026801231A43026083680122E0
:1010A000D203934383608C690B6985682343ED0AFF
:1010B000ED021D4385600B69002B02D0836813434A
:1010C00083600C68036803252D05AB43234303604D
:1010D0004B694168914319434160002030BD0000D5
:1010E00008B50449CA6A0243CA62C96A014000914C
:1010F00008BD00000010024008B50449CA6A024356
:10110000CA62C96A0140009108BD00000010024097
:1011100010B57D21C900FEF7EBFF0449401E486170
:10112000002088610520086110BD000000E000E09B
:10113000F8B5204D01270024AE00FF03032802D09C
:101140000C2824D021E000F03BF81B4940182ED099
:10115000012809D0022813D000F0AEFD00F086FD72
:1011600000F09EFD044610E000F032F800280CD09C
:1011700000F036F8002801D02C4606E0344604E0A2
:1011800000F036F8002800D03C462046F8BD00F0BC
:1011900017F80A4940180AD00428E5D00828EFD0EB
:1011A00000F08AFD00F062FD00F06EFDDAE700F06D
:1011B00083FDD7E700093D00FFFFFCFFFCFFF3FFC5
:1011C0000249C968014000040843704740100240CA
:1011D000024800684007C00F70470000001002403E
:1011E00002480068C006C00F7047000000100240AF
:1011F000024800698005C00F70470000401002409F
:101200000349CA68030C9A4380B20243CA6070471C
:101210004010024010B5029C49032406240A1B0614
:1012200021431B0C1943D2B211434268024B1A40AE
:101230000A43426010BD0000C00000FFF8B501265F
:1012400014460F460546002906D16078C10603D52D
:10125000EF2108400A306070CA206862532068623B
:10126000284600F035F8012829D0E078002F04D076
:1012700000906378A278217816E00A21FEF738FF03
:1012800000010843C7B260780A21FEF731FF000170
:101290000843C6B2A0780A21FEF72AFF00010843DE
:1012A00000972178C2B233462846FFF7B3FF80206B
:1012B000C043E860A8688006C00F04D00026FF2065
:1012C00068623046F8BD284600F0ACF80646F6E7FE
:1012D00018B57D21C9000091C16800224906C90FD7
:1012E00015D1491EC160C1680B4B4906C90F0CE0FE
:1012F0001969C903C90F02D00099491E0091C1683C
:10130000009C4906C90F002C03D00029F0D01046DC
:1013100018BD0122FBE7000000E000E070B50446C4
:101320000126CA200D466062532060622046FFF706
:10133000CFFF012817D02968A068402290430843B6
:10134000A060A8682169C90BC90301432161A9886C
:1013500020697F2212049043090408432061802001
:10136000C043E0600026FF206062304670BD000090
:101370001206120A10B50A431906090C029C0A4308
:10138000E1B20A430168024B19401143016010BDEC
:10139000808080FFF8B5054614460F4601260020E0
:1013A000AA6840210A4200D12060CA206862532006
:1013B00068622846FFF78CFF012829D0A079002F0A
:1013C00004D0009063792279216816E00A21FEF7A3
:1013D0008FFE00010843C7B260790A21FEF788FE3C
:1013E00000010843C6B220790A21FEF781FE000100
:1013F000084300972168C2B233462846FFF7B8FF7A
:101400008020C043E860A8688006C00F04D0002692
:10141000FF2068623046F8BD284600F003F8064613
:10142000F6E7000038B57D24E4000094C26800218E
:1014300080231A40A13AC260C268164B9206D20FAE
:101440000CE01A69D203D20F02D0009A521E009209
:10145000C268009D9206D20F002D18D0002AF0D14C
:10146000002912D10094C2689206D20F0BE01A69CB
:10147000D203D20F01D0621E0092C268009C920675
:10148000D20F002C03D0002AF1D0084638BD01212C
:10149000FBE7000000E000E0014908607047000041
:1014A0000000002041680922D20291434160816816
:1014B0002A2291438160704770B5044600680D464A
:1014C0000126304041D1E9686868AA690843296962
:1014D0001143084321681E4A114008432060A9684F
:1014E0006068032212039043084360606969A06842
:1014F000121190430843A0601648844201D1032092
:1015000003E01548844220D10C20FFF711FE00288B
:101510001BD02968002918D00123AA690026DB0303
:101520009A420CD140004A088018FEF7E1FD81B2D2
:101530000A4808400907490F0143E16005E04A08ED
:101540001018FEF7D5FD80B2E060304670BD000097
:10155000F369FFEF0038014000440040F0FF000055
:1015600008B506490A690092421C00D0401C0A696D
:10157000D20300D5401E0028F9D108BD00E000E0EC
:1015800010B500F001F810BD174801688907C90FB0
:1015900028D04168022211434160144801210171A1
:1015A00041710278521CD3B200220370072B01D97B
:1015B0000270817143785B1CDBB243700F2B01D941
:1015C0004270C17183785B1CDBB283701F2B01D921
:1015D00082700172C3785B1CDBB2C3703F2B01D9F0
:1015E000C270417270470000007C00400C00002077
:1015F00008B509480121026B0A430263006B0840E9
:101600000090064801680902090A016001200449A6
:10161000C002086008BD00000010024008E400E0BD
:1016200000E100E0F0B587B018216846FEF7A3FDA1
:101630000420FFF755FD0120FFF752FD0220FFF7C0
:101640004FFD022005252D07A862C601AE620024C9
:101650000127009002940394694601970494284658
:10166000FFF7B0FC02940394694628460197009660
:101670000494FFF7A7FC07B0F0BD0000F0B58FB0F1
:101680001C2106A8FEF777FD18216846FEF773FDBA
:10169000264C0220E16A0143E162E16A0126014031
:1016A000402000900D910320022700250290019711
:1016B00003966946059604951D48FFF783FC802034
:1016C00000900320029001970396694605960495C1
:1016D0001748FFF777FCA16B70050143A163A16B6D
:1016E000144C01400D916068710608436060E06829
:1016F00089128843E06020680901884320602068DF
:101700008910884320600C480C9506950790089531
:1017100009950A950B9506A92046FFF7AAFCE068F3
:1017200006490840E0600FB0F0BD00000010024024
:101730000004005000540040380F300001F8FFFF53
:1017400008B518480121826BC9070A438263806B80
:101750000840154900900868FF2212029043086073
:1017600001201249400308601148C1684908490036
:10177000C160C168072252029143C160C168012261
:1017800052059143C160C16852009143C160C16874
:1017900052009143C160C168032252049143C16069
:1017A00008BD0000001002400CE400E000E100E091
:1017B000007C004030B587B00024184803940094A2
:1017C00001940294016901229204114301617F2076
:1017D0000490FF20124D059003A92846FFF79EFDB7
:1017E00069460C714C718C716A4600212846FFF7DE
:1017F000D1FD012069460872487288721620C872AD
:1018000002AA00212846FFF719FDA9680620C90889
:10181000C9000143A96007B030BD0000401002407C
:1018200000280040F0B58FB01C2106A8FEF7A3FCED
:1018300018216846FEF79FFC1F480121426B89036F
:101840000A434263406B08400D900120FFF754FCAF
:1018500000240120042740020225032603946A463F
:101860000597049461C2052069460007FFF7AAFBAB
:10187000680203946A460597049461C2052069468C
:101880000007FFF79FFBE1204002069007940894B1
:1018900009940B940C940C20084C0A9006A920463D
:1018A000FFF70AFE2046FFF7FDFD206801210843EF
:1018B00020600FB0F0BD0000001002400038014071
:1018C000F0B58FB01C2106A8FEF755FC182168461C
:1018D000FEF751FC4A480121826B49040A438263A6
:1018E000806B08400D900120FFF706FC00240425C2
:1018F00002260327039468460494E0C00520694645
:1019000000070595FFF75EFB082003946A460595DE
:101910000494C1C2052069460007FFF753FB394D07
:10192000042205212846FFF733FB00220521284623
:10193000FFF7E6FA002205212846FFF7D3FA002236
:1019400005212846FFF708FB002205212846FFF75E
:1019500011FB802205212846FFF7E2FA002205212B
:101960002846FFF721FB002205212846FFF7E6FA6B
:10197000042211462846FFF70BFB102204212846BB
:10198000FFF7BEFA002204212846FFF7ABFA002237
:1019900004212846FFF7E0FA002204212846FFF739
:1019A000E9FA802204212846FFF7BAFA002204212E
:1019B0002846FFF7F9FA002204212846FFF7BEFA6D
:1019C00011480168090A0902016001250F49280729
:1019D0000860E120400206900794089409940B9453
:1019E0000C940C200A4C0A9006A92046FFF764FDCF
:1019F0002046FFF757FD2068284320600FB0F0BD58
:101A000000100240000002401CE400E000E100E0A1
:101A100000440040FEE770470FB470B5B2B037AA7B
:101A20006846369900F0DAFF002814DD00227D2593
:101A30006C460B49ED000CE0A35C8B622B4603E087
:101A40005B1E1B041B0C03D0CE697606F60FF7D085
:101A5000521C8242F0D332B070BC08BC04B01847AC
:101A600000440040F0B5064693B000200B460C46FB
:101A700012900D3361A2042112A800F081FF00280A
:101A80007EDD12A80B901C225D4903A8FEF75AFBCD
:101A900007270025A90003A840580B99FEF78AFBE9
:101AA000002803D06D1CEDB2BD42F3D3294655A0EA
:101AB00000F056FF68460572234611334FA20421F9
:101AC00012A800F05DFF0028DADD12A84C49119041
:101AD00034221C3103A8FEF735FB0D270025A90091
:101AE00003A840581199FEF765FB002803D06D1C30
:101AF000EDB2BD42F3D3294649A000F031FF68465C
:101B00004572607DFEF74DFF05460A214D43A07DDD
:101B1000FEF747FF29186846C171207EFEF741FF96
:101B200005460A214D43607EFEF73BFF29186846B3
:101B30008171E07EFEF735FF05460A214D43207F87
:101B4000FEF72FFF291868464171A07FFEF729FF95
:101B500005460A214D43E07FFEF723FF291868461A
:101B6000017120346078FEF71CFF7D210546C90015
:101B70004D43A078FEF715FF642148432D1800E07F
:101B80002BE0E078FEF70DFF0A2148432D1820795D
:101B9000FEF707FF281881B2684641817D200001C9
:101BA000081A642819D26846407A401E0C2814D2BC
:101BB0006846C079401E1F280FD26846007A062862
:101BC0000BD868468079172807D8684640793B28A3
:101BD00003D8684600793B2802D9002013B0F0BD35
:101BE0003046082201A90A30FEF7ACFA0520307110
:101BF00012A000F0B5FE0120F0E700002573000000
:101C0000E4540008496E666F3A20205B65737038B3
:101C10003236365D207765656B3A25640D0A000023
:101C2000496E666F3A20205B657370383236365DD8
:101C3000206D6F6E74683A25640D0A00496E666FF8
:101C40003A20205B657370383236365D20676574E4
:101C50002074696D6520616E642064617465206321
:101C60006F6D706C6574650D0A0000000449C968E9
:101C7000F0221140034A0909515CC8407047000036
:101C800000100240DF3300080349C968034A4905D0
:101C9000490F515CC840704700100240F8330008FB
:101CA0000349C968034A8904490F515CC840704719
:101CB00000100240F833000870B51C4DEA680C2093
:101CC00002401B4808D01B4CA600042A0AD0610021
:101CD000082A0FD00C2A0FD069680904490F491C43
:101CE000884070BDFFF77CFA002801D0204670BD07
:101CF000304670BD084670BDE868012212041042EB
:101D000004D1FFF76DFA002801D10DE00C46E86818
:101D10000002810FE868084A8002000F105C491C2D
:101D20006043FEF7E5F970BD3446F0E7001002406D
:101D30000080000000093D00EF33000870470000FC
:101D40000148408870470000300000200149002011
:101D5000085E70473000002010B5FFF78FFC034885
:101D6000016801221143016010BD000000540040D1
:101D700010B5FFF7F1FF02A000F0F2FD10BD00006A
:101D8000496E666F3A20205B7369373032315D20CF
:101D90007369373032312069326320696E69740D9E
:101DA0000A000000F3B57D250646ED0081B0284607
:101DB000794C03E0401E0004000C20D0A169090406
:101DC000C90FF7D1616801204006814361606168F5
:101DD0008020890A89020143616060680127BF028F
:101DE000B84360606068FF2109048843B901084373
:101DF00060606068C91008436060284605E03721CC
:101E000073E0401E0004000C06D0A169C907C90F89
:101E1000F7D0A662284605E03F2166E0401E000498
:101E2000000C24D0A1694906C90FF7D06420FFF740
:101E300097FB6168012040068143616061688020F2
:101E4000890A8902014361606068B8433843606071
:101E50006068FF2109048843032109040843606086
:101E600060680121490308436060294605E041217B
:101E70003BE0491E0904090C07D0A069C007C00F48
:101E8000F7D000206B46294605E04B212DE0491E86
:101E90000904090C13D0A2695207D20FF7D0616A66
:101EA0001954401CC0B20328EDD360680121890396
:101EB00008436060E06920210843E06105E04D21AE
:101EC00013E06D1E2D042D0C0ED0A0690004C00F70
:101ED000F7D1012231251978484000215B1C070603
:101EE00007D54000684005E053212CA000F038FDE4
:101EF00011E04000491CC9B2C0B20829EFD3114615
:101F0000521ED2B20029E6D169468978884209D0AA
:101F10002DA000F025FD6068012189030843606061
:101F20000020FEBD684600880F24E443314D40BACE
:101F3000E32E15D0FEF708FB00222F4BFEF79CFA8C
:101F4000FEF751FB2146FEF7D9F92C49FEF791F92E
:101F50002946FEF796F9FEF71EFB0299488019E024
:101F6000FEF7F2FA264A274BFEF786FAFEF73BFB0E
:101F70002146FEF7C3F9FEF722FB234A234BFEF767
:101F80006DFAFEF730FB2946FEF77BF9FEF7EAFA19
:101F9000029908800120FEBD005400404572726F16
:101FA000723A205B7369373032315F6969635F6809
:101FB000775D20736937303231206D6561737572DA
:101FC000653A2025640D0A004572726F723A205BF3
:101FD0007369373032315F6969635F68775D207399
:101FE00069373032312063726338206572726F72E4
:101FF0000D0A00000000204100405F400000C0408A
:10200000D7A3703D0AF76540CDCCCCCCCC6C474013
:10201000F8B517480178491CC9B20170042925D9BF
:1020200000210170811CE320FFF7BCFE00281DD0B9
:102030000120FFF795FA0E49E520891CFFF7B2FE53
:10204000002813D00A4E0A21B61C7088FEF750F8FB
:10205000C4B20D460020305E0A21FEF75FF8CAB216
:10206000C1B2234603A0009500F07AFCF8BD000041
:102070002E000020496E666F3A20205B736937306E
:1020800032315D2025642E25303164432025642EB5
:102090002530316425250D0A0000000070B5802828
:1020A00015D2402913D24D0701246D0F0A4BAC40C5
:1020B000C9081E79C901094B0818002E02D0002A50
:1020C00006D001E0012A03D0195CA143195470BD68
:1020D000195C2143FAE7000028000020500000208E
:1020E00010B5002806D0FF22012189020248FEF720
:1020F0003BF810BD0022F7E750000020014A108095
:10210000518070472800002010B5FFF7B7FA034848
:10211000016801221143016010BD0000005400401D
:10212000F8B57D248C46E400014601272046BF0314
:10213000314B03E0401E0004000C55D09D692D0476
:10214000ED0FF7D15D6801267606B5435D605E68E8
:102150007825B60AB6022E435E605D680126B60297
:10216000B5435D605E68551CFF20000486432D0466
:102170002E435E605D680126760335435D6026462A
:1021800003E0761E3604360C2ED09869C007C00FC7
:10219000F7D09962254603E06D1E2D042D0C23D047
:1021A0009869C007C00FF7D000200EE06146095CB7
:1021B0009962254603E06D1E2D042D0C14D09E69F6
:1021C000F607F60FF7D0401C80B29042EED3586865
:1021D0003843586003E0641E2404240C04D098693A
:1021E0000004C00FF7D1F8BD58683843586003A009
:1021F00000F0B6FBF8BD0000005400404572726F5D
:10220000723A205B737364323330365F6969635F9F
:1022100068775D2073736431333036206932632010
:102220007772697465210D0A0000000010B5402026
:10223000FFF776FF10BD000010B5FFF765FF3448CB
:10224000401E0004000CFBD1AE2000F0DDF8202081
:1022500000F0DAF8102000F0D7F8B02000F0D4F841
:10226000C82000F0D1F8002000F0CEF8102000F0D7
:10227000CBF8402000F0C8F8812000F0C5F8FF201E
:1022800000F0C2F8A12000F0BFF8A62000F0BCF8D2
:10229000A82000F0B9F83F2000F0B6F8A42000F024
:1022A000B3F8D32000F0B0F8002000F0ADF8D5204E
:1022B00000F0AAF8F02000F0A7F8D92000F0A4F868
:1022C000222000F0A1F8DA2000F09EF8122000F0A1
:1022D0009BF8DB2000F098F8202000F095F88D2086
:1022E00000F092F8142000F08FF8AF2000F08CF886
:1022F0002E2000F089F80020FFF7F2FE00F068F8C9
:10230000044800210180418001214171084610BD2F
:10231000A861000028000020F7B50D4621482A7862
:1023200001888918802904D240886978401840289B
:1023300001D30020FEBD002627E000996A682039FD
:10234000484380194000175A00241AE03846A0403C
:10235000000408D51348029A418800888919001999
:1023600089B280B20AE00298002818D000220D48F5
:10237000418800888919001989B280B2FFF78EFE62
:10238000641C2878A042E1D8761C6878B042D4D882
:1023900004482A780188891801800098FEBD01222E
:1023A000E5E700002800002070B515460E460446FB
:1023B00009E02A463146FFF7AFFF2178884201D075
:1023C000C8B270BD641C20780028F2D1C0B270BDC4
:1023D00070B50C4D00242046B030C0B200F014F8A7
:1023E000002000F011F8102000F00EF8E001411973
:1023F00080224020FFF71AFF641CE4B2082CEAD3C5
:1024000070BD00005000002001B501226946002087
:10241000FFF786FE08BD704770470000F8B54848D2
:10242000012102688A430A4302600168C907C90F93
:10243000FBD0444A01211068C9020327FF02B843B8
:102440000843106040490868012318430860086881
:102450004007C00FFBD048681F231B02984301238D
:102460001B03184348601368FF20013003431360C7
:10247000354C4034236903252D042B40020293423E
:1024800006D02669C3021E43266126699E43266143
:102490002369BB43236123690343236120698005CA
:1024A000C00FFBD020692840904203D02069A84388
:1024B0001043206120690122920410432061C86802
:1024C000FD2212049043112292041043C860086850
:1024D000012212061043086008688001C00FFBD07B
:1024E000C868F0229043C860C8680722120290436F
:1024F000C860C868D2009043C860CA68032082439D
:102500000243CA600C22C86810400C28FBD10F4E51
:102510003046FEF7FDFD3046FEF7BEFF2846FEF7CB
:102520006FFE0325AD042846FEF76AFEE068A91198
:102530008843E060E068A8432843E060F8BD0000FD
:102540000020024000700040001002400048E801F6
:10255000704710B500F0C6F910BD000010B5044674
:1025600003A000F0FDF90120A070207110BD000053
:10257000496E666F3A20205B657370383236365D7F
:10258000207769666920636F6E6E65637465640D9C
:102590000A00000010B5044604A000F0E1F90D485F
:1025A0008068FFF739FA0320207110BD496E666F0D
:1025B0003A20205B657370383236365D2077696665
:1025C0006920636F6E6E656374206661696C0D0AC5
:1025D000000000003400002010B5044605A000F003
:1025E000BFF90D488068FFF717FA0020A07020712E
:1025F00010BD0000496E666F3A20205B657370382D
:102600003236365D207769666920646973636F6E60
:102610006E6563740D0A00003400002010B5044696
:1026200004A000F09DF9A1780220012900D1A07139
:10263000207110BD496E666F3A20205B657370385B
:102640003236365D207769666920676F742069705D
:102650000D0A000070B504464078012807D0A07824
:10266000012804D0E078022802D90120607070BDF2
:10267000074D80002858FFF7CFF9E07880002958EF
:1026800004A000F06DF9E078401CE070002070BDFF
:1026900034000020496E666F3A20205B6573703805
:1026A0003236365D207769666920696E69743A252D
:1026B000730D0A0070B504000BD005252D07012904
:1026C00008D00220A86200206071207007A000F0EE
:1026D00047F970BD1221FDF74EFD0220A861782058
:1026E0006071012020700AA0F1E70000496E666F5A
:1026F0003A20205B657370383236365D2077696624
:102700006920706F776572206F66660D0A000000A1
:10271000496E666F3A20205B657370383236365DDD
:10272000207769666920706F776572206F6E0D0A79
:1027300000000000F8B50E46050013D0002E11D0A1
:102740000C4F00240C206043C01941683046FDF74F
:102750001DFD010008D00C204443E0198268284682
:10276000904705E00020F8BD641CE4B2052CE9D3D5
:102770002879F8BDA854000870B504460D4611A08C
:1027800000F0EEF80420207129462046FFF76AF990
:10279000002804D000212046FFF78CFF70BD12A056
:1027A00000F0DEF8E079052804D2401CE071022038
:1027B000207270BD0025E57129462046FFF77AFF9B
:1027C000657070BD496E666F3A20205B6573703826
:1027D0003236365D20776966692072657475726E6F
:1027E0002074696D650D0A00496E666F3A20205BA2
:1027F000657370383236365D2070726F636573733F
:1028000020636C6F636B206572726F72210D0A001A
:1028100070B5040028D0FFF71DFF002824D0607990
:10282000002808D0401E0006000E607103D1002170
:102830002046FFF73FFF207A0C4D002807D0401EAE
:102840000006000E207202D12869FFF7E5F8A07992
:10285000002809D0401E0006000EA07104D1E868CF
:10286000FFF7DAF80220207270BD0000340000206B
:1028700070B5194C1A48174E24340579154B164A71
:1028800016490836AC510579341D2951C8250479FB
:10289000191D6658360C36042E436650EFF310812E
:1028A000012484F31088146810252C43146081F3EC
:1028B0001088EFF31081012484F310889468402578
:1028C0002C43946081F31088007919580122114338
:1028D000195070BD00000240004400406604002012
:1028E0003455000870B5FEF7F7FA05461848C16977
:1028F000C906C90F2AD010210162174915480A7963
:1029000083585B085B0083500979021D8958C822EF
:10291000124C511A61800121090441608900416013
:102920004910416081004160FFF7A2FF211D284648
:10293000FFF700FF052805D128460A30FEF728F9E1
:10294000FEF776F8C821201DFDF715FC70BD0000CC
:10295000004400400000024034550008620400209A
:102960000FB410B503A9044B044A029800F04CF9C7
:1029700010BC08BC04B01847613300084C000020AC
:102980000FB41CB50246002007AC00290BD0491E2D
:1029900001910092064B6A462146069800F034F9F0
:1029A000009A002111701CBC08BC04B0184700003C
:1029B000413300080FB410B504A9074B02AA0398CD
:1029C00000F022F9044602A9002000F0C4FC2046D1
:1029D00010BC08BC04B018475733000837B514467C
:1029E0000846064B6A46214600F00EF90446694641
:1029F000002000F0B0FC20463EBD00005733000828
:102A00002021020C01D010211046020A01D01046EC
:102A10000839020901D01046091F820801D010466A
:102A2000891E420801D0881E7047081A70470000AE
:102A30008307FF22DB0E9A408907090E9940002880
:102A400008DB830809489B001B181868904308435B
:102A5000186070470007000F0838830804489B007F
:102A60001B18D86990430843D861704700E400E020
:102A700000ED00E002E008C8121F08C1002AFAD1E8
:102A800070477047002001E001C1121F002AFBD1EE
:102A900070470000F0B51FB486B00998089A030D7E
:102AA0000021024314D05148514A181850430514CC
:102AB0001198012810981AD0281A401C00264D4F52
:102AC0004D49009601910490002812DA444211E029
:102AD0001198012449A3012801D11098C1430698F7
:102AE000119A84600360C26041600BB0F0BD404247
:102AF000E4E70446210500203F4A001C51410391B0
:102B0000029012E0E00707D032463B460199009858
:102B1000FDF7B2FC0191009032463B461046194643
:102B2000FDF7AAFC06460F466410002CEAD1049873
:102B3000039B0028029A0999089806DAFDF79CFC85
:102B4000019B009AFDF798FC05E0FDF75BFE019BF9
:102B5000009AFDF757FE04460E460022284BFDF76B
:102B6000E9FE03D80020C043014607E00022254BC0
:102B700020463146FDF7CEFBFDF7BCFE102409E0F0
:102B8000002C0ADB0A220023FDF749FD079B3032A7
:102B90001A55641E02460A43F2D11122641C079B97
:102BA000121B1C19119B012B03D0012308430ED1CA
:102BB0000AE0084304D0112010900020119077E71C
:102BC0001098151A6D1E0BE01098824202DD00234A
:102BD0006D1C03E0824201DA00236D1E002BEED053
:102BE000069811998260C16030C07EE701FCFFFF4A
:102BF000104D0000000014400000F03F30000000C5
:102C00000000F0430000E03FFFB597B00646002506
:102C100018E2252877D100242746FD49049400E0D6
:102C20000443761C32780120203A90400842F7D1C4
:102C300030782A280ED0022230780146303909290E
:102C400016D804990A235943303940181443761C86
:102C50000490F1E7189802C804911890002904DA4A
:102C60000120400304434842049002200443761CA0
:102C700030782E2814D1042004437078761C2A283A
:102C800009D11898761C80C8189009E00A214F4392
:102C9000303FC719761C3078014630390929F5D9FB
:102CA00030786C2810D006DC4C281AD068280ED05A
:102CB0006A2817D104E0742813D07A2812D110E0C2
:102CC0000120400504430CE00121090501E0032136
:102CD00009050C437178814203D1012000052418B5
:102CE000761C761C3078119066280BD013DC58289F
:102CF0007DD009DC00287BD04528F6D04628F4D0CA
:102D000047281AD1A5E118E0632835D0642870D08F
:102D1000652812D19DE170286CD008DC6728F1D0BD
:102D200069287BD06E280DD06F2806D1BAE07328B1
:102D30002ED0752871D0782859D01A9A19999047B1
:102D40006D1C7EE16002400F022809D003280DD0DF
:102D50000428189801680DD00D60001D189070E1CE
:102D60001898EA1701680D604A60F6E7189801683C
:102D70000D80F2E70D70F0E718986A46017811723D
:102D8000001D18900020507202A80090012005E05C
:102D9000189802C8189000200091C04361070DD513
:102DA000002101E00199491C0191B94212DA8142E6
:102DB000F8DB009A515C0029F4D10BE0002101E01E
:102DC0000199491C01918142FADB019A0099895CC1
:102DD0000029F5D1019904981A9B471A21463846D3
:102DE000199A00F097FA0199401945180BE04FE045
:102DF0002CE113E04EE0009800990078491C009106
:102E00001A9A199990470198401E0190401CF2D1DE
:102E1000214638461A9B199A10E137E00A20002112
:102E2000009001916002410F022907D0189A01CA4F
:102E30001892C2179446032908D00AE01898C01DBA
:102E4000C108C90005C91891944607E000B2C2172D
:102E50009446042902D140B2C1178C460022614633
:102E6000944506DA0A460021404291418C462D21C4
:102E700002E0210504D52B216A461173012103E0EC
:102E8000E10701D02021F7E7029155E00A200AE08E
:102E9000102008E01020009000210420044301913C
:102EA000082703E008200021019100906002410FF3
:102EB000022907D0189A01CA1892002294460329C1
:102EC00008D008E01898C01DC108C90005C91891AC
:102ED000944603E080B2042900D1C0B200210291DF
:102EE000210729D51199702906D0009A1021019B3C
:102EF0004A401A4305D00EE040216A461173012171
:102F000008E06146014306D030216A4611731199E9
:102F1000517302210291009A0821019B4A401A43F1
:102F20000AD16146014301D1610705D530216A46C6
:102F3000117301217F1E02911199582904D035A1E6
:102F40000E910DA90D910DE037A1F9E76146019BA6
:102F5000009AFDF764FB0E9B8C469B5C0D9A521EFB
:102F60000D92137061460143F0D10D9805A9081A1E
:102F700020300190600703D501200004844300E065
:102F800001270198874201DD381A00E000200199ED
:102F900000904118029809180498401A0490E00320
:102FA00006D421461A9B199A049800F0B3F94519E2
:102FB000002706E003A81A9AC05D199990476D1C76
:102FC0007F1C02988742F5DBE0030CD521461A9B53
:102FD000199A049800F09EF9451904E01A9A3020D5
:102FE000199990476D1C0099481E00900029F5DC46
:102FF00008E00D980D990078491C0D911A9A1999BD
:1030000090476D1C0199481E01900029F1DC63E195
:1030100009280100303132333435363738396162AE
:103020006364656600000000303132333435363772
:1030300038394142434445460000000000F05AF947
:103040004519761C3078002800D0E2E528461BB0F0
:10305000F0BD600700D406271898C01DC108C9003C
:1030600048680A680831C30FDB071891190001D0BE
:103070009CA108E0210501D59BA104E0E10701D056
:103080009AA100E09AA1430011985B08109165286D
:103090000CD006DC452809D046281DD0472841D150
:1030A00041E0662818D067283CD13CE00021112F70
:1030B00001DB112000E0781C0191009008A911A803
:1030C000FFF7E8FC139905910021119A15927F1CD6
:1030D00012980197009150E00120C0070390012051
:1030E000019008A9009711A8FFF7D4FC139A14992E
:1030F00005920022119B009212981593059A019255
:10310000002901D0104602E0791C40180190381ABD
:1031100001D5019804E04042401E0090781C0190C7
:10312000C01B029043E0012F00DA01270021112F7C
:1031300001DD112000E038460191009008A911A896
:10314000FFF7A8FC13990591119A00211298159286
:103150000091019721070CD40599B94201DB01992F
:1031600000E00191012904DD159A491E515C3029C6
:1031700006D0B84201DA011D05DA0121029115E0FD
:103180000199491EEDE7002805DC009941180091DE
:103190000199091A03E0019A411C914200DD019155
:1031A0000099401A401C02900120C007039020079C
:1031B00006D402990198814202DB0020C0430290AC
:1031C00000206946C87707AF012103980337C90774
:1031D000884224D0022011902B20129003980028BE
:1031E0000CDA404203902D20129007E00A21039848
:1031F000FCF77EFF30317F1E039039701199481E15
:1032000011900029F2DC03980028EFD1791E129862
:1032100008703078202108404530BF1E387006A85D
:10322000C01BC01D039010980078002800D001201A
:10323000019941180298C0170918039809180498B1
:10324000401A401E0490E00306D421461A9B199AA6
:10325000049800F05FF8451910980078002803D012
:103260001A9A199990476D1CE00324D521461A9BA0
:10327000199A049800F04EF845191CE000980028AF
:1032800007DB00990598884203DD1598405C199981
:1032900001E0199930201A9A904700986D1C401C43
:1032A00000900298401E0290002804D11A9A2E2005
:1032B000199990476D1C0199481E01900029DDDC89
:1032C00005E038781A9A7F1C199990476D1C03996C
:1032D000481E03900029F4DC21461A9B199A049891
:1032E000ACE600002D0000002B00000020000000D4
:1032F00000000000F8B5044600251E461746880465
:1033000004D405E039462020B0476D1C641EF9D571
:103310002846F8BDFFB50446002581B01E46C80307
:1033200001D5302700E02027880404D505E0384681
:103330000399B0476D1C641EF9D5284605B0F0BD51
:103340004A68002A06D00A68531C0B60107048684F
:10335000401E486070470A68531C0B60107070472D
:103360000249CA691206FCD58862704700380140DC
:1033700008B517480121426B0A434263416BC907F4
:10338000C90F0091826B01040A438263806B08407D
:1033900003210090081FFFF74BFBFFF73FF8FEF7F4
:1033A00041F9FEF707FAFEF723F9FEF7C9F9FEF730
:1033B00087FAFEF737FA00210220FFF739FB0549AB
:1033C00004200860FDF77EFCFDF75CFCFCE70000D4
:1033D0000010024000E100E0081C3044586C8000FE
:1033E00000000000000000010203040607080903B2
:1033F0000406080C1018203000000000010203042D
:1034000000000000000000000000000000000000BC
:1034100000000000000000000000000000000000AC
:10342000000000000000000C000C000C000C000C60
:10343000000C000C000C000C000C000C0000000C38
:10344000000C0000000000000000001B001B001B1F
:10345000001B001B00000000000000000000000036
:1034600000000000000000000000000000008019C3
:10347000801980198019C07FC07F80190033C07FF8
:10348000C07F003300330033003300000000000031
:103490000000001E003F807580650074003C001E27
:1034A00000078005806580658075003F001E000470
:1034B000000400000000007000D840D8C0D880D9B7
:1034C00000730006000C801BC036C066C046C006F4
:1034D00080030000000000000000001E003F0033D9
:1034E00000330033001E000CC03CC0668063806166
:1034F0008063C03E801C0000000000000000000C43
:10350000000C000C000C000C00000000000000008B
:1035100000000000000000000000000000000000AB
:10352000800000010003000600060004000C000CEF
:10353000000C000C000C000C000400060006000348
:1035400000018000002000100018000C000C000496
:103550000006000600060006000600060004000C37
:10356000000C0018001000200000000C002D003F8F
:10357000001E0033000000000000000000000000FA
:10358000000000000000000000000000000000003B
:103590000000000C000C000C000CC0FFC0FF000C71
:1035A000000C000C000C00000000000000000000F7
:1035B000000000000000000000000000000000000B
:1035C00000000000000000000000000C000C0004DF
:1035D00000040008000000000000000000000000DF
:1035E000000000000000001E001E0000000000009F
:1035F00000000000000000000000000000000000CB
:1036000000000000000000000000000000000000BA
:103610000000000C000C000000000000000000038F
:10362000000300030006000600060006000C000C64
:10363000000C000C0018001800180000000000002A
:103640000000001E003F0033806180618061806D5A
:10365000806D8061806180610033003F001E00004A
:103660000000000000000006000E001E00360026CC
:10367000000600060006000600060006000600061A
:1036800000060000000000000000001E003F8073E4
:1036900080618061800100030006000C001800308A
:1036A0000060807F807F0000000000000000001CA0
:1036B000003E006300630003000E000E0003800163
:1036C000800180618073003F001E00000000000048
:1036D00000000006000E000E001E001E0016003640
:1036E00000360066807F807F00060006000600002E
:1036F000000000000000007F007F006000600060AC
:10370000006E007F80638001800180618073003FD4
:10371000001E0000000000000000001E003F80337B
:1037200080610060006E007F8073806180618061D5
:103730008033003F001E0000000000000000807F7A
:10374000807F80010003000300060006000C000CCF
:10375000000C00080018001800180000000000000D
:103760000000001E003F8063806180610021001E18
:10377000003F8061806180618061003F001E000029
:10378000000000000000001E003F007380618061A7
:1037900080618073803F801D800180610073003FE5
:1037A000001E0000000000000000000000000000FB
:1037B0000000000C000C00000000000000000000F1
:1037C0000000000C000C00000000000000000000E1
:1037D0000000000000000000000C000C00000000D1
:1037E000000000000000000C000C000400040008B1
:1037F000000000000000000080008003000E003880
:1038000000600038000E800380000000000000000F
:103810000000000000000000000000000000807FA9
:10382000807F00000000807F807F0000000000009B
:103830000000000000000000000000000000000088
:1038400000400070001C000780010007001C007091
:103850000040000000000000000000000000001F09
:10386000803FC071C060C000C00180030007000E2F
:10387000000C000C0000000C000C00000000000018
:103880000000001E003F803180718063806F806D7A
:10389000806D806F806700600032003E001C000079
:1038A000000000000000000E000E001B001B001BAB
:1038B000001B80318031803F803F8031C060C0601C
:1038C000C0600000000000000000007C007E00637B
:1038D000006300630063007E007E0063806180619E
:1038E0008063007F007E0000000000000000001EDA
:1038F000003F803180610060006000600060006017
:10390000006080618031003F001E00000000000068
:103910000000007C007F00638063806180618061C3
:1039200080618061806100630063007E007C000034
:10393000000000000000807F807F00600060006069
:103940000060007F007F0060006000600060807F9A
:10395000807F0000000000000000807F807F00600A
:10396000006000600060007F007F00600060006019
:103970000060006000600000000000000000001E09
:10398000003F803180610060006000608063806380
:10399000806180618031803F001E000000000000D7
:1039A0000000806180618061806180618061807FD2
:1039B000807F8061806180618061806180610000C2
:1039C000000000000000003F003F000C000C000C55
:1039D000000C000C000C000C000C000C000C003F54
:1039E000003F000000000000000080018001800115
:1039F00080018001800180018001800180618061FF
:103A00008073003F001E0000000000000000C06046
:103A10008061006300660066006C0078007C0066D0
:103A20000066006380618061C060000000000000EB
:103A300000000060006000600060006000600060E6
:103A400000600060006000600060807F807F000098
:103A5000000000000000C071C071C07BC07AC06A65
:103A6000C06AC06EC064C060C060C060C060C0603A
:103A7000C06000000000000000008071807180794B
:103A800080798079806D806D806D806580678067CA
:103A90008067806380630000000000000000001E5B
:103AA000003F00338061806180618061806180615E
:103AB000806180610033003F001E000000000000B4
:103AC0000000007E007F8063806180618061806390
:103AD000007F007E00600060006000600060000009
:103AE000000000000000001E003F00338061806184
:103AF0008061806180618061806580670033803F84
:103B0000401E0000000000000000007E007F806377
:103B1000806180618063007F007E006600630063D7
:103B200080618061C0600000000000000000000EA5
:103B3000001F8031803100300038001E00078003F4
:103B4000806180618031003F001E000000000000A5
:103B50000000C0FFC0FF000C000C000C000C000CAB
:103B6000000C000C000C000C000C000C000C000001
:103B700000000000000080618061806180618061E0
:103B80008061806180618061806180618073003FBD
:103B9000001E0000000000000000C060C060C060A7
:103BA000803180318031001B001B001B001B000E88
:103BB000000E000E00040000000000000000C0C065
:103BC000C0C0C0C0C0C0C0C0C0CC804C804C805EF3
:103BD000805280528073806180610000000000008C
:103BE0000000C0C0806080610033003B001E000CFC
:103BF000000C001E001F003B80718061C0C00000EF
:103C0000000000000000C0C080618061003300330C
:103C1000001E001E000C000C000C000C000C000C20
:103C2000000C0000000000000000803F803F800189
:103C3000000300030006000C000C00180018003000
:103C40000060807F807F000000000000000F000FF8
:103C5000000C000C000C000C000C000C000C000C04
:103C6000000C000C000C000C000C000C000F000FEE
:103C70000000001800180018000C000C000C000CCC
:103C80000006000600060006000300030003000013
:103C900000000000001E001E0006000600060006D0
:103CA00000060006000600060006000600060006E4
:103CB00000060006001E001E0000000C000C001E86
:103CC00000120033003380618061000000000000BA
:103CD00000000000000000000000000000000000E4
:103CE00000000000000000000000000000000000D4
:103CF000000000000000000000000000E0FF0000E5
:103D0000000000380018000C000000000000000057
:103D100000000000000000000000000000000000A3
:103D20000000000000000000000000000000001F74
:103D3000803F80618001801F803F80618063807F41
:103D4000C03800000000000000000060006000605B
:103D50000060006E007F807380618061806180619F
:103D60008073007F006E0000000000000000000073
:103D7000000000000000001E003F807380610060B2
:103D8000006080618073003F001E000000000000A2
:103D900000008001800180018001801D803F8073D0
:103DA00080618061806180618073803F801D000040
:103DB0000000000000000000000000000000001EE5
:103DC000003F00738061807F807F00608071003FD2
:103DD000001E0000000000000000C007C00F000C23
:103DE000000C807F807F000C000C000C000C000C8D
:103DF000000C000C000C000000000000000000009F
:103E000000000000801D803F8073806180618061C0
:103E100080618073803F801D80018063007F003E51
:103E200000000060006000600060006F807F8071B3
:103E3000806180618061806180618061806100005B
:103E40000000000000000006000600000000003E28
:103E5000003E0006000600060006000600060006FA
:103E60000006000000000000000600060000000040
:103E7000003E003E000600060006000600060006A2
:103E80000006000600060046007E003C00000060C0
:103E9000006000600060806100630066006C007C70
:103EA0000076006300638061C060000000000000D5
:103EB0000000003E003E0006000600060006000668
:103EC00000060006000600060006000600060000C8
:103ED000000000000000000000000000000080DD85
:103EE000C0FFC0CEC0CCC0CCC0CCC0CCC0CCC0CC3D
:103EF000C0CC000000000000000000000000000036
:103F00000000006F807F80718061806180618061CE
:103F100080618061806100000000000000000000FE
:103F2000000000000000001E003F8073806180617F
:103F3000806180618073003F001E0000000000006F
:103F40000000000000000000006E007F80738061B0
:103F50008061806180618073007F006E006000601E
:103F6000006000600000000000000000801D803F35
:103F7000807380618061806180618073803F801D7B
:103F8000800180018001800100000000000000002D
:103F900000000067803F0039003000300030003002
:103FA0000030003000300000000000000000000081
:103FB000000000000000001E803F80610060007F64
:103FC000803F80018061007F001E00000000000033
:103FD00000000000000800180018007F007F001893
:103FE00000180018001800180018801F800F00002B
:103FF00000000000000000000000000000008061E0
:104000008061806180618061806180618063807F88
:10401000803D0000000000000000000000000000E3
:104020000000C060803180318031001B001B001B0C
:10403000000E000E0006000000000000000000005E
:1040400000000000000080DD80DD80DD00550055AF
:1040500000550077007700220022000000000000D9
:104060000000000000000000000080610033003309
:10407000001E000C000C001E0033003380610000A5
:10408000000000000000000000000000806180616E
:10409000803100330033001B001B001B000E000E9C
:1040A000000E001C007C00700000000000000000FA
:1040B0000000C07FC07F800100030006000C0018D4
:1040C0000030C07FC07F0000000000008003800738
:1040D00000060006000600060006000E001C001C7C
:1040E000000E00060006000600060006800780039A
:1040F0000006000600060006000600060006000690
:10410000000600060006000600060006000600067F
:10411000000600060038003C000C000C000C000CEF
:10412000000C000E00070007000E000C000C000C35
:10413000000C000C003C00380000000000000000F3
:104140000000000000008038807F00470000000071
:10415000000000000000000000000000000000005F
:10416000000000000000000000000000000000004F
:10417000000000000000000000000000000000003F
:10418000000000000000000000000000000000002F
:10419000E003E003E003E003E003E003E003E00307
:1041A000C003C003C001C001C001C001C0010000C4
:1041B00000000000E003E003E00300000000000056
:1041C000000000003C1E3C1E3C1E3C1E3C1E3C1ED3
:1041D0003C1E000000000000000000000000000085
:1041E00000000000000000000000000000000000CF
:1041F0000000000000000000CE01CE03DE039E039D
:104200009C039C07FF3FFF7F3807380F780F780F1C
:10421000780EFFFFFFFFF01EF01CE01CE03CE03DCD
:10422000E03900000000000000000000FC03FE0F69
:10423000EE1FE01EE01EE01EE01EE01FE00FE007A4
:10424000F003FC01FE01FE01FE01FE01FE01FE0184
:10425000FE3DFC3FF00FE001E00100000000000027
:10426000033E07F78FE78EE79EE3BCE3B8E7F8E786
:10427000F0F7E03FC001FF03FF07F307F30FF31E62
:10428000F33CF338F3787FF03FE0000000000000DB
:1042900000000000E007F80F780F781F781F781FE4
:1042A000780FF00FE00F801FC37FC3FBE7F3F7F138
:1042B000F7F0FFF07FF03EF87F7CFF3FEF1F00003C
:1042C0000000000000000000E003E003E003E00362
:1042D000E003C003C0010000000000000000000077
:1042E00000000000000000000000000000000000CE
:1042F0000000000000000000000000003F007C0003
:10430000F001E001C003C00780078007800F000FA5
:10431000000F000F000F000F000F800F80078007B5
:10432000C007C003E001F0017C003F000F00000067
:10433000007E001FC007C003E001F001F000F000A4
:10434000F800780078007800780078007800F800AD
:10435000F000F000F001E001C003C007001F007E84
:1043600000780000E003C003C001CE39FF3F7F3F6B
:1043700020037003F807780F3C1F38060000000088
:10438000000000000000000000000000000000002D
:10439000000000000000000000000000000000001D
:1043A00000000000C001C001C001C001C001C00187
:1043B000C001FFFFFFFFC001C001C001C001C0017B
:1043C000C00100000000000000000000000000002C
:1043D00000000000000000000000000000000000DD
:1043E0000000000000000000000000000000E003EA
:1043F000E003E003E003E001E001E001C00180032D
:1044000000000000000000000000000000000000AC
:10441000000000000000FE3FFE3F00000000000022
:10442000000000000000000000000000000000008C
:10443000000000000000000000000000000000007C
:10444000000000000000000000000000000000006C
:10445000000000000000E003E003E003E0030000D0
:1044600000000000000000000F000F001E001E00F2
:104470003C003C0078007800F000F000E001E00132
:10448000C003C00380078007000F000F001E001E3E
:10449000003C003C0078007800F00000F007F80FC6
:1044A0007C1F3E3E1E3C1F7C1F7C0F780F780F78D0
:1044B0000F780F780F780F781F7C1F7C1E3C3E3ED4
:1044C0007C1FF80FF0070000000000000000000053
:1044D000F000F007F03FF03FF001F001F001F001D3
:1044E000F001F001F001F001F001F001F001F00144
:1044F000F001F001F001FF3FFF3F0000000000006D
:1045000000000000E00FF83F7C3C3C003E003E0015
:104510003E003C003C007C00F800F001E003C007D6
:104520008007000F001E003E003CFE3FFE3F0000E3
:104530000000000000000000F00FF81F7C1C3E008F
:104540003E003E003C003C00F800F00FF80F7C00FD
:104550003E001E001E001E001E003E007C1CF81FB8
:10456000E01F000000000000000000007800F800DC
:10457000F800F801F803F807F807780F781E781E9E
:10458000783C78787878FFFFFFFF78007800780033
:1045900078007800780000000000000000000000B3
:1045A000FC1FFC1FFC1F001E001E001E001E001E24
:1045B000E01FF81FFC007C003E003E001E003E0095
:1045C0003E003C007C1CF81FE01F000000000000C3
:1045D00000000000FC01FE078E0F001F001E003EC1
:1045E000003C003CF83DFC3F3E7F1F7E0F3C0F3CF3
:1045F0000F3C0F3C0F3E1F1E3E1FFC0FF003000040
:104600000000000000000000FF3FFF3FFF3F0F00E1
:104610001E001E003C0038007800F000F000E001B1
:10462000E001C003C0038007800F800F000F001F50
:10463000001F00000000000000000000F807FC0F51
:104640003E1F1E1E1E3E1E3E1E1E3C1FF80FF00784
:10465000F80FFC1E3E3E1F3C1F7C0F7C0F7C1F3C56
:104660003E3FFC1FF00700000000000000000000BB
:10467000F007F80F7C1E3E3C1E3C1F7C1F7C1F7CFD
:104680001F7C1F3C3F3EFF1FEF071F001E001E0048
:104690003E003C00F838F03FE01F00000000000042
:1046A000000000000000000000000000000000000A
:1046B000E003E003E003E00300000000000000006E
:1046C000000000000000E003E003E003E00300005E
:1046D00000000000000000000000000000000000DA
:1046E00000000000E003E003E003E003000000003E
:1046F00000000000000000000000E003E003E00311
:10470000E003E001E001E001C003800300000000DD
:10471000000000000000000003000F003F00FC004C
:10472000F003C00F003F00FE003FC00FF003FC008D
:104730003F000F0003000000000000000000000028
:104740000000000000000000000000000000000069
:1047500000000000FFFFFFFF000000000000FFFF5F
:10476000FFFF00000000000000000000000000004B
:104770000000000000000000000000000000000039
:1047800000E000F8007E801FE007F8017E001F00B7
:104790007E00F801E007801F007E00F800E00000C6
:1047A0000000000000000000F01FFC3F3E381F38F2
:1047B0001F381E001E003C007800F000E001C0031E
:1047C000C003C007C007000000000000C007C0070A
:1047D000C00700000000000000000000F803FE0F0A
:1047E0001E1F0F3E7F3CFF78EF79C773C7F38FF32F
:1047F0008FF38FF39FF39FF3FF73FF7BF779003CF9
:104800001C1FFC0FF8030000000000000000000067
:10481000000000000000E003E003F007F007F007ED
:10482000780F780F7C0E3C1E3C1E3E3CFE3FFF3F47
:104830001F780F780FF007F007F00000000000006D
:1048400000000000000000000000F83FFC3F3E3C7C
:104850001E3C1E3C1E3C3E3C7C3CF03FF83F7E3CF8
:104860001F3C1F3C0F3C0F3C1F3CFE3FF83F00002D
:104870000000000000000000000000000000FF0138
:10488000FF07871F003E003C007C0078007800781E
:1048900000780078007C007C003E003F831FFF070B
:1048A000FF01000000000000000000000000000008
:1048B0000000F07FFC7F7E781F781F780F780F78DC
:1048C0000F780F780F780F780F780F781F781E7891
:1048D0007E78F87FE07F000000000000000000000C
:1048E000000000000000FF3FFF3F003E003E003E92
:1048F000003E003E003EFE3FFE3F003E003E003ECA
:10490000003E003E003EFF3FFF3F00000000000071
:1049100000000000000000000000FF1FFF1F001E3D
:10492000001E001E001E001E001EFF1FFF1F001E97
:10493000001E001E001E001E001E001E001E0000A5
:104940000000000000000000000000000000FE0366
:10495000FF0F871F003E007C007C007800F800F805
:104960007FF87FF80F780F7C0F7C0F3E8F1FFF0FB3
:10497000FE03000000000000000000000000000036
:1049800000001F7C1F7C1F7C1F7C1F7C1F7C1F7CEA
:104990001F7CFF7FFF7F1F7C1F7C1F7C1F7C1F7C79
:1049A0001F7C1F7C1F7C0000000000000000000036
:1049B000000000000000FF3FFF3FE003E003E003D2
:1049C000E003E003E003E003E003E003E003E003CF
:1049D000E003E003E003FF3FFF3F000000000000B2
:1049E00000000000000000000000FC1FFC1F7C0015
:1049F0007C007C007C007C007C007C007C007C00D7
:104A00007C007C0078007800F838F03FC03F000060
:104A100000000000000000000000000000001F3C3B
:104A20001E3C3C3C783CF03CE03DE03FC03F803FDA
:104A3000C03FE03FF03DF03C783C7C3C3E3C1F3CBE
:104A40000F3C00000000000000000000000000001B
:104A50000000003E003E003E003E003E003E003EA4
:104A6000003E003E003E003E003E003E003E003E56
:104A7000003EFF3FFF3F000000000000000000007C
:104A80000000000000001FF81FFC1FFC3FFE3FFE5F
:104A90003FFE7FFF77FF77FFF7F7E7F7E7F3E7F3EF
:104AA000C7F307F007F007F007F000000000000070
:104AB000000000000000000000000F7C0F7C0F7E53
:104AC0000F7F0F7F8F7F8F7FCF7FEF7BEF79FF7916
:104AD000FF78FF787F783F783F781F781F78000055
:104AE0000000000000000000000000000000F007CF
:104AF000FC1F3E3E1F7C0F780F780FF80FF80FF861
:104B00000FF80FF80FF80F780F781F7C3E3EFC1F50
:104B1000F00700000000000000000000000000009E
:104B20000000FC3FFF3F1F3E0F3E0F3E0F3E0F3E7B
:104B30001F3E3F3EFC3FF03F003E003E003E003E39
:104B4000003E003E003E00000000000000000000AB
:104B5000000000000000F007FC1F3E3E1F7C0F78A5
:104B60000F780FF80FF80FF80FF80FF80FF80F780D
:104B70000F781F7C3E3EFC1FF8077C003F000F00B3
:104B800003000000000000000000F03FFC3F7E3CFE
:104B90003E3C1E3C1E3C3E3C3C3CFC3CF03FE03F6F
:104BA000F03DF83C7C3C3E3C1E3C1F3C0F3C000072
:104BB0000000000000000000000000000000FC07F2
:104BC000FE1F0E3E003C003C003C003EC01FF80FA4
:104BD000FE037F001F000F000F001F203E3CFC3F24
:104BE000F01F0000000000000000000000000000B6
:104BF0000000FFFFFFFFE003E003E003E003E0034A
:104C0000E003E003E003E003E003E003E003E0038C
:104C1000E003E003E00300000000000000000000EB
:104C20000000000000000F7C0F7C0F7C0F7C0F7CCD
:104C30000F7C0F7C0F7C0F7C0F7C0F7C0F7C0F7C1C
:104C40001E3C1E3C3E3EFC1FF00700000000000022
:104C50000000000000000000000007F007F007F867
:104C60000F780F7C1E3C1E3C1E3E3C1E3C1F781FD6
:104C7000780FF80FF007F007F007E003E0030000FB
:104C8000000000000000000000000000000003E041
:104C900003F003F007F0E7F3E7F3E7F3E773F77BDD
:104CA000F77FFF7F7F7F7F7F7E7F7E3F3E3E3E3E62
:104CB0003E3E000000000000000000000000000078
:104CC000000007F80F7C1E3E3E3E3C1FF80FF00729
:104CD000E007E003E003F007F80F7C0F7C1E3E3C8A
:104CE0001F780F780FF000000000000000000000A7
:104CF00000000000000007F807780F7C1E3C1E3EF5
:104D00003C1F780FF80FF007E003E003E003E00337
:104D1000E003E003E003E003E00300000000000024
:104D200000000000000000000000FF7FFF7F0F0078
:104D30001F003E007C00F800F000E001E003C00727
:104D4000800F000F001E003E007CFF7FFF7F0000F1
:104D50000000000000000000FF07800780078007B8
:104D6000800780078007800780078007800780070B
:104D700080078007800780078007800780078007FB
:104D8000800780078007FF07FF0700000078007892
:104D9000003C003C001E001E000F000F8007800733
:104DA000C003C003E001E001F000F00078007800EB
:104DB0003C003C001E001E000F000F00070000001A
:104DC000F07FF000F000F000F000F000F000F000E4
:104DD000F000F000F000F000F000F000F000F00053
:104DE000F000F000F000F000F000F000F000F07FC4
:104DF000F07F0000C000C001C001E003E003F00745
:104E0000F0077807780F380F3C1E3C1E1E3C1E3CF6
:104E10000F380F7807780000000000000000000045
:104E20000000000000000000000000000000000082
:104E30000000000000000000000000000000000072
:104E40000000000000000000000000000000000062
:104E50000000FFFFFFFF000000000000F000000066
:104E60000000000000000000000000000000000042
:104E70000000000000000000000000000000000032
:104E80000000000000000000000000000000000022
:104E9000000000000000000000000000F80FFC3FD0
:104EA0007C3C3E003E003E00FE07FE1F3E3E3E7C38
:104EB0003E783E7C7E7CFF3FCF1F0000000000005C
:104EC00000000000003C003C003C003C003C003C7A
:104ED000F83DFE3F3E3F1F3E0F3C0F3C0F3C0F3C5A
:104EE0000F3C0F3C1F3C1E3C3E3FFC3FF03B000094
:104EF00000000000000000000000000000000000B2
:104F000000000000FE03FF0F871F003E003E003C34
:104F1000007C007C007C003C003E003E871FFF0FB1
:104F2000FE03000000000000000000001F001F0042
:104F30001F001F001F001F00FF07FF1F3F3E1F3CF9
:104F40001F7C1F7C1F7C1F781F781F7C1F7C3F3CB1
:104F50007F3EFF1FDF0F0000000000000000000088
:104F6000000000000000000000000000F803FC0F3B
:104F70003E1F1E3E1F3C1F7CFF7FFF7F007C007C8E
:104F8000003C003E071FFF0FFE0300000000000072
:104F900000000000FF01E103C003C007C007C00715
:104FA000FF7FFF7FC007C007C007C007C007C0075B
:104FB000C007C007C007C007C007C007C007000080
:104FC00000000000000000000000000000000000E1
:104FD00000000000EF07FF1F7F3E1F3C1F7C1F7C6F
:104FE0001F781F781F781F7C1F7C3F3C7F3EFF1F70
:104FF000DF0F1E001E001E007C38F83F003C003C06
:10500000003C003C003C003CFC3DFE3F9E3F1F3FFF
:105010001F3E1F3C1F3C1F3C1F3C1F3C1F3C1F3CB6
:105020001F3C1F3C1F3C000000000000000000006F
:10503000F001F0010000000000000000E07FE07FD0
:10504000E001E001E001E001E001E001E001E00158
:10505000E001E001E001E001E001000000000000EB
:1050600000000000F800F800000000000000000050
:10507000F83FF83FF800F800F800F800F800F800F2
:10508000F800F800F800F800F800F800F800F80060
:10509000F800F000F071E07F003C003C003C003C78
:1050A000003C003C1F3C3E3C7C3CF83CF03DE03D7D
:1050B000C03FC03FE03FF03DF83C7C3C3E3C1F3CE5
:1050C0001F3C00000000000000000000F07FF00125
:1050D000F001F001F001F001F001F001F001F00148
:1050E000F001F001F001F001F001F001F001F00138
:1050F000F001F001F00100000000000000000000DD
:105100000000000000000000000000009EF7FFFF0C
:10511000FFFFFFFFE7FBE7F9C7F1C7F1C7F1C7F1F1
:10512000C7F1C7F1C7F1C7F1C7F1000000000000E7
:10513000000000000000000000000000000000006F
:10514000FC3DFE3F9E3F1F3F1F3E1F3C1F3C1F3C40
:105150001F3C1F3C1F3C1F3C1F3C1F3C1F3C0000D2
:10516000000000000000000000000000000000003F
:1051700000000000F007FC1F3E3E1F3C1F7C0F7824
:105180000F780F780F780F781F7C1F3C3E3EFC1F76
:10519000F007000000000000000000000000000018
:1051A0000000000000000000F83DFE3F3E3F1F3EB3
:1051B0000F3C0F3C0F3C0F3C0F3C0F3C1F3C1E3E76
:1051C0003E3FFC3FF83F003C003C003C003C003CC4
:1051D000000000000000000000000000EE07FE1FBD
:1051E0007E3E1E3C1E7C1E781E781E781E781E7821
:1051F0001E7C3E7C7E3EFE1FDE0F1E001E001E003B
:105200001E001E0000000000000000000000000062
:105210007F1FFF1FE71FC71F871F001F001F001FE3
:10522000001F001F001F001F001F001F001F0000A5
:10523000000000000000000000000000000000006E
:1052400000000000FC07FE1F0E1E003E003E003F57
:10525000E01FFC07FE003E001E001E003E3CFC3F1F
:10526000F01F00000000000000000000000000002F
:105270000000800780078007FF7FFF7F800780078F
:1052800080078007800780078007800780078007E6
:10529000C007FF03FF010000000000000000000045
:1052A0000000000000000000000000001E3C1E3C4A
:1052B0001E3C1E3C1E3C1E3C1E3C1E3C1E3C1E3C1E
:1052C0003E3C7E3CFE3EFE1FDE0F00000000000064
:1052D00000000000000000000000000000000000CE
:1052E00007F00F780F781E3C1E3C1E3E3C1E3C1EF5
:1052F000780F780FF00FF007F007E003E0030000ED
:10530000000000000000000000000000000000009D
:105310000000000003F0E3F1E3F3E7F3F7F3F7F342
:10532000F77F777F7F7F7F7F7F7F3E3E3E3E3E3EA3
:105330003E3E0000000000000000000000000000F1
:1053400000000000000000000F7C1E3E3C3E3C1FA1
:10535000F80FF007F007E003F007F807F80F7C1EDE
:105360003E3E1F3C1F7800000000000000000000CF
:1053700000000000000000000000000007F80F78A7
:105380000F7C1E3C1E3C3C1E3C1E3C1F780FF80F41
:10539000F007F007E003E003C003C003C003800789
:1053A000800F007F000000000000000000000000EF
:1053B000FF3FFF3F1F003E007C00F800F001E003CC
:1053C000C007800F001F001E003CFF7FFF7F000012
:1053D0000000000000000000FE01E003C003C00365
:1053E000C003C003E001E001E001C001C003803F51
:1053F000803FC003C001E001E001E001C003C00341
:10540000C003C003E003FE017E000000C001C00134
:10541000C001C001C001C001C001C001C001C00184
:10542000C001C001C001C001C001C001C001C00174
:10543000C001C001C001C001C001C001C001000025
:10544000C03FE003E001E001E001E001C001C00372
:10545000C003C001E001FE00FE00E001C001C00386
:10546000C003C001E001E001E001E001E003C03F52
:10547000003F0000000000000000000000000000ED
:1054800000000000000000000000073FC77FE77336
:10549000FFF17EF0000000000000000000000000AE
:1054A000000000000000000000000000F0550008AF
:1054B000D925000801000000D45500085D2500082A
:1054C00002000000E45500081D260008030000004B
:1054D000B85500089525000804000000C4550008D0
:1054E0007927000828560008205600080C560008A6
:1054F00008560008405600081456000838560008A0
:10550000B45500081C560008005600083056000824
:10551000345600084856000824560008185600085B
:10552000105600082C5600083C5600084456000847
:1055300004560008081C3044586C800041542B432A
:10554000574A41505F4445463D2248534732222C3A
:105550002223313335333730313136333124220D84
:105560000A00000041542B43574D4F44453D310D37
:105570000A00000041542B434950534E54504346B7
:10558000473D312C380D0A0041542B434950534EAE
:10559000545054494D453F0D0A00000041542B47DB
:1055A0004D520D0A0000000041542B5253540D0A75
:1055B00000000000200000002B43574A41503A33BE
:1055C000000000002B434950534E545054494D4560
:1055D0003A0000005749464920434F4E4E45435438
:1055E000454400005749464920474F542049500040
:1055F0005749464920444953434F4E4E4543540072
:105600004665620044656300576564005475650033
:1056100041756700467269004A756C004A616E0008
:105620004D6F6E004A756E0053756E0053657000C5
:105630004D61720041707200536174004F637400D9
:10564000546875004E6F76004D6179006C56000805
:105650000000002050000000742A0008BC5600081A
:1056600050000020E0080000842A0008000020000C
:10567000000000010001E60700000000000000003B
:10568000000000000B12000000340008101A000097
:105690005C41000800000000000000000000000065
:1056A000A8550008645500083C55000874550008CA
:0C56B000885500089C5500080000000010
:04000005080000C12E
:00000001FF
