:020000040800F2
:1000000038080020D5000008010D00088904000808
:1000100000000000000000000000000000000000E0
:100020000000000000000000000000003D1100087A
:100030000000000000000000030D00083F11000850
:10004000E7000008E7000008D50D0008E7000008F9
:10005000E7000008E7000008E7000008E7000008E4
:1000600000000000E7000008E7000008E7000008C3
:10007000E7000008C10A000800000000E7000008CF
:1000800000000000E7000008000000000000000081
:10009000E700000800000000E7000008E700000893
:1000A000E7000008E7000008E7000008E700000894
:1000B000E7000008E7000008000000000000000062
:1000C0000348854600F050F80048004789160008AC
:1000D000380800200448804704480047FEE7FEE750
:1000E000FEE7FEE7FEE7FEE76D120008C10000082C
:1000F00030B50B46014600202022012409E00D46C0
:10010000D5409D4205D31D469540491B2546954047
:1001100040191546521E002DF1DC30BD70B500248B
:100120002546002801DA01244042002901DA012590
:100130004942FFF7DDFFAC4200D04042002C00D026
:10014000494270BDD2B201E00270401C491EFBD290
:1001500070470022F6E710B513460A4604461946D2
:10016000FFF7F0FF204610BD064C0125064E05E0C6
:10017000E36807CC2B430C3C98471034B442F7D3C8
:10018000FFF7A2FFB4370008D4370008F8B5040021
:100190002CD06079032805D20C3045B2E088401E8F
:1001A00000B203E0052506206557205E6421FFF7B5
:1001B000B5FF06B2C817800F401880104018F1171D
:1001C000890F891989104718681C1A2148430A2188
:1001D000FFF7A4FFE1787200BA1A8918401E401890
:1001E00040B207218C30FFF799FF2171F8BD000064
:1001F0000048704704000020F0B5284C85B02078F6
:10020000401CC0B220703C280ED3002020706178C2
:10021000491CC9B261703C2906D36070A178491CA1
:10022000C9B2A170182902D2002005B0F0BDA0709B
:10023000E0781BA1401CC6B2E6708EC96079E588E3
:1002400003976F460EC7022814D06946085CB04277
:100250000BD20120E0706179491CC9B261710D298E
:1002600003D36071E088401CE0802046FFF78EFFDA
:100270000120DAE7A80705D164212846FFF738FFF7
:10028000002908D1FF2191312846FFF731FF0029CD
:1002900001D01C20DBE71D20D9E70000040000206E
:1002A000001F1C1F1E1F1E1F1F1E1F1E1F000000E1
:1002B00010B50C48017A002913D000210172FF22E9
:1002C0000132052109074869034613401B04824394
:1002D00013438B61FFF790FF00F056F802A000F087
:1002E000C7FF10BD0C000020496E666F3A20205BEE
:1002F000636F6D6D6F6E5D203530304D530D0A00AC
:1003000010B50F4881680222114381600169012202
:10031000114301610B4A8169090C09041143816190
:1003200001690422062399431143016100F072F828
:1003300005A308A20AA10CA000F09AFF10BD0000BE
:10034000007C0040FF0300004A756C2032312032EF
:100350003032320031353A35333A3238000000005D
:100360005631303100000000496E666F3A20205B44
:10037000636F6D6D6F6E5D2025732C2025732C20AF
:1003800025730D0A0000000010B586B0FFF730FF9E
:1003900004460021022000F04FFD6378A27814A1EA
:1003A00001A800F075FF0122144901A800F060FEC9
:1003B000227810A101A800F06BFF0122104901A8CA
:1003C00000F056FE1821042000F036FDE088009071
:1003D0006379E2780BA101A800F05AFF01220849D5
:1003E00001A800F045FE00F057FE06B010BD000069
:1003F000253032643A2530326400000020000020AD
:1004000018000020253032642D253032642D25302F
:100410003264000010B500F073FD002802D102A084
:1004200000F026FF10BD00004572726F723A205B2B
:10043000646973706C61795D205353443133303695
:1004400020696E6974206572726F72210D0A000056
:1004500010B586B0044618216846FFF77AFE0021E1
:10046000002C0CD001918020009003200391049176
:1004700002906946034800F0ABF806B010BD0120B9
:100480000190F0E700040050FEE7000010488021D2
:10049000816164210A46491EC9B2002AFAD140216D
:1004A000816163210A46491EC9B2002AFAD180211E
:1004B000816263210A46491EC9B2002AFAD140214D
:1004C000816263200146401EC0B20029FAD1704704
:1004D000000400500C498020886264200246401EBF
:1004E000C0B2002AFAD14020886163200246401E33
:1004F000C0B2002AFAD18020886163200146401EE4
:10050000C0B20029FAD170470004005070B5002530
:100510002E4C024629464020A06210468840000624
:1005200002D58020A06101E08020A0626320034604
:10053000401EC0B2002BFAD14020A06163200346C8
:10054000401EC0B2002BFAD1491CC9B20829E2D31F
:100550004020A06263200146401EC0B20029FAD1AB
:100560008020A06163200146401EC0B20029FAD15C
:100570004020A06163200146401EC0B20029FAD18C
:100580000120FFF765FF14260BE063200146401EA3
:10059000C0B20029FAD121698020884301D0012509
:1005A00003E0761E3606360EEFD10020FFF750FF2F
:1005B0004020A06264200146401EC0B20029FAD14A
:1005C000002E00D10025284670BD00000004005018
:1005D000F0B500244DE00123A3401A4048D04B68F9
:1005E000012B01D0022B10D18E688568134653432E
:1005F0005F00DF19BD4373431D438560CD680B6801
:1006000046689E436B431E4346600F69C6681346A7
:1006100053435D005D19AE435F433E43C6604E6881
:10062000022E1FD1FF2A0ED817464A69066A944641
:100630001A467A437A431701BF1ABE4367467A4384
:10064000164306620EE0160A324672434F69724341
:100650007243BC461601B71A466ABE4367467A43E0
:10066000164346624A6806685343AE431E4306601B
:10067000641C0A681346E340ADD10020F0BD0000C1
:1006800008B50449CA6A0243CA62C96A01400091B6
:1006900008BD00000010024010B57D21C900FFF721
:1006A00027FD0449401E486100208861052008613B
:1006B00010BD000000E000E0F8B5204D0127002447
:1006C000AE00FF03032802D00C2824D021E000F064
:1006D0003BF81B4940182ED0012809D0022813D01E
:1006E00000F036FB00F00EFB00F026FB044610E0A5
:1006F00000F032F800280CD000F036F8002801D0C5
:100700002C4606E0344604E000F036F8002800D01D
:100710003C462046F8BD00F017F80A4940180AD0B8
:100720000428E5D00828EFD000F012FB00F0EAFA28
:1007300000F0F6FADAE700F00BFBD7E700093D001E
:10074000FFFFFCFFFCFFF3FF0249C9680140000402
:100750000843704740100240024800684007C00F3D
:10076000704700000010024002480068C006C00F39
:100770007047000000100240024800698005C00F69
:10078000704700004010024010B5029C4903240647
:10079000240A1B0621431B0C1943D2B211434268A1
:1007A000024B1A400A43426010BD0000C00000FF27
:1007B000F8B5012614460F460546002906D1607893
:1007C000C10603D5EF2108400A306070CA20686274
:1007D00053206862284600F035F8012829D0E078D7
:1007E000002F04D000906378A278217816E00A21C7
:1007F000FFF77EFC00010843C7B260780A21FFF7CB
:1008000077FC00010843C6B2A0780A21FFF770FC0C
:100810000001084300972178C2B233462846FFF70B
:10082000B3FF8020C043E860A8688006C00F04D0F2
:100830000026FF2068623046F8BD284600F0ACF87C
:100840000646F6E718B57D21C9000091C16800226F
:100850004906C90F15D1491EC160C1680B4B490635
:10086000C90F0CE01969C903C90F02D00099491ECC
:100870000091C168009C4906C90F002C03D00029D3
:10088000F0D0104618BD0122FBE7000000E000E0B8
:1008900070B504460126CA200D466062532060628E
:1008A0002046FFF7CFFF012817D02968A068402213
:1008B00090430843A060A8682169C90BC90301439C
:1008C0002161A98820697F2212049043090408430A
:1008D00020618020C043E0600026FF206062304637
:1008E00070BD00001206120A10B50A431906090C61
:1008F000029C0A43E1B20A430168024B19401143CA
:10090000016010BD808080FFF8B5054614460F4693
:1009100001260020AA6840210A4200D12060CA2096
:100920006862532068622846FFF78CFF012829D0AF
:10093000A079002F04D0009063792279216816E015
:100940000A21FFF7D5FB00010843C7B260790A21ED
:10095000FFF7CEFB00010843C6B220790A21FFF75A
:10096000C7FB0001084300972168C2B233462846FE
:10097000FFF7B8FF8020C043E860A8688006C00F7A
:1009800004D00026FF2068623046F8BD284600F0FB
:1009900003F80646F6E7000038B57D24E40000942D
:1009A000C268002180231A40A13AC260C268164B77
:1009B0009206D20F0CE01A69D203D20F02D0009A2D
:1009C000521E0092C268009D9206D20F002D18D0D0
:1009D000002AF0D1002912D10094C2689206D20FE9
:1009E0000BE01A69D203D20F01D0621E0092C268D6
:1009F000009C9206D20F002C03D0002AF1D00846AA
:100A000038BD0121FBE7000000E000E0014908607B
:100A1000704700000000002070B5044600680D46D5
:100A20000126304041D1E9686868AA69084329690C
:100A30001143084321681E4A114008432060A968F9
:100A40006068032212039043084360606969A068EC
:100A5000121190430843A0601648844201D103203C
:100A600003E01548844220D10C20FFF725FE002822
:100A70001BD02968002918D00123AA690026DB03AE
:100A80009A420CD140004A088018FFF731FB81B22E
:100A90000A4808400907490F0143E16005E04A0898
:100AA0001018FFF725FB80B2E060304670BD0000F3
:100AB000F369FFEF0038014000440040F0FF000000
:100AC00010B500F001F810BD174801688907C90F7B
:100AD00028D041680222114341601448012101716C
:100AE00041710278521CD3B200220370072B01D946
:100AF0000270817143785B1CDBB243700F2B01D90C
:100B00004270C17183785B1CDBB283701F2B01D9EB
:100B100082700172C3785B1CDBB2C3703F2B01D9BA
:100B2000C270417270470000007C00400C00002041
:100B300000B587B018216846FFF70BFB0420FFF7CC
:100B40009FFD0120FFF79CFD0220FFF799FDFF218B
:100B500001310520000781620091012101910021EE
:100B60000291039104916946FFF732FD07B000BD81
:100B700008B518480121826BC9070A438263806B5C
:100B80000840154900900868FF221202904308604F
:100B900001201249400308601148C1684908490012
:100BA000C160C168072252029143C160C16801223D
:100BB00052059143C160C16852009143C160C16850
:100BC00052009143C160C168032252049143C16045
:100BD00008BD0000001002400CE400E000E100E06D
:100BE000007C004030B587B000241848039400947E
:100BF00001940294016901229204114301617F2052
:100C00000490FF20124D059003A92846FFF740FEEF
:100C100069460C714C718C716A4600212846FFF7B9
:100C200073FE012069460872487288721620C872E5
:100C300002AA00212846FFF7BBFDA9680620C908C3
:100C4000C9000143A96007B030BD00004010024058
:100C500000280040F0B58FB01C2106A8FFF779FAF4
:100C600018216846FFF775FA23480121426B890372
:100C70000A434263426B0A400D92C26A01210A4351
:100C8000C262C06A002408400D9048020427022571
:100C9000032603946A460597049461C205206946B9
:100CA0000007FFF795FC680203946A4605970494D1
:100CB00061C2052069460007FFF78AFCE120400277
:100CC00006900794089409940B940C940C200B4CF8
:100CD0000A9006A92046FFF79FFE60680921C90215
:100CE00088436060A0682A218843A06020680121B1
:100CF000084320600FB0F0BD0010024000380140F2
:100D0000FEE770470449C968F0221140034A090907
:100D1000515CC8407047000000100240E81600080F
:100D20000349C968034A4905490F515CC8407047E7
:100D300000100240011700080349C968034A8904EA
:100D4000490F515CC840704700100240011700086D
:100D500070B51C4DEA680C2002401B4808D01B4CA3
:100D6000A600042A0AD06100082A0FD00C2A0FD04E
:100D700069680904490F491C884070BDFFF7F4FCFD
:100D8000002801D0204670BD304670BD084670BDB9
:100D9000E86801221204104204D1FFF7E5FC0028A4
:100DA00001D10DE00C46E8680002810FE868084AAE
:100DB0008002000F105C491C6043FFF799F970BD79
:100DC0003446F0E7001002400080000000093D00BA
:100DD000F81600087047000070B5802815D2402929
:100DE00013D24D0701246D0F0A4BAC40C9081E7980
:100DF000C901094B0818002E02D0002A06D001E0D4
:100E0000012A03D0195CA143195470BD195C214318
:100E1000FAE70000280000203400002010B5002868
:100E200006D0FF22012189020248FFF78BF910BD8D
:100E30000022F7E734000020014A108051807047FB
:100E400028000020F0B587B018216846FFF781F927
:100E5000002440200125032603946A46049461C2BD
:100E6000084F69463846FFF7B3FB802003946A4673
:100E7000049461C269463846FFF7AAFBFFF72AFBD4
:100E800007B0F0BD0004005070B514460D4606468C
:100E9000FFF7FCFA7820FFF739FB002801D0304635
:100EA00003E000BF0DE028786D1CFFF72FFB002842
:100EB00007D02046641EA4B20028F4D1FFF70AFB35
:100EC00070BDFFF707FB00BF01A000F0D1F970BDB6
:100ED0004572726F723A205B6969635F73775D2058
:100EE00073736431333036207772697465206D75A1
:100EF0006C7469206572726F72210D0A0000000027
:100F000010B5FFF79FFF3448401E0004000CFBD1D2
:100F1000AE2000F0DDF8202000F0DAF8102000F01C
:100F2000D7F8B02000F0D4F8C82000F0D1F80020A5
:100F300000F0CEF8102000F0CBF8402000F0C8F808
:100F4000812000F0C5F8FF2000F0C2F8A12000F0D9
:100F5000BFF8A62000F0BCF8A82000F0B9F83F20A8
:100F600000F0B6F8A42000F0B3F8D32000F0B0F8F9
:100F7000002000F0ADF8D52000F0AAF8F02000F035
:100F8000A7F8D92000F0A4F8222000F0A1F8DA2078
:100F900000F09EF8122000F09BF8DB2000F098F89B
:100FA000202000F095F88D2000F092F8142000F039
:100FB0008FF8AF2000F08CF82E2000F089F8002088
:100FC000FFF72CFF00F068F8044800210180418001
:100FD00001214171084610BDA861000028000020D1
:100FE000F7B50D4621482A7801888918802904D24E
:100FF000408869784018402801D30020FEBD0026B3
:1010000027E000996A682039484380194000175A40
:1010100000241AE03846A040000408D51348029A7C
:10102000418800888919001989B280B20AE00298C3
:10103000002818D000220D4841880088891900191D
:1010400089B280B2FFF7C8FE641C2878A042E1D8BC
:10105000761C6878B042D4D804482A780188891868
:1010600001800098FEBD0122E5E700002800002075
:1010700070B515460E46044609E02A463146FFF78C
:10108000AFFF2178884201D0C8B270BD641C2078BF
:101090000028F2D1C0B270BD70B50C4D00242046BE
:1010A000B030C0B200F014F8002000F011F81020A9
:1010B00000F00EF8E001411980224020FFF7E4FE25
:1010C000641CE4B2082CEAD370BD00003400002098
:1010D00010B50446FFF7DAF97820FFF717FA002871
:1010E0000CD00020FFF712FA002808D02046FFF7A6
:1010F0000DFA002803D0FFF7EDF910BD00BFFFF790
:10110000E9F900BF01A000F0B3F810BD4572726F9D
:10111000723A205B6969635F73775D207373643132
:1011200033303620777269746520636F6D6D616E40
:1011300064206572726F72210D0A0000704770475B
:10114000F8B54648012102688A430A4302600168F3
:10115000C907C90FFBD0424901220868D202032700
:10116000FF02B843104308603E48026801231A4357
:10117000026002685207D20FFBD042681F231B0295
:101180009A4301231B031A4342600A681B111A4346
:101190000A60344C403425690322120415401902B8
:1011A0008D4206D02669CD002E4326612669AE43C6
:1011B00026612569BD43256125691D432561236994
:1011C0009B05DB0FFBD0236913408B4203D02369BF
:1011D00093430B432361216901229204114321614E
:1011E000C168FD2212049143112292041143C1608F
:1011F0000168012212061143016001688901C90FCB
:10120000FBD0C168F0229143C160C168072212027D
:101210009143C160C168D2009143C160C26803219B
:101220008A430A43C2600C22C16811400C29FBD1D9
:101230000D4D2846FFF730FA2846FFF7E7FBE06838
:1012400080088000E060E068032109038843E060D3
:10125000E06889018843E060F8BD0000002002409A
:1012600000700040001002400048E8017047000094
:101270000FB410B503A9044B044A029800F04EF8CD
:1012800010BC08BC04B018477916000830000020D4
:101290000FB410B504A9074B02AA039800F03EF85A
:1012A000044602A9002000F0E1F9204610BC08BC69
:1012B00004B018476D1600088307FF22DB0E9A4022
:1012C0008907090E9940002808DB830809489B001C
:1012D0001B18186890430843186070470007000FF8
:1012E0000838830804489B001B18D86990430843BA
:1012F000D861704700E400E000ED00E002E008C8BB
:10130000121F08C1002AFAD170477047002001E07F
:1013100001C1121F002AFBD170470000FFB58FB03A
:101320000546002606E025280AD0129A1199904712
:101330006D1C761C28780028F5D1304613B0F0BD1E
:10134000002402940121B54A009400E004436D1C7E
:101350002B780846203B98401042F7D128782A285D
:101360000ED00222287801463039092916D8029970
:101370000A2359433039401814436D1C0290F1E799
:10138000109802C802911090002904DA012040034D
:10139000044348420290022004436D1C28782E2802
:1013A00017D10420044368786D1C2A280CD11098AA
:1013B0006D1C02C8009110900BE000990A22514365
:1013C000303940186D1C00902878014630390929C1
:1013D000F3D928786C2810D006DC4C281AD068285D
:1013E0000ED06A2817D104E0742813D07A2812D1BD
:1013F00010E00120400504430CE00121090501E053
:10140000032109050C436978814203D101200005BD
:1014100024186D1C6D1C2878692874D006DC0028FF
:101420008BD0632827D0642806D16CE06E2808D0C2
:1014300073282CD0752878D0129A11999047761C71
:101440005FE06002400F022809D003280DD0042875
:10145000109801680DD00E60001D109051E010989A
:10146000F21701680E604A60F6E7109801680E8076
:10147000F2E70E70F0E710986A4601781173001DCC
:1014800010900020507303A80190012005E01098EF
:1014900002C8019110900020C04361070CD50027BD
:1014A00000E07F1C00998F420FDA8742F9DB019937
:1014B000C95D0029F5D108E0002700E07F1C8742C4
:1014C000FCDB0199C95D0029F8D102982146C01BB7
:1014D0000290129B119A00F0B3F88019C61907E028
:1014E000019801990078491C0191129A119990472D
:1014F0007F1EF5D22146129B119A029800F090F8B7
:1015000086196D1C16E70A200190109901C91091E7
:101510006102490F032900D100B2042900D140B271
:10152000002803DA40422D2103E00DE0210504D517
:101530002B216A461173012103E0E10711D020211C
:10154000F7E70CAF0C9114E00A200190109901C943
:1015500010916102490F032900D180B2042900D102
:10156000C0B20021EDE70199FEF7C2FD30317F1EC8
:1015700039700028F7D104A8C01B20300190600703
:1015800004D5012000048443009801E0012000906C
:101590000199884201DD401A00E0002041180090C6
:1015A0000C9809180298401A0290E00306D42146CC
:1015B000129B119A029800F043F8861900200D90B2
:1015C00008E003A9085C129A119990470D98401CF5
:1015D000761C0D900C998842F3DBE0030CD5214674
:1015E000129B119A029800F02BF8861904E0129AC7
:1015F000302011999047761C0099481E00900029D0
:10160000F5DC05E03878129A7F1C11999047761C1A
:101610000199481E01900029F4DC6BE709280100BC
:10162000F8B5044600251E461746880404D405E094
:1016300039462020B0476D1C641EF9D52846F8BDF8
:10164000FFB50446002581B01E46C80301D53027EA
:1016500000E02027880404D505E038460399B04708
:101660006D1C641EF9D5284605B0F0BD0A68531CF0
:101670000B601070704700000249CA691206FCD561
:10168000886270470038014008B515480121426B57
:101690000A434263416BC907C90F0091826B010481
:1016A0000A438263806B084003210090081FFFF704
:1016B00003FEFFF745FDFFF73BFAFFF793FAFFF74D
:1016C000C9FAFFF755FA00210220FFF7F5FD054999
:1016D00004200860FEF714FEFEF7EAFDFCE70000B8
:1016E0000010024000E100E00000000000000000E7
:1016F0000102030406070809030406080C10182059
:10170000300000000001020304000000000000009F
:1017100000000000000000000000000000000000C9
:1017200000000000000000000000000000000000B9
:10173000000C000C000C000C000C000C000C000C49
:10174000000C000C000C0000000C000C000000005D
:1017500000000000001B001B001B001B001B000002
:101760000000000000000000000000000000000079
:101770000000000000000000801980198019801905
:10178000C07FC07F80190033C07FC07F003300332B
:10179000003300330000000000000000001E003F86
:1017A000807580650074003C001E00078005806520
:1017B00080658075003F001E0004000400000000EA
:1017C000007000D840D8C0D880D900730006000C43
:1017D000801BC036C066C046C00680030000000003
:1017E00000000000001E003F003300330033001EE5
:1017F000000CC03CC066806380618063C03E801C7A
:101800000000000000000000000C000C000C000CA8
:10181000000C0000000000000000000000000000BC
:101820000000000000000000000080000001000334
:10183000000600060004000C000C000C000C000C5C
:10184000000C0004000600060003000180000020D8
:1018500000100018000C000C000400060006000632
:101860000006000600060004000C000C0018001022
:1018700000200000000C002D003F001E003300007F
:101880000000000000000000000000000000000058
:10189000000000000000000000000000000C000C30
:1018A000000C000CC0FFC0FF000C000C000C000C72
:1018B0000000000000000000000000000000000028
:1018C0000000000000000000000000000000000018
:1018D00000000000000C000C0004000400080000E0
:1018E00000000000000000000000000000000000F8
:1018F000001E001E000000000000000000000000AC
:1019000000000000000000000000000000000000D7
:10191000000000000000000000000000000C000CAF
:1019200000000000000000000003000300030006A8
:10193000000600060006000C000C000C000C00184D
:10194000001800180000000000000000001E003F0A
:101950000033806180618061806D806D8061806115
:1019600080610033003F001E000000000000000006
:101970000006000E001E00360026000600060006C7
:101980000006000600060006000600060000000033
:1019900000000000001E003F8073806180618001B4
:1019A00000030006000C001800300060807F807F7C
:1019B0000000000000000000001C003E0063006307
:1019C0000003000E000E000380018001806180731F
:1019D000003F001E00000000000000000006000E96
:1019E000000E001E001E0016003600360066807FC6
:1019F000807F0006000600060000000000000000D6
:101A0000007F007F006000600060006E007F8063E8
:101A10008001800180618073003F001E0000000093
:101A200000000000001E003F803380610060006EF7
:101A3000007F80738061806180618033003F001E81
:101A40000000000000000000807F807F8001000314
:101A5000000300060006000C000C000C0008001833
:101A6000001800180000000000000000001E003FE9
:101A70008063806180610021001E003F8061806181
:101A800080618061003F001E000000000000000037
:101A9000001E003F00738061806180618073803F21
:101AA000801D800180610073003F001E0000000067
:101AB000000000000000000000000000000C000C0E
:101AC000000000000000000000000000000C000CFE
:101AD0000000000000000000000000000000000006
:101AE0000000000C000C00000000000000000000DE
:101AF000000C000C000400040008000000000000BE
:101B0000000080008003000E003800600038000EE6
:101B100080038000000000000000000000000000C2
:101B20000000000000000000807F807F00000000B7
:101B3000807F807F000000000000000000000000A7
:101B40000000000000000000000000400070001CC9
:101B5000000780010007001C00700040000000002A
:101B60000000000000000000001F803FC071C06046
:101B7000C000C00180030007000E000C000C000034
:101B8000000C000C0000000000000000001E003FE0
:101B9000803180718063806F806D806D806F806721
:101BA00000600032003E001C000000000000000049
:101BB000000E000E001B001B001B001B803180313B
:101BC000803F803F8031C060C060C0600000000086
:101BD00000000000007C007E00630063006300637F
:101BE000007E007E0063806180618063007F007EF4
:101BF0000000000000000000001E003F80318061F6
:101C00000060006000600060006000608061803102
:101C1000003F001E0000000000000000007C007F6C
:101C20000063806380618061806180618061806128
:101C300000630063007E007C0000000000000000E4
:101C4000807F807F0060006000600060007F007F18
:101C50000060006000600060807F807F0000000006
:101C600000000000807F807F0060006000600060F6
:101C7000007F007F00600060006000600060006026
:101C80000000000000000000001E003F8031806165
:101C900000600060006080638063806180618031EB
:101CA000803F001E00000000000000008061806195
:101CB0008061806180618061807F807F80618061E0
:101CC0008061806180618061000000000000000090
:101CD000003F003F000C000C000C000C000C000C3E
:101CE000000C000C000C000C003F003F0000000046
:101CF00000000000800180018001800180018001DE
:101D0000800180018001806180618073003F001E3E
:101D10000000000000000000C060806100630066F9
:101D20000066006C0078007C0066006600638061DD
:101D30008061C060000000000000000000600060E2
:101D40000060006000600060006000600060006093
:101D500000600060807F807F0000000000000000C5
:101D6000C071C071C07BC07AC06AC06AC06EC064F6
:101D7000C060C060C060C060C060C06000000000A3
:101D80000000000080718071807980798079806D99
:101D9000806D806D80658067806780678063806309
:101DA0000000000000000000001E003F00338061C2
:101DB00080618061806180618061806180610033C9
:101DC000003F001E0000000000000000007E007FB9
:101DD00080638061806180618063007F007E00603D
:101DE0000060006000600060000000000000000073
:101DF000001E003F003380618061806180618061EE
:101E00008061806580670033803F401E00000000D5
:101E100000000000007E007F80638061806180633D
:101E2000007F007E00660063006380618061C060A7
:101E30000000000000000000000E001F8031803113
:101E400000300038001E000780038061806180310F
:101E5000003F001E0000000000000000C0FFC0FFA7
:101E6000000C000C000C000C000C000C000C000C12
:101E7000000C000C000C000C000000000000000032
:101E8000806180618061806180618061806180614A
:101E90008061806180618073003F001E000000004F
:101EA00000000000C060C060C060803180318031BF
:101EB000001B001B001B001B000E000E000E000488
:101EC0000000000000000000C0C0C0C0C0C0C0C012
:101ED000C0C0C0CC804C804C805E805280528073E9
:101EE000806180610000000000000000C0C08060D0
:101EF00080610033003B001E000C000C001E001F20
:101F0000003B80718061C0C0000000000000000044
:101F1000C0C08061806100330033001E001E000CD1
:101F2000000C000C000C000C000C000C0000000069
:101F300000000000803F803F800100030003000696
:101F4000000C000C0018001800300060807F807FBB
:101F5000000000000000000F000F000C000C000C3F
:101F6000000C000C000C000C000C000C000C000C11
:101F7000000C000C000C000F000F000000180018EF
:101F80000018000C000C000C000C000600060006F7
:101F90000006000300030003000000000000001E14
:101FA000001E0006000600060006000600060006E9
:101FB0000006000600060006000600060006001ED9
:101FC000001E0000000C000C001E00120033003345
:101FD000806180610000000000000000000000003F
:101FE00000000000000000000000000000000000F1
:101FF00000000000000000000000000000000000E1
:10200000000000000000E0FF0000000000380018A1
:10201000000C0000000000000000000000000000B4
:1020200000000000000000000000000000000000B0
:102030000000000000000000001F803F8061800160
:10204000801F803F80618063807FC0380000000077
:10205000000000000060006000600060006E007F13
:10206000807380618061806180618073007F006E19
:102070000000000000000000000000000000000060
:10208000001E003F8073806100600060806180738B
:10209000003F001E000000000000000080018001E1
:1020A00080018001801D803F80738061806180613C
:1020B00080618073803F801D0000000000000000F0
:1020C0000000000000000000001E003F007380615F
:1020D000807F807F00608071003F001E0000000054
:1020E00000000000C007C00F000C000C807F807F44
:1020F000000C000C000C000C000C000C000C000C80
:102100000000000000000000000000000000801D32
:10211000803F807380618061806180618073803FD7
:10212000801D80018063007F003E00000060006031
:1021300000600060006F807F8071806180618061DD
:10214000806180618061806100000000000000000B
:102150000006000600000000003E003E00060006EB
:10216000000600060006000600060006000000004B
:1021700000000006000600000000003E003E0006D1
:10218000000600060006000600060006000600061F
:102190000046007E003C00000060006000600060BF
:1021A000806100630066006C007C00760063006361
:1021B0008061C0600000000000000000003E003EA2
:1021C00000060006000600060006000600060006DF
:1021D00000060006000600060000000000000000E7
:1021E000000000000000000080DDC0FFC0CEC0CCB9
:1021F000C0CCC0CCC0CCC0CCC0CCC0CC0000000097
:10220000000000000000000000000000006F807F60
:1022100080718061806180618061806180618061A6
:1022200000000000000000000000000000000000AE
:10223000001E003F807380618061806180618073D7
:10224000003F001E00000000000000000000000031
:102250000000006E007F807380618061806180611A
:102260008073007F006E006000600060006000000E
:10227000000000000000801D803F8073806180614D
:10228000806180618073803F801D800180018001BA
:102290008001000000000000000000000067803F97
:1022A00000390030003000300030003000300030A5
:1022B000000000000000000000000000000000001E
:1022C000001E803F80610060007F803F8001806150
:1022D000007F001E00000000000000000000000859
:1022E00000180018007F007F001800180018001860
:1022F00000180018801F800F000000000000000080
:102300000000000000000000806180618061806149
:102310008061806180618063807F803D000000007B
:10232000000000000000000000000000C0608031DC
:1023300080318031001B001B001B000E000E0006C8
:10234000000000000000000000000000000000008D
:1023500080DD80DD80DD0055005500550077007779
:102360000022002200000000000000000000000029
:1023700000000000806100330033001E000C000CE0
:10238000001E0033003380610000000000000000E8
:102390000000000000008061806180310033003364
:1023A000001B001B001B000E000E000E001C007C1A
:1023B000007000000000000000000000C07FC07F2F
:1023C000800100030006000C00180030C07FC07FB1
:1023D00000000000000080038007000600060006E1
:1023E00000060006000E001C001C000E0006000681
:1023F00000060006000680078003000600060006AF
:10240000000600060006000600060006000600069C
:10241000000600060006000600060006000600385A
:10242000003C000C000C000C000C000C000E00071F
:102430000007000E000C000C000C000C000C003C0F
:102440000038000000000000000000000000000054
:102450008038807F0047000000000000000000007E
:10246000000000000000000000000000000000006C
:10247000000000000000000000000000000000005C
:10248000000000000000000000000000000000004C
:1024900000000000000000000000E003E003E00393
:1024A000E003E003E003E003E003C003C003C00176
:1024B000C001C001C001C001000000000000E00335
:1024C000E003E003000000000000000000003C1EEC
:1024D0003C1E3C1E3C1E3C1E3C1E3C1E00000000E0
:1024E00000000000000000000000000000000000EC
:1024F00000000000000000000000000000000000DC
:102500000000CE01CE03DE039E039C039C07FF3F29
:10251000FF7F3807380F780F780F780EFFFFFFFF27
:10252000F01EF01CE01CE03CE03DE0390000000043
:10253000000000000000FC03FE0FEE1FE01EE01E86
:10254000E01EE01EE01FE00FE007F003FC01FE01CB
:10255000FE01FE01FE01FE01FE01FE3DFC3FF00F0B
:10256000E001E001000000000000033E07F78FE7F4
:102570008EE79EE3BCE3B8E7F8E7F0F7E03FC00181
:10258000FF03FF07F307F30FF31EF33CF338F37871
:102590007FF03FE000000000000000000000E007C6
:1025A000F80F780F781F781F781F780FF00FE00F63
:1025B000801FC37FC3FBE7F3F7F1F7F0FFF07FF075
:1025C0003EF87F7CFF3FEF1F00000000000000008E
:1025D0000000E003E003E003E003E003C003C00108
:1025E00000000000000000000000000000000000EB
:1025F00000000000000000000000000000000000DB
:102600000000000000003F007C00F001E001C0037A
:10261000C00780078007800F000F000F000F000F1A
:10262000000F000F800F80078007C007C003E00184
:10263000F0017C003F000F000000007E001FC0077B
:10264000C003E001F001F000F000F800780078002D
:102650007800780078007800F800F000F000F001D1
:10266000E001C003C007001F007E00780000E00307
:10267000C003C001CE39FF3F7F3F20037003F8073E
:10268000780F3C1F3806000000000000000000002A
:10269000000000000000000000000000000000003A
:1026A0000000000000000000000000000000C00169
:1026B000C001C001C001C001C001C001FFFFFFFF98
:1026C000C001C001C001C001C001C0010000000084
:1026D00000000000000000000000000000000000FA
:1026E00000000000000000000000000000000000EA
:1026F0000000000000000000E003E003E003E0034E
:10270000E001E001E001C0018003000000000000E2
:1027100000000000000000000000000000000000B9
:10272000FE3FFE3F0000000000000000000000002F
:102730000000000000000000000000000000000099
:102740000000000000000000000000000000000089
:102750000000000000000000000000000000000079
:10276000E003E003E003E0030000000000000000DD
:1027700000000F000F001E001E003C003C0078000F
:102780007800F000F000E001E001C003C003800722
:102790008007000F000F001E001E003C003C007868
:1027A000007800F00000F007F80F7C1F3E3E1E3C52
:1027B0001F7C1F7C0F780F780F780F780F780F78B9
:1027C0000F781F7C1F7C1E3C3E3E7C1FF80FF007DD
:1027D00000000000000000000000F000F007F03FE3
:1027E000F03FF001F001F001F001F001F001F00123
:1027F000F001F001F001F001F001F001F001F00151
:10280000FF3FFF3F00000000000000000000E00F5D
:10281000F83F7C3C3C003E003E003E003C003C005B
:102820007C00F800F001E003C0078007000F001EE5
:10283000003E003CFE3FFE3F0000000000000000A4
:102840000000F00FF81F7C1C3E003E003E003C00E4
:102850003C00F800F00FF80F7C003E001E001E0048
:102860001E001E003E007C1CF81FE01F0000000040
:102870000000000000007800F800F800F801F803FC
:10288000F807F807780F781E781E783C7878787803
:10289000FFFFFFFF7800780078007800780078006C
:1028A00000000000000000000000FC1FFC1FFC1FD7
:1028B000001E001E001E001E001EE01FF81FFC0070
:1028C0007C003E003E001E003E003E003C007C1CA2
:1028D000F81FE01F00000000000000000000FC01E5
:1028E000FE078E0F001F001E003E003C003CF83D1E
:1028F000FC3F3E7F1F7E0F3C0F3C0F3C0F3C0F3ECA
:102900001F1E3E1FFC0FF00300000000000000002F
:102910000000FF3FFF3FFF3F0F001E001E003C0076
:1029200038007800F000F000E001E001C003C003CF
:102930008007800F800F000F001F001F00000000A5
:10294000000000000000F807FC0F3E1F1E1E1E3E88
:102950001E3E1E1E3C1FF80FF007F80FFC1E3E3EE9
:102960001F3C1F7C0F7C0F7C1F3C3E3FFC1FF00771
:1029700000000000000000000000F007F80F7C1EBF
:102980003E3C1E3C1F7C1F7C1F7C1F7C1F3C3F3E2F
:10299000FF1FEF071F001E001E003E003C00F8381E
:1029A000F03FE01F000000000000000000000000F9
:1029B00000000000000000000000E003E003E0036E
:1029C000E003000000000000000000000000000024
:1029D000E003E003E003E00300000000000000006B
:1029E0000000000000000000000000000000E00304
:1029F000E003E003E003000000000000000000002E
:102A000000000000E003E003E003E003E001E00178
:102A1000E001C0038003000000000000000000008F
:102A2000000003000F003F00FC00F003C00F003F58
:102A300000FE003FC00FF003FC003F000F0003004A
:102A40000000000000000000000000000000000086
:102A50000000000000000000000000000000FFFF78
:102A6000FFFF000000000000FFFFFFFF000000006C
:102A70000000000000000000000000000000000056
:102A80000000000000000000000000E000F8007EF0
:102A9000801FE007F8017E001F007E00F801E007BC
:102AA000801F007E00F800E0000000000000000031
:102AB0000000F01FFC3F3E381F381F381E001E006C
:102AC0003C007800F000E001C003C003C007C0076D
:102AD000000000000000C007C007C00700000000A1
:102AE000000000000000F803FE0F1E1F0F3E7F3C99
:102AF000FF78EF79C773C7F38FF38FF38FF39FF3EB
:102B00009FF3FF73FF7BF779003C1C1FFC0FF8035A
:102B100000000000000000000000000000000000B5
:102B2000E003E003F007F007F007780F780F7C0E62
:102B30003C1E3C1E3E3CFE3FFF3F1F780F780FF0CF
:102B400007F007F000000000000000000000000097
:102B500000000000F83FFC3F3E3C1E3C1E3C1E3C7B
:102B60003E3C7C3CF03FF83F7E3C1F3C1F3C0F3C12
:102B70000F3C1F3CFE3FF83F00000000000000003B
:102B80000000000000000000FF01FF07871F003E5B
:102B9000003C007C00780078007800780078007CA9
:102BA000007C003E003F831FFF07FF010000000084
:102BB000000000000000000000000000F07FFC7F2B
:102BC0007E781F781F780F780F780F780F780F783E
:102BD0000F780F780F781F781E787E78F87FE07F67
:102BE00000000000000000000000000000000000E5
:102BF000FF3FFF3F003E003E003E003E003E003EE5
:102C0000FE3FFE3F003E003E003E003E003E003ED6
:102C1000FF3FFF3F00000000000000000000000038
:102C200000000000FF1FFF1F001E001E001E001EF0
:102C3000001E001EFF1FFF1F001E001E001E001EA4
:102C4000001E001E001E001E00000000000000000C
:102C50000000000000000000FE03FF0F871F003E81
:102C6000007C007C007800F800F87FF87FF80F788F
:102C70000F7C0F7C0F3E8F1FFF0FFE030000000034
:102C80000000000000000000000000001F7C1F7C0E
:102C90001F7C1F7C1F7C1F7C1F7C1F7CFF7FFF7F96
:102CA0001F7C1F7C1F7C1F7C1F7C1F7C1F7C1F7C4C
:102CB0000000000000000000000000000000000014
:102CC000FF3FFF3FE003E003E003E003E003E00336
:102CD000E003E003E003E003E003E003E003E003DC
:102CE000FF3FFF3F00000000000000000000000068
:102CF00000000000FC1FFC1F7C007C007C007C00AE
:102D00007C007C007C007C007C007C007C007800E7
:102D10007800F838F03FC03F0000000000000000DD
:102D200000000000000000001F3C1E3C3C3C783CC2
:102D3000F03CE03DE03FC03F803FC03FE03FF03D22
:102D4000F03C783C7C3C3E3C1F3C0F3C00000000CB
:102D5000000000000000000000000000003E003EF7
:102D6000003E003E003E003E003E003E003E003E73
:102D7000003E003E003E003E003E003EFF3FFF3F63
:102D80000000000000000000000000000000000043
:102D90001FF81FFC1FFC3FFE3FFE3FFE7FFF77FF3B
:102DA00077FFF7F7E7F7E7F3E7F3C7F307F007F085
:102DB00007F007F000000000000000000000000025
:102DC000000000000F7C0F7C0F7E0F7F0F7F8F7F36
:102DD0008F7FCF7FEF7BEF79FF79FF78FF787F7868
:102DE0003F783F781F781F78000000000000000047
:102DF0000000000000000000F007FC1F3E3E1F7CAA
:102E00000F780F780FF80FF80FF80FF80FF80FF88A
:102E10000F780F781F7C3E3EFC1FF007000000007B
:102E2000000000000000000000000000FC3FFF3F29
:102E30001F3E0F3E0F3E0F3E0F3E1F3E3F3EFC3FEC
:102E4000F03F003E003E003E003E003E003E003EA1
:102E50000000000000000000000000000000000072
:102E6000F007FC1F3E3E1F7C0F780F780FF80FF81D
:102E70000FF80FF80FF80FF80F780F781F7C3E3E11
:102E8000FC1FF8077C003F000F000300000000005B
:102E900000000000F03FFC3F7E3C3E3C1E3C1E3CE0
:102EA0003E3C3C3CFC3CF03FE03FF03DF83C7C3C91
:102EB0003E3C1E3C1F3C0F3C000000000000000098
:102EC0000000000000000000FC07FE1F0E3E003C5A
:102ED000003C003C003EC01FF80FFE037F001F00B7
:102EE0000F000F001F203E3CFC3FF01F00000000C1
:102EF000000000000000000000000000FFFFFFFFD6
:102F0000E003E003E003E003E003E003E003E003A9
:102F1000E003E003E003E003E003E003E003E00399
:102F200000000000000000000000000000000000A1
:102F30000F7C0F7C0F7C0F7C0F7C0F7C0F7C0F7C39
:102F40000F7C0F7C0F7C0F7C0F7C1E3C1E3C3E3E9A
:102F5000FC1FF0070000000000000000000000005F
:102F60000000000007F007F007F80F780F7C1E3C08
:102F70001E3C1E3E3C1E3C1F781F780FF80FF007CA
:102F8000F007F007E003E00300000000000000008D
:102F9000000000000000000003E003F003F007F071
:102FA000E7F3E7F3E7F3E773F77BF77FFF7F7F7FD5
:102FB0007F7F7E7F7E3F3E3E3E3E3E3E00000000E5
:102FC00000000000000000000000000007F80F7C77
:102FD0001E3E3E3E3C1FF80FF007E007E003E00313
:102FE000F007F80F7C0F7C1E3E3C1F780F780FF027
:102FF00000000000000000000000000000000000D1
:1030000007F807780F7C1E3C1E3E3C1F780FF80F18
:10301000F007E003E003E003E003E003E003E00384
:10302000E003E003000000000000000000000000DA
:1030300000000000FF7FFF7F0F001F003E007C00AC
:10304000F800F000E001E003C007800F000F001E51
:10305000003E007CFF7FFF7F0000000000000000BA
:103060000000FF0780078007800780078007800730
:103070008007800780078007800780078007800718
:103080008007800780078007800780078007800708
:10309000FF07FF07000000780078003C003C001E9E
:1030A000001E000F000F80078007C003C003E0016F
:1030B000E001F000F000780078003C003C001E00C9
:1030C0001E000F000F0007000000F07FF000F0006E
:1030D000F000F000F000F000F000F000F000F00070
:1030E000F000F000F000F000F000F000F000F00060
:1030F000F000F000F000F000F07FF07F0000C00072
:10310000C001C001E003E003F007F0077807780F83
:10311000380F3C1E3C1E1E3C1E3C0F380F780778B3
:10312000000000000000000000000000000000009F
:10313000000000000000000000000000000000008F
:10314000000000000000000000000000000000007F
:10315000000000000000000000000000FFFFFFFF73
:10316000000000000000F00000000000000000006F
:10317000000000000000000000000000000000004F
:10318000000000000000000000000000000000003F
:10319000000000000000000000000000000000002F
:1031A000000000000000F80FFC3F7C3C3E003E00A9
:1031B0003E00FE07FE1F3E3E3E7C3E783E7C7E7C0F
:1031C000FF3FCF1F00000000000000000000003C97
:1031D000003C003C003C003C003CF83DFE3F3E3FD4
:1031E0001F3E0F3C0F3C0F3C0F3C0F3C0F3C1F3C65
:1031F0001E3C3E3FFC3FF03B000000000000000092
:103200000000000000000000000000000000FE03BD
:10321000FF0F871F003E003E003C007C007C007CCE
:10322000003C003E003E871FFF0FFE030000000031
:103230000000000000001F001F001F001F001F00F3
:103240001F00FF07FF1F3F3E1F3C1F7C1F7C1F7C92
:103250001F781F781F7C1F7C3F3C7F3EFF1FDF0FC6
:10326000000000000000000000000000000000005E
:10327000000000000000F803FC0F3E1F1E3E1F3C34
:103280001F7CFF7FFF7F007C007C003C003E071F0F
:10329000FF0FFE0300000000000000000000FF011F
:1032A000E103C003C007C007C007FF7FFF7FC0075F
:1032B000C007C007C007C007C007C007C007C007D6
:1032C000C007C007C007C0070000000000000000E2
:1032D0000000000000000000000000000000EF07F8
:1032E000FF1F7F3E1F3C1F7C1F7C1F781F781F78AD
:1032F0001F7C1F7C3F3C7F3EFF1FDF0F1E001E0018
:103300001E007C38F83F003C003C003C003C003C88
:10331000003CFC3DFE3F9E3F1F3F1F3E1F3C1F3CAD
:103320001F3C1F3C1F3C1F3C1F3C1F3C1F3C1F3CC5
:1033300000000000000000000000F001F0010000AB
:10334000000000000000E07FE07FE001E001E0011C
:10335000E001E001E001E001E001E001E001E00165
:10336000E001E00100000000000000000000F800A3
:10337000F8000000000000000000F83FF83FF800EF
:10338000F800F800F800F800F800F800F800F8007D
:10339000F800F800F800F800F800F800F000F0710C
:1033A000E07F003C003C003C003C003C003C1F3CFB
:1033B0003E3C7C3CF83CF03DE03DC03FC03FE03F40
:1033C000F03DF83C7C3C3E3C1F3C1F3C00000000B4
:1033D000000000000000F07FF001F001F001F001BA
:1033E000F001F001F001F001F001F001F001F00155
:1033F000F001F001F001F001F001F001F001F00145
:1034000000000000000000000000000000000000BC
:103410000000000000009EF7FFFFFFFFFFFFE7FB3B
:10342000E7F9C7F1C7F1C7F1C7F1C7F1C7F1C7F1B4
:10343000C7F1C7F10000000000000000000000001C
:1034400000000000000000000000FC3DFE3F9E3F29
:103450001F3F1F3E1F3C1F3C1F3C1F3C1F3C1F3C8F
:103460001F3C1F3C1F3C1F3C0000000000000000F0
:103470000000000000000000000000000000F00755
:10348000FC1F3E3E1F3C1F7C0F780F780F780F7893
:103490000F781F7C1F3C3E3EFC1FF0070000000021
:1034A000000000000000000000000000000000001C
:1034B0000000F83DFE3F3E3F1F3E0F3C0F3C0F3CDF
:1034C0000F3C0F3C0F3C1F3C1E3E3E3FFC3FF83F75
:1034D000003C003C003C003C003C000000000000C0
:1034E000000000000000EE07FE1F7E3E1E3C1E7C1A
:1034F0001E781E781E781E781E781E7C3E7C7E3ECE
:10350000FE1FDE0F1E001E001E001E001E0000001B
:10351000000000000000000000007F1FFF1FE71FE9
:10352000C71F871F001F001F001F001F001F001F55
:10353000001F001F001F001F00000000000000000F
:103540000000000000000000000000000000FC0778
:10355000FE1F0E1E003E003E003FE01FFC07FE0067
:103560003E001E001E003E3CFC3FF01F000000001D
:10357000000000000000000000000000800780073D
:103580008007FF7FFF7F8007800780078007800715
:1035900080078007800780078007C007FF03FF01BF
:1035A000000000000000000000000000000000001B
:1035B0000000000000001E3C1E3C1E3C1E3C1E3C49
:1035C0001E3C1E3C1E3C1E3C1E3C3E3C7E3CFE3EC9
:1035D000FE1FDE0F000000000000000000000000E1
:1035E0000000000000000000000007F00F780F78D6
:1035F0001E3C1E3C1E3E3C1E3C1E780F780FF00FFA
:10360000F007F007E003E003000000000000000006
:10361000000000000000000000000000000003F0B7
:10362000E3F1E3F3E7F3F7F3F7F3F77F777F7F7FD8
:103630007F7F7F7F3E3E3E3E3E3E3E3E000000009E
:10364000000000000000000000000000000000007A
:1036500000000F7C1E3E3C3E3C1FF80FF007F007B9
:10366000E003F007F807F80F7C1E3E3E1F3C1F7872
:10367000000000000000000000000000000000004A
:1036800000000000000007F80F780F7C1E3C1E3C75
:103690003C1E3C1E3C1F780FF80FF007F007E003BC
:1036A000E003C003C003C0038007800F007F000059
:1036B00000000000000000000000FF3FFF3F1F006F
:1036C0003E007C00F800F001E003C007800F001FFF
:1036D000001E003CFF7FFF7F000000000000000094
:1036E0000000FE01E003C003C003C003C003E0010B
:1036F000E001E001C001C003803F803FC003C00182
:10370000E001E001E001C003C003C003C003E00327
:10371000FE017E000000C001C001C001C001C00167
:10372000C001C001C001C001C001C001C001C00191
:10373000C001C001C001C001C001C001C001C00181
:10374000C001C001C001C0010000C03FE003E001B2
:10375000E001E001E001C001C003C003C001E001DD
:10376000FE00FE00E001C001C003C003C001E00193
:10377000E001E001E001E003C03F003F0000000085
:103780000000000000000000000000000000000039
:1037900000000000073FC77FE773FFF17EF00000E5
:1037A0000000000000000000000000000000000019
:1037B00000000000D43700080000002034000000A2
:1037C000FC1200080838000834000020040800003B
:1037D0000C13000800002000000000010001E607B3
:1037E0000000000000000000000000000B120000BC
:1037F0000A170008101A00006624000800000000E4
:083800000000000000000000C0
:04000005080000C12E
:00000001FF
