:020000040800F2
:100000000020002079380008FD200008FF200008AB
:1000100000000000000000000000000000000000E0
:1000200000000000000000000000000001210008A6
:100030000000000000000000032100080521000866
:10004000C9380008C938000807210008C938000865
:10005000C9380008C9380008C9380008C93800087C
:1000600000000000C9380008C9380008092100084C
:10007000C93800080B21000800000000C93800083A
:1000800000000000C9380008000000000000000067
:10009000C938000800000000C9380008C938000845
:1000A000C9380008C9380008C9380008C93800082C
:1000B00013210008C93800080000000000000000FB
:1000C00010B5064C2378002B07D1054B002B02D02E
:1000D000044800E000BF0123237010BD98000020F9
:1000E00000000000CC4E0008044B10B5002B03D0DC
:1000F0000349044800E000BF10BDC04600000000F6
:100100009C000020CC4E000802780B78002A03D017
:10011000013001319A42F7D0D01A704703B47146CA
:10012000490840004900095E49008E4403BC7047FD
:10013000002243088B4274D303098B425FD3030A26
:100140008B4244D3030B8B4228D3030C8B420DD339
:10015000FF22090212BA030C8B4202D312120902C7
:1001600065D0030B8B4219D300E0090AC30B8B4205
:1001700001D3CB03C01A5241830B8B4201D38B03B3
:10018000C01A5241430B8B4201D34B03C01A524158
:10019000030B8B4201D30B03C01A5241C30A8B429B
:1001A00001D3CB02C01A5241830A8B4201D38B0286
:1001B000C01A5241430A8B4201D34B02C01A52412A
:1001C000030A8B4201D30B02C01A5241CDD2C3099C
:1001D0008B4201D3CB01C01A524183098B4201D318
:1001E0008B01C01A524143098B4201D34B01C01A03
:1001F000524103098B4201D30B01C01A5241C3087B
:100200008B4201D3CB00C01A524183088B4201D3E9
:100210008B00C01A524143088B4201D34B00C01AD5
:100220005241411A00D20146524110467047FFE741
:1002300001B5002000F0F0F802BDC0460029F7D05B
:1002400076E7704703460B437FD4002243088B4276
:1002500074D303098B425FD3030A8B4244D3030B4D
:100260008B4228D3030C8B420DD3FF22090212BA12
:10027000030C8B4202D31212090265D0030B8B428E
:1002800019D300E0090AC30B8B4201D3CB03C01A78
:100290005241830B8B4201D38B03C01A5241430B53
:1002A0008B4201D34B03C01A5241030B8B4201D343
:1002B0000B03C01A5241C30A8B4201D3CB02C01AAE
:1002C0005241830A8B4201D38B02C01A5241430A26
:1002D0008B4201D34B02C01A5241030A8B4201D315
:1002E0000B02C01A5241CDD2C3098B4201D3CB01BC
:1002F000C01A524183098B4201D38B01C01A52416B
:1003000043098B4201D34B01C01A524103098B426E
:1003100001D30B01C01A5241C3088B4201D3CB0059
:10032000C01A524183088B4201D38B00C01A52413C
:1003300043088B4201D34B00C01A5241411A00D2EC
:1003400001465241104670475DE0CA0F00D0494255
:10035000031000D34042534000229C4603098B42C5
:100360002DD3030A8B4212D3FC22890112BA030A4D
:100370008B420CD3890192118B4208D389019211CF
:100380008B4204D389013AD0921100E08909C30954
:100390008B4201D3CB01C01A524183098B4201D356
:1003A0008B01C01A524143098B4201D34B01C01A41
:1003B000524103098B4201D30B01C01A5241C308B9
:1003C0008B4201D3CB00C01A524183088B4201D328
:1003D0008B00C01A5241D9D243088B4201D34B0043
:1003E000C01A5241411A00D20146634652415B1085
:1003F000104601D34042002B00D549427047634666
:100400005B1000D3404201B5002000F005F802BDAA
:100410000029F8D016E770477047C0469E2110B5F6
:10042000C905041C01F034FA002803D1201C00F097
:10043000E1FA10BD9E21201CC90500F02DF900F045
:10044000D9FA80231B069C466044F2E7F0B54F467C
:100450004646D64644024500C0B5640A0F1C2D0E20
:10046000C60F002D00D18DE0FF2D00D192E00023BA
:10047000802099469A46E400C00404437F3D7802F8
:10048000430A98467B001B0EFF0F002B00D170E043
:10049000FF2B00D186E04246D00080227F3BED1842
:1004A0000023D204024390469C4631004B467940DB
:1004B000681C0F2B1CD8764A9B00D3589F463900E6
:1004C0004446E2465346022B0FD0032B00D1D7E01F
:1004D000012B37D100200024C0052043C907084361
:1004E000E0BCBA46B146A846F0BDFF200024F3E7C1
:1004F000260C2404220C44462404240C43462700E2
:100500001B0C574374435A435E4312193B0C9B1810
:100510009C4203D980225202944666443F041A0446
:100520003F0CD2199401671EBC411B0C920E9B1903
:1005300014439B011C431B0100D49BE00123620870
:100540001C40144302007F32002A64DD630704D09C
:100550000F232340042B00D00434230103D50200D1
:100560004C4B80321C40FE2ABFDCA401640AD0B28E
:10057000B2E74346002B3DD14A4601331A43914628
:100580009C4692E7002C29D104239946033B002581
:100590009A4674E7002C1BD108239946063BFF2599
:1005A0009A466CE74346FF35002B0BD102234A469F
:1005B0001A4391469C4678E753463100022B00D0FF
:1005C00083E792E703234A461A4391469C466CE729
:1005D0000C239946093BFF259A4650E7200001F07D
:1005E00061F97625431F9C4000236D4299469A4647
:1005F0002D1A44E7404601F055F94246431F9A4000
:1006000000232D1A90469C46763D4EE7802400211B
:10061000FF20E40360E701239B1A1B2B00DD59E751
:1006200022009E30DA4084401300621E94411C4335
:10063000630704D00F232340042B00D0043463014C
:100640001AD50120002447E78020C003044209D0C6
:100650004346034206D14446044364023900FF2066
:10066000640A39E78020C003044364023100FF209C
:10067000640A31E7280065E7A4010020640A2BE73B
:100680008020C00304436402FF20640A24E7C046BC
:10069000444F0008FFFFFFF7F8B5CE464746430238
:1006A0005B0A4E02DA009446720A914645004A00FF
:1006B00080B52D0E1F00C40F120EC90FB609FF2AF8
:1006C0005BD0012041408C4239D0A81A00285ADD65
:1006D000002A6AD0FF2D00D1D9E08022D20416432F
:1006E0001B2800DCE9E001206346181A430100D40E
:1006F000B4E080018709380001F0D4F8053887405C
:10070000854200DCCCE02D1AB5483840430704D0C0
:100710000F230340042B00D00430430100D4A0E099
:100720006A1CFE2D00D18DE08001470AD2B2D005AF
:100730003843E4072043C0BCB946B046F8BDA81A08
:100740008046002845DD002A70D0FF2D00D19EE0B4
:100750008023DB041E4343461B2B00DCD2E0012038
:10076000604443017AD50135FF2D6BD001239D4AAA
:100770000340400810401843C8E7002E20D08C42A8
:1007800023D02800FF38002839D0571B002D00D077
:100790009DE06346002B00D1DBE07B1E012F00D1E2
:1007A0000DE1FF2F71D01F0098E0002E00D1A7E0CF
:1007B000421E012800D1E6E0FF2868D010008FE734
:1007C00001204140A14200D07FE7FF204042804607
:1007D000A8444046002838D0511B002D00D1AEE07F
:1007E000FF2A00D1DFE080236046DB041843844603
:1007F0001B2900DCD9E0012015008019B1E7FE209B
:100800006A1C104271D1002D00D0A6E06346002B77
:1008100000D1D9E00022002E00D188E7981B4301C7
:1008200000D4E1E063460C00F01A6FE7002E00D11F
:10083000B7E00200013A012800D19CE0FF2826D051
:10084000904688E7FF22002771E7FE206A1C1042CD
:1008500064D0FF2AF6D0150066447008430700D024
:1008600056E7C308FF2D12D05B025F0AEAB25EE7CB
:100870006246002A00D196E0002E08D08022D203E2
:10088000134204D04846104201D10C004B46002BC5
:10089000D8D08027FF031F437F02FF227F0A46E74D
:1008A00020233A00451B38000135EA405D1BA84073
:1008B000431E98410025104328E720231B1A3200CD
:1008C0009E40C2403000431E984110430CE7FF2A6F
:1008D000DBD080236046DB04184384461B2F56DDA3
:1008E00001200C001500301A00E763469F1B7B01B6
:1008F0003DD4002F00D0FEE600240022002716E79A
:100900000500AFE7320043464146DA4020235B1A38
:100910009E403000431E9841104321E7002DA7D18F
:100920006346002B59D00022002E00D1FFE6300094
:100930006044430192D52A4B013518408EE7634647
:10094000002B47D04B1E012915D0FF292BD01900B1
:100950004EE70C004B463D0084E76246002A8BD1EF
:10096000002E92D180270024FF22FF03DFE663469A
:100970000C00F71ABFE6300060440125430100D4A3
:100980006CE70225F2E663460125981BAEE62023BC
:1009900064466046FC40DF1BB840431E984120433C
:1009A0009FE705005EE74B4671E7202365466046FA
:1009B000CD40591A8840431E984128431CE763469E
:1009C0000C000125F01A91E6002E95D00C004F4640
:1009D0000022ACE64B460D0044E74F460022A6E657
:1009E000FFFFFFFBFFFFFF7D002800D036E700245C
:1009F00000279CE641024200C30F490A0020120E64
:100A00007E2A03DD9D2A02DD094A9818704780205E
:100A100000040143952A07DC9620821AD1404842FF
:100A2000002BF3D10800F1E7963A9140F7E7C04672
:100A3000FFFFFF7FF0B557464E464546DE46E0B520
:100A400098460C034B000600924687B0240B5B0DC2
:100A5000CF0F002B00D15CE1D94A934200D175E160
:100A6000420FE4001443802212041443D54AC50007
:100A7000944663440093002399469B46434642466E
:100A80001E03D20F5B0050469046360B5B0D00D123
:100A900020E1CB4A934200D162E1CA49420F8C4621
:100AA00000996344F6008C46164380229C4412044D
:100AB00063461643C200002000930099434601316B
:100AC0008C4649467B4001930F2926D8BE4B8900AE
:100AD00059588F46434601933400150083465B46C0
:100AE000022B16D0032B00D103E2012B00D0CDE066
:100AF000002200240025019B12052243DB071A4334
:100B00002800110007B0F0BCBB46B246A946A0467B
:100B1000F0BD00240025AA4AEDE7280C2D042D0C79
:100B20002B00110C1204120C5343984613002F0093
:100B3000434399464F434F44BB4647460B003F0C47
:100B4000BA464343DA440293D14504D980277F0251
:100B5000B9464B44029353461B0C9B4653461F0415
:100B600043461B041B0C98463B0043440493330C40
:100B70003604360C98463300434399464346434374
:100B80002F009A46434677435D43380C4D44451940
:100B9000A94503D980235B029946CA443F04280C27
:100BA0003F0C2D04ED19270C2404240C0300200015
:100BB00050437A4391463A0053440593030C9A46B6
:100BC0004A43614349445144AB44894503D9802396
:100BD0005B0299464A4400040B0C000C09040918F6
:100BE00020009946434670435C437E435F43030CB9
:100BF0009846A41944444A440397A64204D9802342
:100C00005B029846474403972304029E9A46059B3D
:100C10005E449846AE42AD4176188E42894100044A
:100C2000000C504440446D424719B846934649422F
:100C30008946C344D94498428041A845AD41934573
:100C40009241894589416D4240422843240C5242D9
:100C500049420A43039B00198018C7184B46DC0D14
:100C6000049B75021D436A1E95414B46F60D7F029B
:100C700035435A023C431543FB0100D41CE10121DA
:100C80006A080D401543E207154364084F49614463
:100C9000002900DCB0E06B0709D00F222A40042AAB
:100CA00005D02A1DAA42AD416D4264191500E30129
:100CB00004D58021464AC90014406144454A914206
:100CC00000DD26E76207ED08640249051543240BA1
:100CD0004A0D10E75246324300D17FE0002E00D18A
:100CE000DCE0300000F0DEFD02000B3A1D230100C5
:100CF0009B1A52460839DA408E40164352468A40C3
:100D0000009B3549181A03008C4663440020009369
:100D1000D3E6250005434AD0002C00D1B0E02000E6
:100D200000F0C0FD010002000B391D2310005B1A0A
:100D30003100350008388440D94085400C432648AE
:100D4000831A0093002399469B4697E605002543A6
:100D500026D1082200930223002491469B468DE66B
:100D60005246009B324310D1154900268C466344FD
:100D70004946009302231943894602209DE65B46BB
:100D80000197022B00D0ADE6C3E60D4A032094463E
:100D900063444A46009303231A43914652468CE625
:100DA0000C2200930323050091469B4666E604232C
:100DB000994600230093013300249B465EE6C0461B
:100DC000FF07000001FCFFFF844F0008FF03000045
:100DD000FFFFFFFEFE0700000DFCFFFF4946012359
:100DE000194389460026012067E600238024002558
:100DF000434A019324037EE60120401A382800DD8F
:100E000076E61F285BDD1F2223005242511ACB4099
:100E10001900202803D03B4A6244944025436A1EAF
:100E200095412A000A4307210D0000241540114274
:100E30005BD00F2100241140042953D0111D914291
:100E400092415242A4180A0023024BD501220024E9
:100E5000002550E680231B031C4209D01E4207D107
:100E600033431C0343461500240B254A019342E6F5
:100E70008022120314432403214A240B01973AE6EB
:100E800000F010FD01000200153120321C2900DCA9
:100E90004BE7340008380025844050E700F002FD9D
:100EA00003001A00153220301C2A00DC1EE75646CB
:100EB000083B00229E4023E7009B9C46E6E6124941
:100EC000220061442E008D408A40C640691E8D413B
:100ED00032432A43C4405307B6D00F21114004299E
:100EE000ACD1B1E765076402240BD2081543002298
:100EF00001E68022120314432403014A240BFAE57D
:100F0000FF0700003E0400001E040000F8B557462D
:100F10004E464546DE46E0B51E0017004A000B036C
:100F2000520D5B0A9046420F1A43CD0FCD4C310350
:100F3000C300944670007A0F490AFF009A46B946EA
:100F4000400DF60F1143A04200D1B1E001225640FE
:100F5000B346B54200D188E04246121A002A00DCAE
:100F6000AEE0002800D1C1E0BE48804500D151E18B
:100F7000802000040143382A00DD7BE11F2A00DDC8
:100F8000EEE120203E00801A0C00D640D140874080
:100F900062468440521A781E874194463443274360
:100FA000DC1BA3429B4162465B42D31A99464B46E7
:100FB0001B0200D418E14B465802430A99464B469F
:100FC000002B00D137E1484600F06CFC01000839E5
:100FD0002023220048465B1ADA4088408C40434672
:100FE0001043884500DD36E1C91A4B1C1F2B00DD7C
:100FF000EAE020222600D21A01009440DE40D840C8
:1010000000239140621E94418146984631430C432F
:10101000630709D00F232340042B05D0231DA342CF
:10102000A4416442A1441C004B461B0200D4DEE0F4
:1010300041468C4B0131994200D1E7E04B468A484A
:10104000E4080340180049055B07400223434A0DAA
:10105000040B1205ED0722432A4318001100F0BCCF
:10106000BB46B246A946A046F8BD4246121A002A1F
:1010700052DD002800D19CE0A04500D1CAE08020CC
:1010800000040143382A00DD49E11F2A00DC97E112
:1010900010000E002038C640202A04D04020821ABA
:1010A00091400F43B9464C46621E944134433AE1A5
:1010B0000A003A4328D0B346B5422BD06B4A42448B
:1010C000002A5DD042464446821A002C00D0F5E04A
:1010D00065461D4300D19CE1551E012A00D1FBE16C
:1010E000604CA24200D1BDE12A00F0E00800384384
:1010F00000D1C3E0501E012A00D1A8E1594CA24200
:1011000000D187E0020036E701225640B346B542DF
:1011100000D021E7554A4244002A00D1B5E04246BA
:101120004446821A002C00D138E14E4EB04200D124
:10113000DEE18026644636043443A446382A00DDC6
:1011400096E11F2A00DD24E22026B41AA246644656
:101150005646B440A1461C004E46D44026433400B7
:101160005646B3405E1EB3411C436346D340C91884
:10117000E419BC42BF417F42B94680468944D8E069
:1011800040463B4C0130204200D0B4E040460028AD
:1011900000D044E16046184300D190E10800384394
:1011A00000D0AAE16146DB0849070B436146CC0841
:1011B00027E00800384361D0501E012A00D139E1F0
:1011C000A24227D002005DE702001F39CA40110089
:1011D000202B03D04022D31A98400443631E9C4125
:1011E0000023994698460C43630700D012E74B460C
:1011F0004A46E4085B072343D408424619498A4219
:101200000ED024035205240B520D22E70A000024BD
:1012100000231EE7DB086246520713436246D408E8
:101220001A00224300D1FCE180221203144324035C
:101230000C4A240B0DE7200000F034FB01001831AC
:101240001F2900DCC4E608388440434620000024FF
:10125000884500DCC8E6044A5B1A1040984681467F
:10126000D6E6C046FF070000FFFF7FFF01F8FFFF43
:10127000FE0700000F437A1E974191E66146DB08A6
:1012800049070B436146CC08B8E74046D34C0130D0
:10129000204200D0A2E04046002800D001E1604694
:1012A000184300D15EE10800384300D05FE1614699
:1012B000DB0849070B436146CC08A2E7C84DA842AA
:1012C00000D1CFE0802564462D042C43A446382A63
:1012D00056DC1F2A00DDD1E020251E00AD1A644631
:1012E000AB40AC40D6405D1EAB4134432343644623
:1012F000D440091B49E06046DC1B461AA3428041EA
:101300004042814630004E46801B8146000276D422
:101310004B46234300D052E60024002571E73943B1
:101320000C00621E9441E4189C429B415B42634462
:1013300099464B461B0200D456E701239C46A84B16
:10134000E044984538D04B46A64801220340180097
:10135000630814401C43C3071C434308994657E6DF
:1013600010000E002038C640202A04D04020821AE7
:1013700091400F43B9464F467A1E974137430FE6D7
:1013800062461A4313005A1E9341FC1AA742BF41FA
:101390007F42CB1B99465D46804608E666461E4363
:1013A00000D1BEE0561E012A00D109E18C4CA242B8
:1013B00000D119E13200C1E642460024002348E68C
:1013C00020200C00801A3E0087408440D640781EC2
:1013D0008741D14034433C438C44A4E7804A904247
:1013E00000D1E9E0DF199F429B4161445B42C9188B
:1013F000CC077F084B08994680463C43F4E6FC1A2C
:10140000A742BF4163467F42C91ACB1B99465D463E
:10141000D5E5FF084B075D463B43CC08EEE6624648
:101420001A4300D082E00B003B431BD180240025EF
:101430002403F9E6DC199C429B41614489465B42E6
:1014400099444B461B0244D401239846CCE6DC1B4E
:101450006246A3429B41511A5B42CB1A9946012333
:101460009846A4E5FF084B075D463B43CC08D7E60A
:1014700062461A431400631E9C4179E615006446D7
:10148000203DEC40A046202A05D040256446AA1AFB
:10149000944023439A465446631E9C41434623434B
:1014A00073E762461A4323D00A003A4300D0A0E013
:1014B0006246DB08520713436246D408B0E60B00CD
:1014C0003B4300D128E7FF084B075D463B43CC0870
:1014D00097E60223984636E7FC1AA742BF416346C7
:1014E0007F42C91ACB1B994601235D4698465EE5AB
:1014F0004B07FF083B43CC0892E6DC1B6046A34247
:10150000B641401A7642801B8146000260D5FC1A23
:10151000A742BF4163467F42C91ACB1B99465D462D
:1015200076E5FF084B073B43CC0867E60A00DB087B
:101530003A4300D16FE66246520713436246D4082D
:1015400080221203144207D0C808104204D15D461D
:101550000400FB0849070B435A0FDB00DB08520766
:1015600013435DE64B07FF083B43CC0849E6DC1913
:101570009C429B41614489465B4299444B461B0215
:1015800000D431E64A46174B1A400123914698464B
:101590002AE616006446203EF440A046202A05D0E4
:1015A00040266446B21A944023439A465446631E2A
:1015B0009C4143461C43DBE502000024002348E530
:1015C000DC19BC42BF41614489467F42B94438E7D7
:1015D0004B46234300D19FE606E6C046FE070000C7
:1015E000FF070000FFFF7FFFFF084B073B43CC08CE
:1015F00016E66246DB08520713436246D40880228F
:101600001203144207D0C808104204D15D460400FA
:10161000FB0849070B435A0FDB005207DB08134353
:10162000FEE50023014A1C0013E5C046FF07000049
:1016300070B5002816D0C317C5185D40C40F280028
:1016400000F030F9114A121A0A2816DC03002E00A5
:1016500015339E400B23181AC54052052D032D0B40
:10166000530D03E000240023002500261B052B4317
:10167000E40723433000190070BD0B388540520544
:101680002D0300262D0B530DF0E7C0461E0400006D
:1016900070B543004602C40FFE201B0E591C750A8C
:1016A00008420CD0E022920094466D07360B63444A
:1016B0001B053343E40723432800190070BD002BAA
:1016C00014D1002D1BD0280000F0ECF80A281CDCF7
:1016D0000B232E001B1ADE40030015339D400E4ADB
:1016E0003603121A5205360B530DE1E7002D09D0CF
:1016F0008022360B1203094B6D071643D8E70023EF
:101700000026D5E70026054BD2E703000B3B9D40A2
:101710002E000025E3E7C04689030000FF07000014
:1017200002004B00F0B55B0D0C033D4E640A400F08
:101730005F1CC90F0443D50037420AD039481E1830
:10174000FE2E16DDFF200024C0052043C9070843F4
:10175000F0BD002B06D12C4326D005229201540A5D
:10176000D8B2F1E72543EDD08020C0030443FF2029
:10177000EAE7002E1BDD9201531E9A41E4006D0F33
:1017800022432A43530748D00F231340042B00D091
:1017900004328023DB0413403FD0701CFE2ED1D0D6
:1017A0009201540AC0B2CFE700200024CCE73200F7
:1017B000173222DB8020000420431E24A41B1F2C90
:1017C0001DDD02225242961B0200F2401600202C20
:1017D00004D0154A94466344984005432A00531E9A
:1017E0009A41324300265307CED180241300E404EB
:1017F000012023402242D3D1B0E70023ADE70B4ABA
:1018000094462A00E24014002A0063449A4098401B
:10181000551EAA4102432243E4E733009EE7C04637
:10182000FE07000080FCFFFFA2FCFFFF82FCFFFF21
:10183000844608006146FFE71FB500F0BDF80028A8
:1018400001D40021C8421FBD10B500F049F8404244
:10185000013010BD10B500F0AFF8002801DB00200A
:1018600010BD012010BDC04610B500F0A5F800283D
:1018700001DD002010BD012010BDC04610B500F0F4
:1018800055F8002801DC002010BD012010BDC04625
:1018900010B500F04BF8002801DA002010BD01203F
:1018A00010BDC0461C2101231B04984201D3000C2B
:1018B00010391B0A984201D3000A08391B099842C3
:1018C00001D30009043902A2105C40187047C046D9
:1018D00004030202010101010000000000000000F9
:1018E00070B5420045024E024C00C30F6D0A012044
:1018F000120E760A240EC90FFF2A06D0FF2C03D041
:10190000A24201D1B54206D070BD002DFCD1FF2C02
:10191000FAD1002EF8D18B4206D00120002AF3D153
:101920002800431E9841EFE70020EDE770B5420024
:1019300045024E024C00C30F6D0A120E760A240EA9
:10194000C80FFF2A1BD0FF2C0ED0002A1BD1002C61
:1019500001D1002E1CD0002D0CD083421CD00221BE
:10196000581E0840013870BD002E22D1002AF4D143
:10197000002DF2D10028F6D101204042F3E7002DDE
:1019800017D1FF2CF0D0002CE7D1002EE5D1E6E7EF
:101990000020002DE7D0E2E7A24205DCEADBB542F9
:1019A00002D8E7D30020DEE7434258414000013827
:1019B000D9E702204042D6E770B5420045024E0208
:1019C0004C00C30F6D0A120E760A240EC80FFF2AB0
:1019D0000BD0FF2C0DD0002A1FD1002C16D1002EC9
:1019E00014D10020002D10D009E0002D0CD1FF2CC7
:1019F00013D1002E08D1002A08D0834212D0022130
:101A0000581E0840013800E0022070BD002DF4D1BE
:101A10000028FAD101204042F7E7002CEDD1002E3A
:101A2000EBD1ECE7A24205DCF2DBB54202D8EFD302
:101A30000020EAE74342584140000138E5E7C0464C
:101A40000123494970B50A689A431A430A600A6833
:101A50001A42FCD08020454A4549146800010C40D8
:101A60002043444C10602068034323600423206813
:101A70001842FCD063684048184080235B01034350
:101A80006360802310685B0003431360C022236DF2
:101A90009202134080225202934208D08022236D8A
:101AA00012031A432265226D344B1A402265236DBE
:101AB0000B4023658023226D5B0013432365802345
:101AC0009B00226D1A42FCD0C023226D9B021A405B
:101AD00080235B029A4204D0226D29490A401343B5
:101AE00023658023226DDB0213432365E368254AC7
:101AF0001A408823DB031343E360802322685B04DE
:101B00001343236080239B0422681A42FCD0F022F6
:101B1000E3689343E360E3681B4A1340E360E368D0
:101B20001A4A13400322E360E3681343E3600C2383
:101B3000E5681D400C2DFBD1154800F01BFC144836
:101B400000F03EFC0322E36C9343E364E36C114A30
:101B5000AB43E364E36C1340C022E364E36C120321
:101B60001343E36470BDC046002002400070004093
:101B7000FFE7FFFF00100240FFE0FFFFFFFFF7FF5E
:101B8000FFFFFCFFFFFF02FFFFF8FFFFFFC7FFFFA4
:101B90000048E801FFCFFFFF07B501201A4B596B42
:101BA0000143596380215A6B490502400192019A11
:101BB0009A6B0A439A63C0229B6B12060B4013492F
:101BC0000093009B0B6A1B021B0A13430B62FFF777
:101BD00037FF00F041F800F0D5F800F075FA00F09A
:101BE0002FFA00F067F900F007F9C021084B8900CF
:101BF0005A58084802405A5004221A6000F084FFE4
:101C000000F0BAFFFCE7C0460010024000ED00E023
:101C100000E100E0FFFF00FF30B50023802410004A
:101C2000054A834200DB30BDD5692542FCD0CD5C3E
:101C300001339562F5E7C04600380140054B82B09C
:101C4000DA6A0243DA62DB6A18400190019B02B053
:101C50007047C04600100240F0B587B0182200213E
:101C6000684601F060FE0420FFF7E8FF0120FFF75F
:101C7000E5FFA02502208027FFF7E0FF02230024D4
:101C80000126ED057F00AB626946AF622800009334
:101C9000019602940394049400F040FA69462800E7
:101CA0000097019602940394049400F037FA07B069
:101CB000F0BD0000F0B50024022691B0294D1C2291
:101CC000002109A801F02FFE0794EB6A0127334396
:101CD000EB62EB6A03A933400293029B4023224844
:101CE00003933D3B059304960697089700F016FA78
:101CF000802303A903931C487D3B05930496069714
:101D00000794089700F00AFA8021AA6B89030A4316
:101D1000AA63AB6B154D0B400193019B80236A684E
:101D20009B0413436B60EB68114A28001340EB607F
:101D30002B68104A09A913402B602B680E4A1340E8
:101D40002B600E4B09940A930B940C940D940E94F3
:101D50000F9400F03BFBEB68094A1340EB6011B0B5
:101D6000F0BDC04600100240000400500054004086
:101D7000FF7FFFFFFFFFF7FFFFFFFDFF380F300082
:101D800001F8FFFF30B5002487B02100082201A828
:101D9000039401F0C8FD8023154ADB02116D009405
:101DA0000B4313657F23134D049303A9803328004D
:101DB000059300F06FFB6B4621001C8101AA2800EF
:101DC0009C7200F0D9FB6A46012321001370537006
:101DD000937028001533D37000F036FC0722AB68EF
:101DE00093431A0006231343AB6007B030BDC046CF
:101DF0000010024000280040F0B591B01C220021E4
:101E000009A801F090FD0822002106A801F08BFD31
:101E100080200124244BC001596BA0250143596344
:101E20005A6B022702400292029ADA6A0326224380
:101E3000DA62DB6AED0523400193019B80239B005E
:101E40000393FD3BFF3B03A92800059608930497E5
:101E500000F064F98023DB00039305960423002639
:101E600003A92800089304970696079600F056F9F0
:101E7000E1235B0209930C230C4D09A928000D9363
:101E80000A960B960C960E960F9600F049FC6B681E
:101E9000074A13402A226B60AB689343AB602B6800
:101EA0001C432C6011B0F0BD00100240003801400E
:101EB000FFB7FFFFF0B5082791B01C22002109A849
:101EC00001F031FD3A00002106A801F02CFD802030
:101ED0004E4B8002996BA0250143996301219A6BB7
:101EE000042402400292029ADA6A02260A43DA6263
:101EF000DB6A03AA0B400193019B0323ED0511004C
:101F00002800039404960593089400F007F903232E
:101F100004960026059303AB190028000397089444
:101F20000696079600F0FAF839493A4A0B683A4D96
:101F30001A408023DB0213430B60384B38481A6881
:101F400084462A401A601A683C34024020201A60F5
:101F50001A6882431A601A68A2431A6080221868BD
:101F6000304C9043104318601868204018601F6878
:101F70002D4807401F600B682C4F1F408023DB015A
:101F80003B430B602A4B674619680D4010210D43F7
:101F90001D6020251968394019601968A943196026
:101FA00019686D19A9431960196891430A431A60A9
:101FB0001A68C72114401C601A6889001040186014
:101FC000FF201C4B1C4C5A5882435A508022520509
:101FD0001A60E1235B0209930C230D9309AB1900EE
:101FE00020000A960B960C960E960F9600F098FB22
:101FF0006368124A012113402A226360A368934355
:10200000A36023680B43236011B0F0BD00100240B1
:10201000A8000240FFFFF0FFEFBFFFFF58000240A3
:10202000FFCFFFFFFFFCFFFFFFF3FFFFFF0FFFFFEF
:102030004400024000E100E000440040FFB7FFFF21
:102040008022184B1206996B82B00A43C3219A630F
:102050009B6B8900DB0FDB070193019B124B13483D
:102060005A5802405A508022012192011A60104BA6
:10207000DA688A43DA60DA680E490A40DA60DA68B8
:102080000D490A40DA60DA680C490A40DA60DA6819
:102090000B490A40DA60DA680A490A40DA6002B09D
:1020A0007047C0460010024000E100E0FF00FFFF63
:1020B000007C0040FFF1FFFFFFFFDFFFFFFFBFFFDE
:1020C000FFFF7FFFFFFFF9FF01200A4A82B0116B7B
:1020D00001431163C221136B074A03400193890036
:1020E000019B53581B021B0A535080231B01136092
:1020F00002B070470010024000E100E0FEE7FEE79A
:102100007047704770477047704710B500F0A4FCE7
:1021100010BD10B501F04AFB10BD7047F7B50023A4
:1021200002000C6800932000009BD84000D1FEBD47
:102130000120009B984023000340044231D04868AE
:1021400003250190180058434543019EED43771E37
:10215000012F0BD88F68966847432E40374397600E
:102160005768CE68A74374433C4354600C69D768F2
:1021700044432F403C43D460019C022C0BD14F6957
:10218000FF2B11D804000F26444366437C43136A97
:10219000B34323431362019C136860432B40034302
:1021A0001360009B0133BCE70F261B0A5B435B43B4
:1021B0005E437B43546AB4431C435462EBE7000024
:1021C000024B18684007C00F7047C046001002401D
:1021D000024B186D8005C00F7047C04600100240CA
:1021E000024B1868C006C00F7047C046001002407E
:1021F000034B044ADB681B061B0FD35CD8407047B7
:1022000000100240C44F0008034B044ADB685B0522
:102210005B0FD35CD840704700100240D44F0008D9
:102220000C2210B51D4CE3681340082B33D00BD89B
:10223000002B01D0042B22D08020636800021B04F5
:102240005B0F0133984023E00C2BF5D1E368DB03EF
:102250001FD4FFF7C5FF431E9841114B4042184061
:10226000104BC018E368104AE1689B021B0FD35C57
:102270000902890F58430131FDF75AFF08E0FFF7C3
:10228000AFFF431E9841064B40421840054BC01813
:1022900010BD0648E6E70548FAE7C04600100240D0
:1022A00000E548FF0024F400DC4F000800127A002B
:1022B00010B5032827D1254CE36C0340C0208002D1
:1022C0001843234B984236D0224B984209D0224BD8
:1022D00098420DD1FFF7A4FF10BD0020FCE71F4876
:1022E000FAE7FFF775FF0028F7D080200002F3E738
:1022F000FFF796FFFFF77CFFE368194A9B045B0F2B
:10230000D35CD840E8E70C28E7D1104BDB6C0340E6
:10231000C02000031843134B98420CD0124B984234
:10232000DFD0124B9842D5D0FFF77AFFFFF760FF5E
:10233000FFF76AFFD0E7FFF743FF0028CDD0FFF794
:102340004FFF0028CBD00A48C6E7C0460010024025
:102350000200030003000300010003000024F40056
:10236000D44F000808000C000C000C0004000C0006
:1023700000093D00FA2110B58900FDF7D9FE0022C1
:10238000034B013858609A6005321A6010BDC04690
:1023900010E000E0094A82B013680193019B431CDE
:1023A000591E8B41C01880235B02002801D102B066
:1023B000704711681942F8D00138F6E710E000E0E4
:1023C000014B18607047C0460000002001220368DE
:1023D00030B593430360CB688D681B0204682B43C0
:1023E000144D2C40234303604B68134C0361036876
:1023F0000D691A43026083688A6923408360836899
:102400002A43DB0ADB021A438260002D04D08023BA
:1024100082681B02134383600268084B1A400B68F2
:102420001A43026043684A69234013434360002013
:1024300030BDC046FFE0FFFFFF7FFFFFFFFFCFFF84
:10244000FA2373B59B000193C368020000205B066A
:102450000ED40123012180255B42D360D3680C4C4C
:102460009B090B406D02019E002E01D0012B00D173
:1024700076BD23682B4202D0019B013B0193D368B8
:10248000019E9B090B40002EEDD10800EBE7C046F2
:1024900010E000E0CA2370B54362773B436204005A
:1024A0000D00FFF7CDFF012816D04022A3680020C1
:1024B00093432A681343A3602369AA68DB0BDB03F9
:1024C0001343236121696B68054A1B040A401343C7
:1024D000236181235B42E360FF23636270BDC046DA
:1024E000FFFF80FFFA2373B580219B000193C3682F
:1024F00080251940A1235B420B43C3600121C368BF
:10250000020000205B091B4C0B406D02019E002E57
:1025100011D101280ED0FA23012180259B000193BF
:10252000D368144C5B090B406D02019E002E01D054
:10253000012B10D176BD002BEBD023682B4202D0AB
:10254000019B013B0193D368019E5B090B40002E68
:10255000DCD10800DAE723682B4202D0019B013B63
:102560000193D368019E5B090B40002EDDD108006A
:10257000DBE7C04610E000E04023F0B515008268BC
:1025800004000F0085B01A4201D100232B60CA233A
:102590006362773B20006362FFF752FF01281DD082
:1025A0002B6802936B792E790193AD79002F19D0A6
:1025B000029B36041D43019B276835431E02214BB5
:1025C00035431F403D43256081235B42E360A368A0
:1025D00000209B0602D42000FFF784FFFF236362E4
:1025E00005B0F0BD23680A2128000393FDF7A0FD84
:1025F0000A2107012800FDF721FE124B3943039FF2
:10260000C9B21F40029B30001F430F430A21FDF750
:102610008FFD0A2105013000FDF710FE01980D43E2
:102620000A21FDF785FDEDB22D042F430A21050196
:102630000198FDF703FE2943C9B209020F43276041
:10264000C2E7C046808080FFF0B504000E00150090
:1026500085B0002906D153781022134202D093434B
:102660000A336B70CA236362773B20006362FFF713
:10267000E7FE01281FD06B78AF780093EB780193C9
:102680002B78264D5B030293002E18D066683540E8
:102690002F431F43019B1E04009B37431E023743F9
:1026A000676081235B42E360A36800209B0602D43D
:1026B0002000FFF717FFFF23636205B0F0BD6368DA
:1026C0000A2138000393FDF733FD0A210601380083
:1026D000FDF7B4FD039B0E431D40029B0A210198A8
:1026E0001D43FDF725FDF6B22E430A210501019891
:1026F000FDF7A4FD00980D430A21FDF719FDEDB289
:102700002D042E430A2105010098FDF797FD29436A
:10271000C9B209020E436660C3E7C046C00000FFAD
:10272000036870B504000D00DB0701D5012070BD02
:102730004B68C96802680B4329690B43A9690B43BD
:102740001A490A40134303604368194A1340AA68B0
:10275000134343608368174A13406A6913438360D5
:10276000154B03209C4203D0144B9C42DED10C201D
:10277000FFF79EFD0028D9D029680029D6D08022F5
:10278000AD694B08120295420BD14000C018FDF70D
:10279000CFFC0B4B03400007400F1843E0600020C4
:1027A000C5E7C018FDF7C4FC80B2F7E7F369FFEF97
:1027B000FFCFFFFFFFFCFFFF003801400044004057
:1027C000F0FF0000F7B5051E30D04079EC880228F4
:1027D0002DD80C3043B20193013C24B26421200077
:1027E000FDF716FE0EB2C82120004900FDF72AFDB4
:1027F0000321EF78013FBF19C019F7170F40BF1928
:10280000BF103F1861312000FDF71CFD1A23400066
:102810003F1A01980A2101305843FDF713FD38187B
:1028200040B207218C30FDF7F3FD2971F7BD43B2AB
:102830000193D2E7F0B52F4C002023788BB0013301
:10284000DBB23B2B02D823700BB0F0BD6278E3788B
:102850000132D2B2E6886579207062703B2A06D9CF
:10286000A27860700132D2B2172A0DD8A270002768
:102870000297627831000192A2781F4800922A00E4
:1028800001F05AF83800DFE7013306AFDBB2A07081
:102890000D22380019490593E37001F03BF8022D31
:1028A00021D1B30707D164213000FDF7C7FC89B2FD
:1028B0001D23002908D1C82130004900FDF7BEFCC6
:1028C0008BB25A4253411C33059A9A4206D90123CE
:1028D000ED18EDB2E3700C2D07D865712000FFF7FD
:1028E00071FF0120B0E77B5DEEE701366371E680A2
:1028F000F4E7C04604000020E54F0008E44E00085D
:102900007F23F0B5FE260F22FC252149214C0F68BC
:10291000F6011F4027700B68AD0333401E0B1B0AE6
:10292000134036011E4366700B6894462B401D0D04
:102930001B0C13402D011D433F23A5704A6887B02F
:102940001340F822E3700593634648685201104033
:10295000020B000A18401201024362714868000429
:10296000400F20714868FF2109040140080D090C3F
:102970001940FA2300010143DB00C918E180059BDF
:10298000029701960095044800F0D6FF07B0F0BD0D
:10299000002800400400002015500008F0B589B060
:1029A00000284BD0437807780593837864210693F9
:1029B0000379C67845790793C4882000FDF73EFC6B
:1029C0008AB2CA211E4B5962773959625439D9608B
:1029D0004131D8680842FCD019681A4812040140F5
:1029E0000698394300040143059800020143196029
:1029F00059681548014007983143400301432802B4
:102A0000014311438122596080215242DA60DA6821
:102A10001140A12252420A43DA602022D9681142B1
:102A2000FCD0FF225A62059B2A000193069B2100DD
:102A3000009306483300029700F07EFF09B0F0BD16
:102A400000280040808080FFC00000FF495000083F
:102A500000487047040000200223204A11681942F0
:102A600023D051680B43536001221D4B1D491A703E
:102A70001D4B1A700B789B18DBB2072B16D80B7006
:102A80001A4A13780133DBB20F2B14D81370184A8B
:102A900013780133DBB21F2B13D81370154A137848
:102AA0000133DBB23F2B12D81370704700230B7039
:102AB000114B1A70E4E70023137001220F4B1A70B8
:102AC000E5E70023137001220D4B1A70E6E700239F
:102AD000137001220B4B1A70E7E7C046007C0040E0
:102AE000BB000020B4000020BC000020B500002086
:102AF000B6000020B7000020B9000020BD00002073
:102B0000B8000020BA000020022210B50124144BA6
:102B100099680A439A601A69124922431A619A69AC
:102B2000120C12040A4306219A611A698A431100A1
:102B300004220A431A6100F03FF800F0D3FB00F0D2
:102B400007FE094B094A0A490A4800F0F5FE00F061
:102B5000D3FB00F0F9FD210000F06AFC10BDC04677
:102B6000007C0040FF0300007D50000889500008F1
:102B700092500008975000080E4B10B51A78002AA2
:102B800017D00022A0211A708022C905486952047A
:102B90000304134080225200824313438B61FFF7EA
:102BA00049FE00F0A9FB00F0CFFD00F065FD00F04C
:102BB0000FF810BDB800002010B500F085F900280E
:102BC00002D1024800F044FF10BDC046B4500008D6
:102BD000F0B589B000F0D0FB029000F0D3FB039079
:102BE000FFF736FF00210400080000F0D5F93F4E42
:102BF000A278310004A800F069FF3D4D01222900B0
:102C000004A800F017FA0021202000F0C5F9394F80
:102C100004A8390000F07AFF0122290004A800F07E
:102C200009FA00212E2000F0B7F93100627804A8DB
:102C300000F04CFF0122290004A800F0FBF900215C
:102C40004E2000F0A9F9390004A800F05FFF01222E
:102C5000290004A800F0EEF900215E2000F09CF9A4
:102C60003100227804A800F031FF0122290004A8D5
:102C700000F0E0F91821082000F08EF9E18863796E
:102C8000E27804A800911C4900F020FF1B4D0122AE
:102C9000290004A800F0CEF92A21042000F07CF9D4
:102CA00002980A21FDF7B4FB0298CCB20A21FDF785
:102CB000C9FA0A21C6B20398FDF7C0FA89B203988F
:102CC00001910A21FDF734FAC0B2230032000090CE
:102CD0000B4904A800F0FAFE0122290004A800F024
:102CE000A9F900F0D7F809B0F0BDC046E4500008DB
:102CF00014000020F8720008DA5000080C000020D0
:102D0000E9500008F8B5FA248026354BA4003602B5
:102D10009F693D00354037420CD0013CA4B2002CE5
:102D2000F6D180225968D2010A432E485A6000F039
:102D30008FFEF8BD5C682C4E344078265C605C6881
:102D4000A40AA40234435C605C68284E34405C6092
:102D50005F68274E541C3E40240434435C6080244A
:102D60005E68A40134435C60FA240126A4009F69D4
:102D700037421DD09862FA20012480009E692642C5
:102D80001BD0FA240126A400A8B290421AD38022B4
:102D90005968D2010A435A608021FA22090292003E
:102DA00098690842C5D0013A92B2002AF8D1B8E732
:102DB000013CA4B2002CDAD1B3E7013880B200287C
:102DC000DCD1AEE7485D986220009F69374201D0B0
:102DD0000135D9E7013880B20028F6D1A1E7C04615
:102DE00000540040A4710008FFFFFFFDFFFBFFFF40
:102DF000FFFF00FF10B5FEF75DFF0123024A1168D7
:102E00000B43136010BDC0460054004007B56B462D
:102E1000D91D087001220020FFF774FF07BD10B50F
:102E20004020FFF76FFF10BD30B504007F2812D897
:102E30003F2910D80E4B0F4D1879CB0800280BD026
:102E4000002A0BD1D80107231940063B8B400019FB
:102E50002A5C13432B5430BD012AF3D0D801072339
:102E6000012219408A4000192B5C9343F2E7C046C7
:102E7000BE000020C4000020002110B5884200D010
:102E8000FF3180220248D20000F04DFD10BDC04647
:102E9000C400002070B5B0240A4D2000FFF7B6FF33
:102EA0000020FFF7B3FF01341020FFF7AFFFE4B2BB
:102EB000290080224020FFF7B2FF8035B82CECD1EA
:102EC00070BDC046C400002010B5FFF793FFAE20D0
:102ED000FFF79CFF2020FFF799FF1020FFF796FFD8
:102EE000B020FFF793FFC820FFF790FF0020FFF707
:102EF0008DFF1020FFF78AFF4020FFF787FF81201A
:102F0000FFF784FFFF20FFF781FFA120FFF77EFF7F
:102F1000A620FFF77BFFA820FFF778FF3F20FFF7F1
:102F200075FFA420FFF772FFD320FFF76FFF00208B
:102F3000FFF76CFFD520FFF769FFF020FFF766FF72
:102F4000D920FFF763FF2220FFF760FFDA20FFF7A9
:102F50005DFF1220FFF75AFFDB20FFF757FF20200D
:102F6000FFF754FF8D20FFF751FF1420FFF74EFFAE
:102F7000AF20FFF74BFF2E20FFF748FF0020FFF7A1
:102F80007BFFFFF787FF00220120024B1A805A8047
:102F9000587110BDBE000020014B18805980704749
:102FA000BE000020F0B585B00292214A0C001388C3
:102FB000050000930B7800995B187F2B07DC538882
:102FC00000260193019A63789B183F2B0EDD0025A4
:102FD00014E02A000027203A534362689B195B00E3
:102FE0009B5A039323789F420BD3013663789E420A
:102FF000EFD3009A2378D3180D4A1380280005B028
:10300000F0BD009B8022D819019B12029919039BE5
:1030100080B2BB4089B2134204D0029AFFF704FF8A
:103020000137DFE7029B5A425A41D2B2F6E7C04667
:10303000BE00002070B504000D00160020780028A6
:1030400000D170BD32002900FFF7ACFF03002078EB
:103050008342F6D10134F1E710B5FEF72BFE0123D0
:10306000024A11680B43136010BDC0460054004073
:10307000FA238022F0B50D0085B08C4C01909B00A6
:103080001202A1690E00164011420ED0013B9BB204
:10309000002BF6D13C21864800F04EFC802362686C
:1030A000DB01134300206360D5E080226368814F19
:1030B0003B40636063689B0A9B02134363606368E1
:1030C0007D4A1340636062687C4B1A4080235B0238
:1030D00013436360802362689B0113436360FA2398
:1030E00001229B00A16911420DD0019B4022A362E5
:1030F000FA239B00A16911420BD1013B9BB2002B2B
:10310000F8D14621C7E7013B9BB2002BEAD144210D
:10311000C1E76420FFF73EF9802263681F406760C3
:1031200063689B0A9B02134363606268624B1A40A8
:103130008023DB00134363606268604B1A40C02346
:103140009B0213436360802362689B0113436360A7
:10315000FA2301229B00A16911420DD0FA2004211B
:10316000800003AA0300A7690F420BD1013B9BB269
:10317000002BF8D152218EE7013B9BB2002BEAD104
:10318000502188E7636AB3540136032EEAD18023C5
:103190006168DB010B4363602023E1690B43E3615A
:1031A0008021FA2309029B00A069084223D108214B
:1031B0003126137858005FB233004340DBB2002F52
:1031C0001FDA0139C9B20029F4D1517831264B40B8
:1031D000082158005FB233004340DBB2002F12DAFF
:1031E0000139C9B20029F4D1917899420DD03448FF
:1031F00000F02EFC52E7013B9BB2002BD4D15821AA
:1032000049E7C3B2DDE7C3B2EAE7108840BA80B24B
:10321000FEF70EFA019BE32B21D02A4B0022FDF78B
:1032200009FCFEF77DFADE218905FDF70FF9264935
:10323000FDF732FA2549FDF709F9FDF7EFF8FA2312
:1032400080B29B00984202D3214B6B8002E0C728DA
:1032500003D96880012005B0F0BDC823F5E71D4AF9
:103260001D4BFDF7E7FBFEF75BFADE218905FDF755
:10327000EDF8FEF70DFA194B194AFDF747FEFEF778
:103280004FFA1249FDF7E2F8FDF7B4FBFA2300B25A
:103290009B00984202DB0E4B2B80DBE70300C83318
:1032A00001DB2880D6E7C8235B42F5E700540040E5
:1032B000D0710008FFFFFFFDFFFBFFFFFFFF00FFD6
:1032C000FC71000800405F400000C0400000204149
:1032D000E7030000D7A3703D0AF76540CC6C474078
:1032E000CDCCCCCC10B5FFF7B7FE024800F0B0FB58
:1032F00010BDC04626720008F7B51C4A137801338A
:10330000DBB2042B01D81370F7BD0023184CE32067
:1033100021001370FFF7ACFE0028F5D00120FFF765
:1033200039F82100E520FFF7A3FE0028ECD06788DC
:103330000A213800FCF7FCFE0023E65EC5B20A2134
:103340003000FDF765F83000CCB20A21FCF77AFFB7
:103350000A21C6B23800FCF771FF89B200912B0038
:1033600022003100034800F0E7FACDE7C404002052
:10337000C604002047720008014B0020185E704709
:10338000C6040020014B58887047C046C604002080
:1033900010B50400044800F05BFBA2780223012A68
:1033A00000D1A371237110BD6073000810B5040033
:1033B000034800F04DFB0123A370237110BDC046EC
:1033C0007E73000810B50400044800F041FB044B74
:1033D000986800F02BFA0323237110BD9F73000837
:1033E0001C00002010B50400054800F031FB054B1F
:1033F000986800F01BFA0023A370237110BDC0462B
:10340000C37300081C00002003003038C0B2092834
:1034100005D91A00413A052A02D8373BD8B270477D
:103420001A00613AFF20052AF9D8573BF6E7000059
:1034300070B504000D0000280FD0A026F605012964
:103440000CD11222002100F06EFA02230748B3616A
:1034500076336371257000F0FBFA70BD0223B3620E
:103460000023437103700248F5E7C046E573000886
:1034700005740008F0B599B0019077480C0000F091
:10348000E7FA0421019B754F19710023089323006B
:103490003A000D3308A800F0E5FA002811DC704866
:1034A00000F0D6FA019BDB79042B00D8CDE0002494
:1034B000019B21001800DC71FFF7BAFF019B5C70D3
:1034C000C1E00BAE3200674B23CB23C223CB23C218
:1034D00000251B681360EBB20293AB00985908A952
:1034E000FCF712FE002803D00135072DF3D1029519
:1034F00002995D4800F020FA029A09AB1A71230084
:103500003A000421113308A800F0ACFA0028C6DD07
:1035100054490BAE342230001C3100F0FBF9002579
:10352000EBB20393AB00985908A9FCF7EDFD002816
:1035300003D001350D2DF3D1039503994B4800F0CD
:10354000FBF9039B09AD607D6B71FFF75DFF0A27F7
:103550000600A07DFFF758FF7E438019C3B2207E8E
:103560000493EB70FFF750FF0600607EFFF74CFFFF
:103570007E438019C3B2E07E0593AB70FFF744FF32
:103580000600207FFFF740FF7E438019C3B2A07F73
:1035900006936B70FFF738FF0600E07FFFF734FFFC
:1035A0007E43A31C8019C2B2D87F07922A70FFF70E
:1035B0002BFFFA270600E31CD87FBF00FFF724FF8C
:1035C0007E436427231D4743D87FFFF71DFF053443
:1035D000F7190600E07FFFF717FF0A235E43BFB22B
:1035E0003F18234BF719BFB2EF80FF18632F00D9A4
:1035F00055E7039B013B0B2B00D950E7049801389A
:103600001E2800D94BE7029B072B00D147E7059BFB
:10361000172B00D943E7069B3B2B00D93FE7079BBD
:103620003B2B00D93BE70198290008220A3000F023
:1036300071F90523019A0F48137100F009FA00216E
:103640000198FFF7F5FE19B0F0BD019A0133D3716F
:1036500002231372F7E7C046267400084974000875
:103660004C740008F44E0008737400088E7400084F
:1036700030F8FFFFAA74000870B5041E3ED04378EE
:10368000012B07D08378012B04D0C378022B27D9D4
:10369000012343706179002907D00139C9B26171F2
:1036A000002902D12000FFF7C3FE237A002B08D0A7
:1036B000013BDBB22372002B03D1114B186900F0E0
:1036C000B5F8A379002B19D0013BDBB2A371002B15
:1036D00014D10B4BD86800F0A9F8022323720DE037
:1036E000074D9B00585900F0A1F8E37805489B006E
:1036F000595900F021F9E3780133E37070BDC046F9
:103700001C000020D7740008F8B504000D00002844
:1037100011D0081E0FD000260A4F7968280000F04B
:10372000FDF9011E08D00C235E43064B20009E19B4
:10373000B36898472079F8BD01360C37052EECD1D7
:10374000F8E7C046F874000800487047CA04002033
:10375000C821124B124A30B59A60124ADA605A6890
:10376000120C12040A435A60EFF31084012282F310
:10377000108810200C490D682843086084F31088D5
:10378000EFF3108482F3108840208D68284388600E
:1037900084F3108819680A431A6030BD580002404B
:1037A00024440040E00400200044004070B5FFF7CE
:1037B000CBFF1022184B0400D96911422BD00121F4
:1037C0001A62164B1A688A431A605A68C8239B1AF1
:1037D000134A53808022134B52025A608022D20235
:1037E0005A60802292025A60802212035A60FFF7C8
:1037F000AFFF0D4D20002900FFF786FF052805D1FA
:1038000020000A30FFF7CAF8FFF77AF8C822002133
:10381000280000F088F870BD0044004058000240C5
:10382000DC04002000000240E00400200FB4F0B5EA
:10383000B5B03AAA02CA02AC2000019200F09AF98F
:10384000002811DDFA26002240250A49B600A35CB3
:103850008B623300CF692F4203D1013B9BB2002B17
:10386000F8D101329042F2D135B0F0BC08BC04B0BE
:103870001847C046004400400D4885460D480E4993
:103880000E4A002302E0D458C4500433C4188C42BA
:10389000F9D30B4A0B4C002301E013600432A2421F
:1038A000FBD3FEF73AFC00F011F8FEF775F9FEE7DE
:1038B000002000200000002098000020D47500089F
:1038C00098000020BC050020FEE7000070B500262F
:1038D0000C4D0D4C641BA410A64209D1002601F02A
:1038E000F5FA0A4D0A4C641BA410A64205D170BD1E
:1038F000B300EB5898470136EEE7B300EB58984712
:103900000136F2E7CC750008CC750008CC750008CC
:10391000D0750008002310B59A4200D110BDCC5CD0
:10392000C4540133F8E703008218934200D1704772
:1039300019700133F9E700000FB40B4B13B51C6885
:10394000002C05D0A369002B02D1200000F01AFB47
:1039500005AB2000049AA168019300F08FFE16BC0D
:1039600008BC04B01847C0463400002070B50500FC
:103970000E00002804D08369002B01D100F002FB67
:10398000AB69AC68002B02D1280000F0FBFA2D4B8C
:103990009C4222D16C68636EDB0705D4A3899B052A
:1039A00002D4A06D00F08FFBA3891B0702D5236909
:1039B000002B29D12100280000F03EF9002823D057
:1039C00001256D42636EDB0705D4A3899B0502D4F4
:1039D000A06D00F079FB280070BD1B4B9C4201D10B
:1039E000AC68D8E7194B9C42D5D1EC68D3E70136D7
:1039F000A360002B04DAA2699A4216DC0A2914D0CB
:103A000023685A1C22601970A3683178013B002991
:103A1000EDD1A360002B0FDA280022000A3100F05C
:103A2000B5F80A25431CCDD1CAE72200280000F0D2
:103A3000ADF8431CE8D1C3E70A2523685A1C22606D
:103A40001D70BFE7587500087875000838750008C4
:103A500010B5034B01001868FFF788FF10BDC04682
:103A6000340000200CB430B5174B0C001D689DB01D
:103A7000002908DA8B2301202B6040421DB030BCA6
:103A800008BC02B0184782236A469B009382002339
:103A900002900690994200D04B1E04930793012395
:103AA0006A465B42D382280021AB209A02A9019387
:103AB00000F0BCFC431C01DA8B232B60002CDDD012
:103AC0000023029A1370D9E7340000200EB400B529
:103AD0000B499CB01DAB02900690079104910948D8
:103AE000094904CB0591006802A9019300F09EFCEE
:103AF0000023029A13701CB008BC03B01847C046DC
:103B0000FFFFFF7F340000200802FFFF03000A7858
:103B100001311A700133002AF9D170470A7830B5A3
:103B2000002A0CD130BD9A4208D10123CC5C002C74
:103B3000F8D0C55CA54201D10133F7E70130037825
:103B4000002BF0D11800EDE700B59BB00091049177
:103B500006490591029106490391694600F066FC09
:103B60000023009A13701BB000BDC046FFFFFF7F0B
:103B70000802FFFF10B513000A00010002480068A8
:103B8000FFF7E2FF10BDC04634000020F8B5050085
:103B90000E001400002804D08369002B01D100F02E
:103BA000F1F9224B9C422ED16C68A369A360A389D2
:103BB0001B0732D52369002B2FD023682269F7B267
:103BC000981A6369F6B2834205DC2100280000F0F0
:103BD00037F9002827D1A3680130013BA36023688F
:103BE0005A1C22601F706369834204D0A389DB07DB
:103BF00007D50A2E05D12100280000F021F9002860
:103C000011D13000F8BD0A4B9C4201D1AC68CCE721
:103C1000084B9C42C9D1EC68C7E72100280000F09E
:103C20000BF80028C9D001267642EAE7587500084B
:103C30007875000838750008374B70B51D680600A8
:103C40000C00002D05D0AB69002B02D1280000F03C
:103C500099F9324B9C420FD16C680C23E25E93B20F
:103C600011072DD4D90611D409230120336037332D
:103C70001343A381404270BD294B9C4201D1AC68E3
:103C8000EBE7284B9C42E8D1EC68E6E75B0713D5ED
:103C9000616B002908D023004433994202D03000E0
:103CA00000F080FA002363632422A3899343A38155
:103CB00000236360236923600823A2891343A3813F
:103CC0002369002B0BD1A0218022A38989009200B7
:103CD0000B40934203D02100300000F01FFA0C2269
:103CE000A35E01201A0099B2024003420FD00022C5
:103CF000A26062695242A261002022698242BAD166
:103D00000A06B8D540221343A3810138B3E78807D8
:103D100000D46269A260EFE7340000205875000803
:103D20007875000838750008F7B58B8905000C0018
:103D30001A075FD44A68002A04DC0A6C002A01DCF6
:103D40000020FEBDE76A002FFAD0002280212E68F5
:103D50002A601A0049010A400B4234D0606DA389E1
:103D60005B0706D56368C01A636B002B01D0236C18
:103D7000C01A0200216A00232800E76AB847A18917
:103D8000431C06D12B681D2B31D82C4ADA40D307AF
:103D90002DD50023636023692360CB0405D5431C24
:103DA00002D12B68002B00D16065616B2E60002969
:103DB000C6D023004433994202D0280000F0F2F923
:103DC00000206063BDE701232800216AB847431C37
:103DD000C5D12B68002BC2D01D2B01D0162B01D1D1
:103DE0002E60ADE74023A2891343A381A9E74023B6
:103DF0000B43FAE70F69002FA2D00A680F60D21BAD
:103E0000019200229B0700D14A69A260019B002B0E
:103E100000DC95E73A002800019B216AA66AB047BA
:103E2000002806DC40230120A28940421343A381DD
:103E300087E7019B3F181B1A0193E7E70100402029
:103E40000B6970B505000C00002B02D1002528007D
:103E500070BD002804D08369002B01D100F092F8D6
:103E6000144B9C421BD16C680C22A35E002BEDD03E
:103E7000626ED20704D49B0502D4A06D00F023F932
:103E800028002100FFF750FF636E0500DB07DED43A
:103E9000A3899B05DBD4A06D00F016F9D7E7064B8C
:103EA0009C4201D1AC68DFE7044B9C42DCD1EC685A
:103EB000DAE7C046587500087875000838750008BC
:103EC000002310B504000360436083608181436672
:103ED0001900C28103614361836108225C30FFF7EE
:103EE00022FD054B24626362044BA362044BE36230
:103EF000044B236310BDC046194C0008414C000818
:103F0000794C0008A54C000810B5024900F0BAF839
:103F100010BDC046413E000870B568254A1E554395
:103F20000E002900743100F0A9F9041E08D0002108
:103F30002A00016046600C30A0606832FFF7F3FC95
:103F4000200070BD10B5024800F0BDF810BDC0469D
:103F5000A905002010B5024800F0B6F810BDC04613
:103F6000A905002010B5024800F0ADF810BDC0460C
:103F7000AA05002010B5024800F0A6F810BDC04602
:103F8000AA05002013B50400FFF7ECFFA369002B7E
:103F900002D0FFF7EFFF13BDA364E3642365134B67
:103FA000134A1B68A2620193A34201D10123A361BA
:103FB000200000F01FF86060200000F01BF8A060F7
:103FC000200000F017F800220421E0606068FFF78D
:103FD00077FF01220921A068FFF772FF0222122158
:103FE000E068FFF76DFF0123A361D2E73475000895
:103FF000093F0008F8B50700FFF7A4FF1F4B1E6834
:10400000B369002B02D13000FFF7BCFF4836B4681B
:104010007368013B04D53368002B22D03668F6E77D
:104020000C22A55E002D1AD12000154B5830E360FC
:10403000656600F047F8FFF78DFF20000822290091
:104040002560A560656025616561A5615C30FFF74D
:104050006AFC6563A563A564E5642000F8BD683467
:10406000D7E704213800FFF757FF041E3060D5D191
:10407000FFF770FF0C233B60EFE7C0463475000884
:104080000100FFFFF7B50400060000270191483446
:104090006368A5680093009B013B009304D52468E6
:1040A000002CF5D13800FEBDAB89012B08D90E22BA
:1040B000AB5E013304D029003000019B98470743D1
:1040C0006835E8E7704770477047000070B50E002C
:1040D0001D000E23C95E140096B0002908DA0C22D8
:1040E000B35E00222A601B0611D48023DB000FE0A0
:1040F0006A4600F003FE0028F1DBF02301991B0261
:104100001940054BC9184B4259412960EDE740233E
:104110000020236016B070BD00E0FFFFF7B5022657
:104120008B8905000C00334206D0230047332360FF
:10413000236101236361F7BD6A4601ABFFF7C6FF48
:1041400000990700280000F099F8002808D10C22F7
:10415000A35E9A05EFD4032293431E43A681E4E7AE
:104160000F4BAB628023A28920601343A381009B85
:1041700020616361019B002B0DD028000E23E15EBE
:1041800000F0CEFD002806D00322A38993431A0035
:1041900001231343A381A0890743A781CBE7C0462E
:1041A000093F000870B50500002910D00C1F2368D6
:1041B000002B00DAE418280000F0F6FD1D4A136811
:1041C000002B05D163601460280000F0F5FD70BD80
:1041D000A34208D9216860188342F3D118685B684C
:1041E00041182160EEE71A005B68002B01D0A34262
:1041F000F9D911685018A0420BD12068091850183D
:1042000011608342E0D118685B6841181160536007
:10421000DAE7A04202D90C232B60D5E721686018A9
:10422000834203D118685B68411821606360546061
:10423000CAE7C046AC05002070B50F4E0D003168CE
:104240000400002902D100F0D5FC306029002000D4
:1042500000F0D0FC431C0AD00323C51C9D43A84298
:1042600007D0291A200000F0C5FC431C01D101250C
:104270006D42280070BDC046B0050020F7B503228E
:10428000CB1C9343083306001F000C2B32D20C27A3
:10429000B94231D8300000F087FD324D2B681C0048
:1042A000002C2ED139003000FFF7C6FF0400431C5C
:1042B0001ED12C682500002D4AD123682900E3185F
:1042C0003000019300F096FC019B834243D12368A8
:1042D0000337FF1A03239F4308370C2F00D20C2704
:1042E00039003000FFF7A8FF431C34D02368DF19E2
:1042F000276013E0002BCBDA0C2300253360280065
:10430000FEBD2268D11B20D40B2917D9E2192760E2
:10431000A34211D12A606368116053603000250008
:1043200000F04AFD07220B35231D9543EA1A9D42F2
:10433000E5D05B1BA350E2E75A60ECE76268A3425A
:1043400001D12A60EAE75A60E8E723006468A7E73A
:104350002C006D68AFE70C233000336000F02CFDBB
:10436000CDE7C046AC050020F0B58E6885B00700EB
:104370000C00039201939E423CD890238A89DB0073
:104380001A4234D00969236860695B1A02930323D7
:104390004343DD0FED18019B029801331B186D108C
:1043A000AB4200D91D00530532D529003800FFF774
:1043B00065FF061E09D10C233B6040230120A28922
:1043C00040421343A38105B0F0BD029A2169FFF773
:1043D000A1FAA389144A1A4080231343A381029BA4
:1043E0002661F61826606561019EED1AA560019BA5
:1043F0009E4200D9019E32000399206800F0C1FC62
:10440000A36800209B1BA36023689E192660DAE73F
:104410002A00380000F0D8FC061EE0D138002169DF
:10442000FFF7C0FEC7E7C0467FFBFFFFF0B5A1B0B6
:1044300003901D008B890F0016001B0611D50B6918
:10444000002B0ED14021FFF719FF3860386100289A
:1044500005D10C23039A0138136021B0F0BD40232D
:104460007B61002308AC6361203363761033A3764D
:10447000079535002B78002B01D0252B47D1AB1B9E
:104480000593B5420CD0320039000398FFF76CFF5A
:10449000431C00D1AEE06269059B944663446361AE
:1044A0002B78002B00D1A5E001220023524262604C
:1044B00004A9543252186E1C2360E360A360137089
:1044C000A36505223178544800F050FC751C002883
:1044D0001FD12268D30604D5532304A95B182021D9
:1044E0001970130704D5532304A95B182B211970E5
:1044F00033782A2B16D0350000210A20E3682A7869
:104500006E1C303A092A4ED9002911D117E0013525
:10451000B0E7414B2268C01A0123834013432E00A9
:104520002360CEE7079B191D1B680791002B01DB59
:104530000B9304E05B42E3600223134323602B7878
:104540002E2B0AD16B782A2B35D1079B02351A1DE9
:104550001B680792002B2BDB0993304E032230009F
:10456000297800F003FC002806D04023801B8340FC
:1045700022680135134323602978062228486E1CDF
:10458000217600F0F3FB00283CD0264B002B25D1F0
:104590000722079B07339343083307936369049A01
:1045A0009B18636165E74343350001219B18A6E72B
:1045B00001235B42D0E700230A201A000135636023
:1045C00029786E1C3039092903D9002BC5D00992EE
:1045D000C3E74243350001235218F1E707AB0093CC
:1045E0003A002100104B039800E000BF0490049BA8
:1045F0000133D3D1BB890D985B0600D42DE7012090
:1046000040422AE707AB00933A002100064B03988B
:1046100000F0DEF9EAE7C046987500089E750008CC
:10462000A27500080000000069430008936810B5F7
:10463000013B9360002B04DA9469A34207DB0A294B
:1046400005D01368581C10601970080010BDFFF7E2
:104650009DFA0100F9E7F8B506000F001400D5181F
:10466000AC4201D1002007E021783A003000FFF78A
:10467000DDFF0134431CF3D1F8BD0000F0B5A1B05B
:1046800006000C001F000392002804D08369002B51
:1046900001D1FFF777FC8E4B9C421CD17468636E8E
:1046A000DB0705D4A3899B0502D4A06DFFF70BFDA2
:1046B000A3891B0702D52369002B1DD121003000DF
:1046C000FFF7BAFA002817D0636EDB070DD501207B
:1046D000404221B0F0BD7F4B9C4201D1B468DEE77F
:1046E0007D4B9C42DBD1F468D9E7A3899B05EED4CE
:1046F000A06DFFF7E9FCEAE7002308AD6B6120330A
:104700006B761033AB760797039F3B78002B01D075
:10471000252B4ED1039BFB1A0593039B9F420DD083
:10472000059B21003000039AFFF795FF431C00D141
:10473000B5E06A69059B944663446B613B78002B46
:1047400000D1ACE001227B1C0393002352426A603B
:1047500004A9543252182B60EB60AB601370AB6548
:10476000039B052219785D4800F000FB039B5F1C4A
:10477000002820D12A68D30604D5532304A95B1846
:1047800020211970130704D5532304A95B182B218A
:104790001970039B1B782A2B16D00021EB68039F0E
:1047A0003A78781C303A8446092A4FD9002911D129
:1047B00017E00137A9E7494B2A68C01A0123834053
:1047C00013432B600397CBE7079B191D1B680791C9
:1047D000002B01DB0B9304E05B42EB6002231343ED
:1047E0002B603B782E2B0AD17B782A2B37D1079B65
:1047F00002371A1D1B680792002B2DDB0993032239
:104800003978374800F0B2FA002807D0344B2A68CC
:10481000C01A40238340134301372B6039787B1C37
:10482000062230480393297600F0A0FA002845D0EC
:104830002D4B002B27D10722079B073393430833C7
:1048400007936B69049A9B186B615DE70A214B43E0
:1048500067469B180939A3E701235B42CEE7002393
:104860001A0001376B603978781C30398446092981
:1048700003D9002BC3D00992C1E70A235A436746E4
:104880005218093BEFE707AB0093220029003000E4
:10489000164B00E000BF0490049B0133D1D1636E3E
:1048A000DB0705D4A3899B0502D4A06DFFF70CFCA0
:1048B000A3895B0600D50AE70D980AE707AB0093CA
:1048C000220029003000094B00F082F8E3E7C046DF
:1048D0005875000878750008387500089875000844
:1048E0009E750008A27500080000000057460008E9
:1048F000F7B5150001938A680B690C00009093428C
:1049000000DA130022002B6043321278002A01D013
:1049100001332B6023689B0602D52B6802332B6082
:104920002268062317001F401A4227D02300433372
:104930001B785A1E93412268920630D422000199B6
:104940000098089E4332B047431C25D006232068B8
:104950002A68E16800250340042B03D18D1AEB433C
:10496000DB171D40A3682269934201DD9B1AED18F5
:104970000027BD4220D1002010E00137E3682A68FB
:104980009B1ABB42D2DD2200012301990098089EA8
:104990001932B047431CF0D101204042FEBD302007
:1049A000E1184331087021005A1C45310978A218DA
:1049B000433202331170C1E72200012301990098AC
:1049C000089E1A32B047431CE6D00137D1E70000F9
:1049D000F0B58BB006920A0043320793059004921B
:1049E0000A7E0C00109B782A07D8622A09D8002A70
:1049F00000D1C1E0582A00D18CE026004236327046
:104A000022E0100063381528F7D8FBF787FB160063
:104A10001F00F6FFF6FFF6FFF6FF1F00F6FFF6FF9A
:104A2000F6FFF6FFA80036009A00F6FFF6FFB90081
:104A3000F6FF3600F6FFF6FF9E0026001A684236A3
:104A4000111D1960136833700123A7E00868196805
:104A50000A1D05060BD50D681A60002D03DA2D23FB
:104A6000049A6D421370614B0A2703931BE00D6893
:104A70001A604106F1D52DB2EFE70D681968081DDF
:104A800018602E0601D50D6803E06D06FBD50D6894
:104A9000ADB2564B082703936F2A00D0023723008C
:104AA000002243331A706368A360002B03DB0422E7
:104AB000216891432160002D02D1049E002B0CD06F
:104AC000049E28003900FBF7B9FB039B013E5B5CA9
:104AD00033702B0005009F42F3D9082F09D12368BA
:104AE000DB0706D563682269934202DC3023013E6E
:104AF0003370049B9B1B2361079B21000093059847
:104B0000069B09AAFFF7F4FE431C4CD1012040424A
:104B10000BB0F0BD45310A70344A03921A6821681F
:104B200020CA1A60080616D5CB0702D520231943E0
:104B300021601027002DB2D1202322689A432260E1
:104B4000ADE7202209680A4322602200782145321D
:104B50001170274AE1E74806E6D5ADB2E4E71A68E6
:104B60000D68101D4969186013682E0601D519607B
:104B700002E06D06FBD519800023049E2361BBE78C
:104B80001A68111D1960166800213000626800F073
:104B9000EDF8002801D0801B60606368236100236A
:104BA000049A1370A8E72369320006990598079DB7
:104BB000A847431CAAD023689B0715D4099BE0682B
:104BC0009842A5DA1800A3E7220001230699059868
:104BD000079E1932B047431C98D00135E368099A03
:104BE0009B1AAB42F0DCE9E70025F7E7A97500085E
:104BF000BA750008002370B5064D040008002B604C
:104C000000F056F9431C03D12B68002B00D0236021
:104C100070BDC046B405002070B50C000E25495F7C
:104C200000F002F9002803DB636D1B18636570BD9B
:104C3000A389024A1340A381F9E7C046FFEFFFFFB3
:104C4000F8B51F008B8905000C001600DB0505D5A3
:104C50000E23C95E0022022300F074F8A389054ADE
:104C600028001340A38132000E23E15E3B0000F0D8
:104C70001FF8F8BDFFEFFFFF70B50C000E25495F70
:104C800000F060F8A389421C03D1054A1340A381B8
:104C900070BD802252011343A3816065F8E7C046CE
:104CA000FFEFFFFF10B50E23C95E00F015F810BD31
:104CB00070B50400080011001A000023054D2B6098
:104CC000FCF7AAFF431C03D12B68002B00D0236004
:104CD00070BDC046B4050020002370B5064D040029
:104CE00008002B6000F0BCF8431C03D12B68002B9C
:104CF00000D0236070BDC046B4050020002370B50D
:104D0000064D0400080011002B6000F0B1F8431CB0
:104D100003D12B68002B00D0236070BDB4050020A8
:104D2000002370B5064D040008002B6000F0A8F8C1
:104D3000431C03D12B68002B00D0236070BDC046FC
:104D4000B405002070B50400080011001A0000230B
:104D5000054D2B6000F09CF8431C03D12B68002B01
:104D600000D0236070BDC046B4050020C9B28218CF
:104D7000904201D10020704703788B42FBD0013074
:104D8000F6E710B5884202D98B18984203D3002366
:104D900007E08B5C8354013AFBD210BDCC5CC45459
:104DA00001339A42FAD1F8E710B50248FFF78BF9C0
:104DB00010BDC046A805002010B50248FFF784F9D1
:104DC00010BDC046A8050020F7B507000E0014006E
:104DD000002905D11100FFF751FA05002800FEBD9A
:104DE000002A03D1FFF7DEF92500F7E700F030F8DD
:104DF0000190844203D835004308A342EED321003A
:104E00003800FFF73BFA051EE8D0019B22009C42C8
:104E100000D91A0031002800FEF77CFD310038006F
:104E2000FFF7C0F9DAE7000070B5040008001100D0
:104E30001A000023054D2B6000F032F8431C03D10B
:104E40002B68002B00D0236070BDC046B405002045
:104E50000B1F1B68181F002B01DA0B58C018704776
:104E600058220120014B40421A607047B4050020CF
:104E700058220120014B40421A607047B4050020BF
:104E80005822024B00201A607047C046B40500202B
:104E900058220120014B40421A607047B40500209F
:104EA00058220120014B40421A607047B40500208F
:104EB000044A03001068002802D0C318136070472A
:104EC0000148FAE7B8050020C0050020F8B5C04643
:104ED000F8BC08BC9E467047F8B5C046F8BC08BC94
:044EE0009E46704733
:104EE400001F1C1F1E1F1E1F1F1E1F1E1F00000051
:104EF4006C720008707200087472000878720008FE
:104F04007C72000880720008847200089C75000896
:104F1400887200088C72000890720008947200086D
:104F2400987200089C720008A0720008A47200081D
:104F3400A8720008AC720008B0720008B4720008CD
:104F4400F0040008C0040008C0040008BE040008FF
:104F5400C4040008C40400080C060008BE040008C9
:104F6400C40400080C060008C4040008BE040008B9
:104F7400B8050008B8050008B80500084806000888
:104F84001A0B0008D80A0008D80A0008D40A000836
:104F9400DE0A0008DE0A0008EA0D0008D40A000848
:104FA400DE0A0008EA0D0008DE0A0008D40A000838
:104FB4007E0D00087E0D00087E0D0008540E0008CA
:104FC40000000000000000000102030406070809B5
:104FD4000000000001020304030406080C1018205A
:104FE40030496E666F3A20205B636C6F636B5D20A3
:104FF40074696D653A2025642D25642D256420256A
:105004003032643A253032643A25303264200D0A55
:1050140000496E666F3A20205B636C6F636B5D20A2
:105024006765742074696D653A2025642D25642DA7
:10503400256420253032643A253032643A253032F2
:1050440064200D0A00496E666F3A20205B636C6F22
:10505400636B5D207365742074696D653A20256403
:105064002D25642D256420253032643A25303264A0
:105074003A25303264200D0A004E6F762020362007
:10508400323032320031343A32383A303800563124
:10509400303100496E666F3A20205B636F6D6D6F2F
:1050A4006E5D2025732C2025732C2025730D0A009A
:1050B4004572726F723A205B646973706C61795DDA
:1050C400205353443133303620696E69742065723D
:1050D400726F72210D00253032642D253032642D1B
:1050E400253032640025642E253031644320256444
:1050F4002E2530316425250000000000000000004A
:10510400000000000000000000000000000000009B
:105114000000000000000000000000000000000C7F
:10512400000C000C000C000C000C000C000C000C1B
:10513400000C000C0000000C000C0000000000003B
:105144000000001B001B001B001B001B00000000D4
:10515400000000000000000000000000000000004B
:105164000000000000008019801980198019C07F98
:10517400C07F80190033C07FC07F00330033003309
:1051840000330000000000000000001E003F807596
:1051940080650074003C001E000780058065806502
:1051A4008075003F001E0004000400000000007031
:1051B40000D840D8C0D880D900730006000C801BEA
:1051C400C036C066C046C006800300000000000070
:1051D4000000001E003F003300330033001E000CAB
:1051E400C03CC066806380618063C03E801C000058
:1051F400000000000000000C000C000C000C000C6F
:10520400000000000000000000000000000000009A
:105214000000000000000000800000010003000600
:1052240000060004000C000C000C000C000C000C28
:1052340000040006000600030001800000200010A6
:105244000018000C000C000400060006000600060E
:10525400000600060004000C000C001800100020DA
:105264000000000C002D003F001E00330000000071
:10527400000000000000000000000000000000002A
:1052840000000000000000000000000C000C000CF6
:10529400000CC0FFC0FF000C000C000C000C000050
:1052A40000000000000000000000000000000000FA
:1052B40000000000000000000000000000000000EA
:1052C4000000000C000C00040004000800000000B2
:1052D4000000000000000000000000000000001EAC
:1052E400001E00000000000000000000000000009C
:1052F40000000000000000000000000000000000AA
:1053040000000000000000000000000C000C000081
:105314000000000000000003000300030006000674
:1053240000060006000C000C000C000C001800180D
:1053340000180000000000000000001E003F0033C1
:10534400806180618061806D806D80618061806139
:105354000033003F001E00000000000000000006B3
:10536400000E001E00360026000600060006000699
:10537400000600060006000600060000000000000B
:105384000000001E003F8073806180618001000383
:105394000006000C001800300060807F807F000051
:1053A400000000000000001C003E006300630003D6
:1053B400000E000E00038001800180618073003FB5
:1053C400001E00000000000000000006000E000E99
:1053D400001E001E0016003600360066807F807FA7
:1053E4000006000600060000000000000000007F28
:1053F400007F006000600060006E007F80638001B9
:10540400800180618073003F001E000000000000E6
:105414000000001E003F803380610060006E007F4A
:1054240080738061806180618033003F001E0000D2
:10543400000000000000807F807F800100030003E3
:1054440000060006000C000C000C000800180018F0
:1054540000180000000000000000001E003F8063F0
:10546400806180610021001E003F80618061806155
:105474008061003F001E0000000000000000001ECC
:10548400003F00738061806180618073803F801D74
:10549400800180610073003F001E000000000000D6
:1054A40000000000000000000000000C000C0000E0
:1054B40000000000000000000000000C000C0000D0
:1054C40000000000000000000000000000000000D8
:1054D400000C000C00000000000000000000000CA4
:1054E400000C00040004000800000000000000009C
:1054F40080008003000E003800600038000E800336
:105504008000000000000000000000000000000017
:10551400000000000000807F807F00000000807F8A
:10552400807F000000000000000000000000000078
:10553400000000000000000000400070001C000794
:1055440080010007001C0070004000000000000003
:10555400000000000000001F803FC071C060C00058
:10556400C00180030007000E000C000C0000000CBA
:10557400000C0000000000000000001E003F80310D
:1055840080718063806F806D806D806F8067006044
:105594000032003E001C0000000000000000000E6D
:1055A400000E001B001B001B001B80318031803F5C
:1055B400803F8031C060C060C06000000000000017
:1055C4000000007C007E0063006300630063007ED3
:1055D400007E0063806180618063007F007E000044
:1055E400000000000000001E003F80318061006068
:1055F4000060006000600060006080618031003FF6
:10560400001E0000000000000000007C007F00631A
:1056140080638061806180618061806180610063FA
:105624000063007E007C0000000000000000807F1A
:10563400807F0060006000600060007F007F006089
:10564400006000600060807F807F00000000000038
:105654000000807F807F0060006000600060007F49
:10566400007F006000600060006000600060000077
:10567400000000000000001E003F803180610060D7
:105684000060006080638063806180618031803F5E
:10569400001E000000000000000080618061806145
:1056A400806180618061807F807F806180618061B2
:1056B4008061806180610000000000000000003F04
:1056C400003F000C000C000C000C000C000C000C43
:1056D400000C000C000C003F003F00000000000024
:1056E400000080018001800180018001800180012F
:1056F40080018001806180618073003F001E000092
:10570400000000000000C060806100630066006665
:10571400006C0078007C0066006600638061806134
:10572400C060000000000000000000600060006035
:105734000060006000600060006000600060006065
:105744000060807F807F0000000000000000C071C6
:10575400C071C07BC07AC06AC06AC06EC064C060D9
:10576400C060C060C060C060C06000000000000095
:10577400000080718071807980798079806D806D7E
:10578400806D8065806780678067806380630000C8
:10579400000000000000001E003F003380618061B3
:1057A4008061806180618061806180610033003F3D
:1057B400001E0000000000000000007E007F8063E7
:1057C4008061806180618063007F007E0060006092
:1057D4000060006000600000000000000000001E87
:1057E400003F0033806180618061806180618061FD
:1057F400806580670033803F401E00000000000089
:105804000000007E007F8063806180618063007F90
:10581400007E00660063006380618061C0600000F8
:10582400000000000000000E001F803180310030B5
:105834000038001E00078003806180618031003FD2
:10584400001E0000000000000000C0FFC0FF000CAC
:10585400000C000C000C000C000C000C000C000CE4
:10586400000C000C000C000000000000000080612F
:10587400806180618061806180618061806180611C
:10588400806180618073003F001E00000000000002
:105894000000C060C060C060803180318031001B76
:1058A400001B001B001B000E000E000E0004000075
:1058B400000000000000C0C0C0C0C0C0C0C0C0C064
:1058C400C0CC804C804C805E80528052807380615A
:1058D40080610000000000000000C0C080608061A2
:1058E4000033003B001E000C000C001E001F003B98
:1058F40080718061C0C00000000000000000C0C0D2
:105904008061806100330033001E001E000C000C17
:10591400000C000C000C000C000C00000000000047
:105924000000803F803F8001000300030006000C5C
:10593400000C0018001800300060807F807F000099
:1059440000000000000F000F000C000C000C000C05
:10595400000C000C000C000C000C000C000C000CE3
:10596400000C000C000F000F0000001800180018B5
:10597400000C000C000C000C0006000600060006DB
:10598400000300030003000000000000001E001ECE
:1059940000060006000600060006000600060006D3
:1059A400000600060006000600060006001E001E93
:1059B4000000000C000C001E001200330033806154
:1059C40080610000000000000000000000000000F2
:1059D40000000000000000000000000000000000C3
:1059E40000000000000000000000000000000000B3
:1059F40000000000E0FF0000000000380018000C68
:105A04000000000000000000000000000000000092
:105A14000000000000000000000000000000000082
:105A2400000000000000001F803F80618001801F93
:105A3400803F80618063807FC038000000000000E8
:105A440000000060006000600060006E007F8073F2
:105A540080618061806180618073007F006E0000DE
:105A64000000000000000000000000000000001E14
:105A7400003F807380610060006080618073003F3C
:105A8400001E000000000000000080018001800171
:105A94008001801D803F80738061806180618061AE
:105AA4008073803F801D00000000000000000000A3
:105AB400000000000000001E003F00738061807F32
:105AC400807F00608071003F001E00000000000025
