:020000040800F2
:1000000008140020D5000008B5190008A10F000849
:1000100000000000000000000000000000000000E0
:10002000000000000000000000000000F5230008B0
:100030000000000000000000B7190008F7230008C6
:10004000E7000008E7000008611A0008E700000860
:10005000E7000008E7000008E7000008E7000008E4
:1000600000000000E7000008E7000008450F000856
:10007000E70000082D15000800000000E700000858
:1000800000000000E7000008000000000000000081
:10009000E700000800000000E7000008E700000893
:1000A000E7000008E7000008E7000008E700000894
:1000B00019250008E700000800000000000000000B
:1000C0000348854600F048FC00480047CD2D000855
:1000D000081400200448804704480047FEE7FEE774
:1000E000FEE7FEE7FEE7FEE715250008C100000871
:1000F00003460B439B0703D009E008C9121F08C041
:10010000042AFAD203E00B780370401C491C521EEB
:10011000F9D27047D2B201E00270401C491EFBD2F6
:1001200070470022F6E710B513460A460446194602
:10013000FFF7F0FF204610BD30B505462A460B46B6
:1001400010781C78521C5B1C002801D0A042F7D00C
:10015000002C03D0002802D06D1CEFE7284630BDEC
:1001600010B5002200E0521C835C8C5CA34201D1DC
:10017000002BF8D1D8B2E1B2401A10BDF8B5024652
:100180004A40D40F42004B0052085B089A4202D208
:100190000246084611464A0023D0C30D4A00DDB28C
:1001A000120EAD1A202D35DA49020126490AF6054C
:1001B0008A19002C00D0524220214F1B1146B94011
:1001C0002A411018C20D9A4221D0002C17D0012DBF
:1001D00008DCDA05801AD20F8019D207DBB200F0F2
:1001E00076FAF8BDDA05801A012340001B06C01814
:1001F00080185A428018CA0F1043490007E0490886
:10020000C2071143DA05801A80194008801800F0EF
:1002100056FAF8BD61000122511A001BF7E70122CE
:10022000D2075140AAE70122D2075040A6E7024672
:1002300070B54A40D30FDB0740002DD04A002AD0CA
:10024000010E140E000212020919400A520A841803
:10025000E50104465443000A120A2E045043A4192F
:100260004219200CC543AA18120C0125AD03521CDB
:10027000521912047F39240400D0521C104301D4B7
:100280004000491EC2B20C06C0092018401C40089C
:10029000802A02D003E0002070BD40084000002901
:1002A00000DA0020184370BDF0B5074608465840F4
:1002B00087B0C00F049048000E4659004008490816
:1002C000BC1A884105D2384631461E4617460B46B1
:1002D00002465800400810434CD0300D03904005B2
:1002E0005900400D490D0590401A0290402872DADD
:1002F00018030121000B090508430190049800929E
:10030000002805D0019952420020884100920190B6
:10031000029840210A1A0199009800F0ADF90546AB
:100320000C466B4607CB00F0B7F9C0197141039A30
:100330000E0D0023D71756401A467A40164344D074
:10034000049A002A2DD0029A012A039A15DC12057C
:10035000C01A914101263605001C7141D20F059E3D
:10036000D2070093019202962A46234600F0F5F93F
:1003700007B0F0BD38463146FAE71605224A0F4667
:10038000B218C01AB74101210905001C4F410018DD
:100390007F41114618187941E20F10436D196441ED
:1003A00013E0E2076D0815436408C2071443039A7B
:1003B00001261205C01A91413605001C7141CE0775
:1003C000400830434908C01851412A46234600F0EE
:1003D000B7F9CDE7FFE7049801224000C117121AD0
:1003E00000238B4104983146C417381AA141EEE727
:1003F00030B40124E407634030BC55E730B4012435
:10040000E407614030BC4FE70000E0FFF0B51FB4E7
:1004100088B00B990998002448400999C00F4900F9
:1004200049080991C0070B990090490049080B91B0
:1004300009990898A64608431CD00B990A980843C6
:1004400018D0099801244000420D4800410D099838
:1004500024050003000B204309900B980003000BB8
:1004600020430B9050181C4940180022019014465C
:10047000104605E0002001460DB0F0BD032801DA6A
:10048000034600E003239C46C11A0AAE0AE05F005F
:1004900008ADED5B4F00F75B7D430027AA187C4158
:1004A000491C5B1E6145F2DD410004AB5A52210438
:1004B000120C0A43240C401C0828DFDB0198029030
:1004C0000099704601910090059B049A079906983F
:1004D00000F043F9D0E700000DFCFFFF0EB5054921
:1004E0000291002100910A460B46019100F035F976
:1004F00003B000BD33040000C20F410040020123DD
:10050000400ADB05D207090EC0187F2901DA002056
:100510007047962903DC9623591AC84001E09639A2
:100520008840002AF4D040427047C20FD2074000F2
:1005300040080BD0C10D0723DB01C9184002090593
:10054000400A1143C208400711437047002001468A
:100550007047CB0FDB07490010B5490802460A4334
:1005600007D00A0D07240903E401090B121B002A16
:1005700001DC002010BDC900440F0C43C100E0188D
:10058000D205801800F09BF810BD70B50446002914
:1005900003D000202022012310E0002801D00020F9
:1005A000C043C046C0460DE02546D5408D4205D328
:1005B0000D469540641B1D46954040191546521E38
:1005C000002DF1DC214670BD70B5002504462E4695
:1005D000002911D0002C01DA01254442002901DA5A
:1005E000012649422046FFF7D0FFB54200D04042E5
:1005F000002D00D0494270BD002C02DA0121C9074C
:1006000002E0002C00DD03490846C046C0462146F2
:1006100070BD0000FFFFFF7FF0B51FB4064600204D
:1006200082B005464024019100901BE001992246CA
:100630000F46304600F0A2F9049A059B801A9941B2
:1006400010D310461946224600F016F8361A8F418C
:100650000197224601200021009F00F00DF8381874
:100660004D4100902046641E0028DFDC019B00986D
:100670002946324607B0F0BD10B5202A04DB0146FA
:10068000203A9140002010BD914020239C1A03463F
:10069000E3401943904010BD10B5202A06DBCB176C
:1006A0000846203A1041C1170B4306E00B461341A0
:1006B000D0402024A21A91400843194610BD0029B9
:1006C00004DA401C490001D140084000704770B472
:1006D0000024050C05D11024000402D1002921D0EA
:1006E0001124050E01D100020834050F01D10001CB
:1006F000241D850F01D18000A41C002801DB4000CF
:10070000641C002908D020252E1B0D46F540A14071
:1007100000D001212943084301061B1B000ADB1DF1
:1007200002D5002070BC7047DB051818801800291E
:10073000F8DA401C4900F5D170BC40084000704711
:1007400010B5002B08DA0024401C614192185B416F
:100750001A4301D14008400010BDF0B51FB482B06B
:1007600005460C0003D0084602F006FD02E002F048
:1007700003FD20300246009021462846FFF77CFF0B
:10078000049B059A04460F4618431143084314D0AE
:10079000184610431BD0009840210A1A18460599A4
:1007A00000F0ECF805460E46009A05990498FFF70C
:1007B00063FF084305D0012004E02046394607B016
:1007C000F0BD0020C11705430E432C433743009969
:1007D0000E986305401A7905E40A00220C43FD0ACD
:1007E0000A3002D500200146E9E7010510196941E8
:1007F0000C9C0D9D00196941FFF7A2FFDFE7000087
:10080000F0B50C465C4085B0E40FE40703944C005F
:10081000002664085900944649080246029622437D
:1008200021D062460A431ED06200570D4A000E03D3
:100830002303550D012402462C492405781B1B0B6C
:10084000360B401823432643614600901C46501A3D
:10085000B44103D30098401C009002E09218009825
:100860005B41002803DA0020014605B0F0BD0020FE
:10087000012109050746864611E064461D46141B02
:10088000B54106D36546521BB341744607430C433A
:10089000A646CD0740084908284392185B41054603
:1008A0000D43EAD11046184313D060461946504014
:1008B0007140084306D06046101AB34106D20122A7
:1008C000002306E000220123DB0702E00122D243DD
:1008D0005310009874460105381C6141029C039D29
:1008E00000196941FFF72CFFBFE70000FD0300007E
:1008F0004A0009030123090B1B0519430A4B10B5D4
:10090000520D9A4202DA0020014610BD064B3433E4
:100910009A4203DC9A1A00F031F810BD034BD2184A
:10092000FFF7AAFE10BD0000FF030000CDFBFFFF94
:1009300010B5002904DB0124E40740428C41214624
:10094000002B04DB1C460123DB075242A3419942E2
:1009500000D1904210BD0000064C0125064E05E076
:10096000E36807CC2B430C3C98471034B442F7D3D0
:10097000FFF7AAFB6C5D00088C5D000810B5202A0B
:1009800004DB0846203AD040002110BD0B46D3407E
:10099000D0402024A21A91400843194610BD0146B8
:1009A0003039CAB20A2A10D301464139C9B20529E1
:1009B00001D8373808E001466139C9B2062902D3A7
:1009C0000020C14301E057380146C8B27047F8B56E
:1009D000002833D004464779022F03D80C37E0882B
:1009E000401E00E0E08805B264212846FFF7ECFDD8
:1009F0000E46192001012846FFF7E6FDE178891926
:100A0000081871B2890F711849B289084618632015
:100A1000C1432846FFF7D8FD4000351879B21A20A7
:100A200048431A300A21FFF7CFFD2818401E40B274
:100A30008C3080B20721FFF7A8FD2171F8BD0000BE
:100A4000F0B585B015490A687F201040144C20701D
:100A50000A685204550E65700A689202960EA670D6
:100A60004A683F271740E7704A68D204D30E637183
:100A70004A681204520F22717D2212014968090C42
:100A8000C9B28A18E280009701960295039000206F
:100A900004A101F033F805B0F0BDC04600280040C5
:100AA00014000020496E666F3A20205B636C6F6310
:100AB0006B5D206765742074696D653A2025642D2F
:100AC00025642D256420253032643A253032643A7D
:100AD00025303264200D0A002D487047F0B585B0EE
:100AE0002B4D2878401C2870C0B200243C284CD3E1
:100AF0002C706878401C6870C0B23B2801D8A97877
:100B000007E06C70A878411CA970C8B2182820466C
:100B10000CD26B79EA88ED78C9B200950191029008
:100B2000039420A1204600F0E9FF2EE00020A870E9
:100B3000E878471CEF706E79EC88022E10D1A00780
:100B400005D164212046FFF720FD00290BD1192093
:100B500001012046FFF719FD002904D01C2003E005
:100B60000CA0805D00E01D20F9B2814209D901206E
:100B7000E870711C6971C9B20D2902D36871601CDB
:100B8000E8800348FFF723FF0124204605B0F0BDAD
:100B900014000020001F1C1F1E1F1E1F1F1E1F1ED3
:100BA0001F000000496E666F3A20205B636C6F6324
:100BB0006B5D2074696D653A2025642D25642D25B3
:100BC0006420253032643A253032643A253032646C
:100BD000200D0A00F0B589B000284ED00546284EF9
:100BE000CA20706253207062A020C7433846A030EC
:100BF000F060E88864210790FFF7C7FC0591287929
:100C000004906879E978AA7808926C782D78F2686F
:100C10005206FCD532681B4B13400694220252192F
:100C2000089C240412191A433260034602020C463F
:100C3000521804984003104305994906490A014394
:100C40007068114A02400A43726038462030F060F2
:100C5000F068802101403943F160F0688006FCD5DE
:100C6000FF20706200940898019006980290039506
:100C7000002006A1079A00F041FF09B0F0BDC04670
:100C800000280040808080FFC00000FF496E666F32
:100C90003A20205B636C6F636B5D20736574207416
:100CA000696D653A2025642D25642D256420253045
:100CB00032643A253032643A25303264200D0A001D
:100CC0001CB51748026802210A43026082680124A9
:100CD000224382600269134B1340134A9A1802613F
:100CE0008268042313438B43836000F00DF901F005
:100CF0005FF8204602F0FEF80CA0009000200EA144
:100D000015A217A300F0FAFE01F0A6F97D208000DD
:100D100000F0F8FB00F040F9214601F08DFC1CBD0D
:100D2000087C00400000FFFFFF0300004A756C20B4
:100D30003234203230323300496E666F3A20205B05
:100D4000636F6D6D6F6E5D2025732C2025732C20D5
:100D500025730D0A000000005631303100000000FC
:100D600032323A33303A323700000000B0B5104822
:100D7000017A00291BD000210172012420020D49B3
:100D80000A682306150402401D40AA1842404A6022
:100D9000FFF7A4FE01F060F900F0FEF801F0CEFDCF
:100DA000204602F059F901F01FFE00F005F8B0BD31
:100DB0003800002014000050F0B58BB000F0EAFFBE
:100DC000069000F0E3FF0490FFF786FE04460590CE
:100DD00000263E4A304631469047A27807AD3C494E
:100DE0003C4B284698473C4901273C4B28463A460D
:100DF000984720203146354CA0473A200290288061
:100E0000284635493A46354B98472E203146A0476B
:100E10000598427828462E492E4B984728462E4959
:100E20003A462E4B98474E203146284CA047029810
:100E30002880284628493A46284B98475E20314664
:100E4000A047059C227828462149224EB0472846D3
:100E5000214903973A46214EB047082018211B4AE2
:100E600090476379E278E08800901DA12846194CEC
:100E7000A0471F4928463A46B04704202A21134A72
:100E80009047069800B20A263146FFF79DFB0446BC
:100E9000049FB8B23146FFF778FB31464143791AD7
:100EA00089B2C0B200900191E2B266430698801BFD
:100EB000C3B210A12846074CA04728460C49039A04
:100EC000064B984701F072FA0BB0F0BD2D210008D7
:100ED000DC5B00082D310008080000208523000895
:100EE000253032642D253032642D253032640000E7
:100EF0000000002025642E25303164432025642E17
:100F0000253031642525000080B501F0A5F90028C1
:100F100003D1002001A100F0F1FD80BD4572726F88
:100F2000723A205B646973706C61795D205353443D
:100F30003133303620696E6974206572726F7221A8
:100F40000D0A0000B0B5134CA06D400708D520680D
:100F5000400305D501208504012002F03FF86560BB
:100F6000A06D800708D52068800305D501204504C1
:100F7000012002F019F86560606C800708D52068D0
:100F8000800405D501204503012002F05FF865606B
:100F9000B0BDC0460000024000487047F00F00207E
:100FA000FEE7FEB5002700910C682346FB404AD0BF
:100FB0000125BD40254044D04A680192531E022BB2
:100FC00002972B4613D26B438E685E4303275F4321
:100FD0008268BA43324382600099CA6862434668B5
:100FE000A64316434660FC43029F009903E06B430F
:100FF00003245C43E4430A695A43C6682640164307
:10100000C660019A022A16D12E0A01D0242200E0DD
:1010100020224F698558002E114602D07643764330
:1010200001E01E465E430F227243954377432F43F0
:1010300047500099029F4A685343026822401A436E
:1010400002607F1CB0E70020FEBD0000F0B5036821
:101050000122934303608B68CC6824021C431F2346
:101060001B0205689D43254305604B6803610368C7
:101070001343036084680F4B1C4084600C698D69C6
:10108000254386680C4F37402F438760002C03D0E0
:10109000D2038468144384600322120504689443D5
:1010A0000A682243026042681A404969114341605C
:1010B0000020F0BDFF7FFFFF00F8FFFF81B00B496C
:1010C0000A6802430A60096801400091009801B073
:1010D0007047C04681B00548016801221143016094
:1010E000006810400090009801B070472C1002403A
:1010F00080B57D21C900FFF748FA401ED6494860F7
:10110000002088600520086080BDC04610B50146FB
:1011100000200C2916D003292ED1204CE16C03228B
:10112000114012048918224A914220D0214A91424A
:1011300015D0214881420FD000F056FCE168E268EA
:1011400092041FE0154CE16C0907890F03290ED0AA
:10115000022904D0012910D100F046FC10BD2168FD
:10116000490709D52068C00616D50E4810BD0120D4
:10117000C103206D8001084010BD00F035FCE1681E
:10118000E2685205520F084B9A5C0906090F074B9B
:10119000595CC840D04010BD014810BD001002404D
:1011A0000024F40000093D00D43A0008C43A0008C5
:1011B000030003000200030001000300B0B544680F
:1011C000074D25404903D2B251181A0292B20A4380
:1011D00004990906090A114329434160B0BDC0467C
:1011E000C00000FFF0B585B015460E460446002944
:1011F00006D16878C10603D5EF2108400A3068702F
:10120000CA20606253206062204600F049F801283D
:1012100001D101203FE0AA782978002E04D06B7814
:10122000E8780090204629E0EF78F8B20A26049189
:1012300031460192FFF7A9F931464143791A00017D
:101240000843C0B20390019FF8B23146FFF79DF901
:1012500002906D78E8B23146FFF797F90399009153
:101260003146029A5143791A12010A43D2B24643D7
:10127000A91B00010843C3B220460499FFF79EFF53
:101280008020C043E060A068800603D4204600F0C0
:10129000C1F800E00020FF21616205B0F0BD000050
:1012A00018B57D21C9000091C168490616D40021F6
:1012B000CA43C260C3689C4A009C002C0FD04024E3
:1012C00023400CD11368DB0302D5009B5B1E009307
:1012D000C368009C002CEFD10121EDE70021C8B2CA
:1012E00018BDC046B0B50D460446CA206062532002
:1012F00060622046FFF7D4FF012801D1012017E0EA
:10130000A0684021884329680143A16020690A49F7
:101310000140A868084320617F20000421698143BF
:1013200068680004084320618020C043E06000201A
:10133000FF216162B0BDC0460080FFFFB0B5046808
:10134000064D25401206120A0A43190289B21143BA
:1013500004AA12780A432A430260B0BD808080FF4D
:10136000F0B585B016460D4604468068400601D4A7
:1013700000203060CA206062532060622046FFF780
:101380008FFF012801D101203FE032793168002D23
:1013900004D07379B0790090204629E0B779F8B28B
:1013A0000A25049129460192FFF7EFF829464143A7
:1013B000791A00010843C0B20390019FF8B2294690
:1013C000FFF7E3F802907679F0B22946FFF7DDF8EF
:1013D000039900912946029A5143791A12010A434E
:1013E000D2B24543711B00010843C3B220460499A1
:1013F000FFF7A4FF8020C043E060A068800603D40C
:10140000204600F007F800E00020FF21616205B0EF
:10141000F0BD000018B57D21C9000091C16880228F
:101420000A40A021C9435118C160C36800213E4A47
:10143000009C002C0ED0202423400BD11368DB032A
:1014400002D5009B5B1E0093C368009C002CEFD16B
:101450000121EDE7C8B218BD10E000E001490860C5
:101460007047C0461000002070B504460068012592
:10147000C0073ED10E4620681F49014070680843EE
:10148000F168014330690843B169014321600320D9
:10149000010362688A43B168114361600102A26876
:1014A0008A4371691143A160EA498C4203D0134811
:1014B00084421ED10C20FFF729FE002819D0316884
:1014C000002916D00122D203B36993420AD1400009
:1014D0004A081018FFF759F8094901400007400F62
:1014E000401804E04A081018FFF74FF880B2E06097
:1014F0000025284670BDC046F369FFEF0044004058
:10150000F0FF000081B008490A680092401C01D336
:101510000020C043009A002804D00A68D203D217E2
:101520001018F8E701B0704710E000E080B500F057
:1015300001F880BD1848016889072BD5416802224F
:101540000A43426015480121417101710278521C21
:101550000270D2B2082A02D381710022027042784E
:10156000521C4270D2B2102A02D3C17100224270C2
:101570008278521C8270D2B2202A02D301720022D9
:101580008270C278521CC270D2B2402A02D3417219
:101590000021C1707047C046007C00403800002028
:1015A00081B00A48016801221143016000681040BF
:1015B00000900098FF20000605490B6883430B60EC
:1015C000D002FA49086001B07047C04630100240AE
:1015D00008E400E0F0B587B0002706970420124D1C
:1015E000A84701242046A84702263046A8470520E0
:1015F0000507AE6220020090A86205970497039742
:101600000294019601AE28463146FFF7CAFC0597C1
:101610000497039702940098019028463146FFF7FB
:10162000C0FC07B0F0BDC046BD100008F0B58FB0DB
:10163000294908680226304308600868304008904D
:101640000127079700200190069005970324049432
:101650000396402002900898204802AD2946FFF7E3
:10166000A0FC0797019806900597049403968020A4
:1016700002901A482946FFF794FC7805164AD1686B
:101680000143D160D1680140089108987806144C54
:10169000616801436160F803E1688143E160F80437
:1016A00021688143216078042168814321600D48CD
:1016B00009900198089008AD284608301421FEF7DB
:1016C00030FD20462946FFF7C1FCE068064901408D
:1016D000E1600FB0F0BDC0462C1002400004005085
:1016E00000540040380F300001F8FFFF81B00120A6
:1016F000C107A74A13680B43136012680A4000929F
:101700000099FF210902114A13688B4313604103BA
:10171000A64A11600E490A6882430A6007225202F3
:101720000B6893430B6042050B6893430B60820583
:101730000B6893430B60C0050A6882430A6003206C
:1017400040040A6882430A6001B070470CE400E07C
:101750000C7C004070B588B00024039402941148BA
:1017600001900126B00410490A6802430A60FF2074
:1017700007907F20069005940C4D05A92846FFF799
:10178000B1FD02AA28462146FFF7EAFD01AA284634
:101790002146FFF727FDA86806210143B143A96050
:1017A00008B070BD01010116501002400028004031
:1017B000F0B591B0012188030C46019124490A68D3
:1017C00002430A60096801400A910A98FFF782FC07
:1017D00004200390099000270897079703200290A0
:1017E000069002260596600204900520040704ADC9
:1017F00020462946FFF7D5FB0398099008970797DD
:10180000029806900596019EB00204902046294653
:10181000FFF7C7FB10970F970C200E900D970C97B2
:101820000B97E12040020A900A4C0AA92046FFF7D4
:101830001BFE0920C002616881436160A0682A2103
:101840008843A06020683043206011B0F0BDC046DE
:101850003410024000380140F0B591B001200290F0
:1018600040044B490A6802430A60096801400A9132
:101870000A98FFF72FFC0424099400200390089095
:1018800007900320019006900227059704940520F5
:10189000060704AD30462946FFF783FB09940398F9
:1018A000089007900198069005970820049030460C
:1018B0002946FFF776FB0F2211043648436E8B430F
:1018C000029FB904591841664169334B194041617F
:1018D0004169324B194041612021CC43416921408B
:1018E00041614021CD4341692940416143698021E3
:1018F0000B43436143692A4E334043614669294B98
:101900001E4046611203466E9643BA03B218426601
:101910000268214E32401032026002681F4E32408F
:10192000026002682240026002682A400260026887
:101930000A43026001681A4A1140016001681940B7
:10194000016019480168FF22914301603807174977
:101950000860039910910F910C200E900D910C913D
:101960000B91E12040020A90114C0AA92046FFF792
:101970007BFD0920C002616881436160A0682A2163
:101980008843A06020683843206011B0F0BDC04695
:101990003810024044000240EFBFFFFFFFCFFFFFBF
:1019A000FFFCFFFFFFF3FFFF1CE400E000E100E0AD
:1019B00000440040FEE7704783B010B5B3B0044662
:1019C00035A80EC035AA009201A8214601F0C2FB3D
:1019D000012804DB82B2012001A901F07FFB33B0B2
:1019E00010BC01BC03B0004780B51849C8680007A7
:1019F000820F17487A441279520097440110250843
:101A00000120000449680904490F884080BDCA6864
:101A1000D2030CD40868C00608D50F4807E0086850
:101A2000C00601D50C4880BD0A4880BD0948CA6877
:101A30009202120F094B9A5C4243C8680002800F61
:101A4000411C1046FEF7A1FD80BDC04600100240BB
:101A500000127A000024F40000093D00845B0008B5
:101A600070470000F8B514460D4606462248007837
:101A7000002801D101F008F8EFF31087012181F36C
:101A8000108830462946224600F004F887F3108873
:101A9000F8BDC046F8B514460D4618214143164816
:101AA0004618F06A1836022810D0012815D00027F1
:101AB00000281ED1304601F017F8A04219D3304655
:101AC0002946224601F0F0F8274612E03046294622
:101AD000224601F0BBF807460BE0304601F004F85F
:101AE0000746A04200D32746304629463A4601F031
:101AF000DBF83846F8BDC0464C00002082B0E0B5A7
:101B00000492059304AA019201AA00F005F88CBC86
:101B100002BC02B008470000F0B59FB008920E4624
:101B200002901E9000271C9740201B900AA81A9034
:101B30001D9731783046761C252906D0002900D122
:101B400014E11AA801F062F88DE0801C00253178BC
:101B5000232907D02B2907D02D2907D030290AD1D6
:101B6000022104E0082102E0042100E001210D43EC
:101B7000401C761CEBE700240997302909D339294A
:101B800017D80A2262435418303C401C7178761CE6
:101B9000F3E72E290DD100270921CA4301780B460E
:101BA0003A3B934207D30A227A435718303F401CEE
:101BB000F2E7002700E00646761C0846633809284D
:101BC0000DD8C046784400794000874451574C4CAA
:101BD0004C044C4C4C04701C31780646EDE708462A
:101BE0007038082815D8C0467844007940008744EA
:101BF000043A3A1E3A2E3A3A1400089A1068011D27
:101C00001160016800200823009301901AA8102297
:101C100027E0252953D0582925D1089A1068011D9D
:101C200011600168009401951AA8102218E0089A22
:101C30001068011D116004682178002913D01AA8CA
:101C400000F0E4FF641C1D980028F5D50BE0089A0D
:101C50001068011D11600168009401951AA80A22FC
:101C60003B4600F04DFF1D9F002F00D461E78AE046
:101C7000089A1068011D1160017862E70596089ABC
:101C80001068011D11600268D11750184840069273
:101C90005142049101260A2804D30A21FEF775FC5B
:101CA000761CF8E7BE42079700D30796002C09D0B0
:101CB0000698002801D4680705D5641E03E01AA819
:101CC00025213FE7002402212940039101D0002F64
:101CD00013D0E80711D1002C0FD0661EA6420CD2FB
:101CE0000798A04209D21AA8202100F08FFF1D9862
:101CF000099000283446F0D521E009980028059E77
:101D0000B1D40698002804D4680704D40698049037
:101D10000AE02D2102E02B21069804901AA800F079
:101D200075FF1D9800289ED40398002809D10094BF
:101D300001951AA80A2204993B4600F0E1FE059E8F
:101D400091E7012028403843F1D1002CEFD0661EE6
:101D5000A642ECD20798A042E9D21AA8302100F09E
:101D600055FF1D9800283446F1D5E8E7002F09D02B
:101D70001C9D002D04D00AA902982A46FFF772FE86
:101D8000EF1900E0002738461FB0F0BDCD4880882D
:101D90007047C0460220CB49085E704780B5FFF708
:101DA00045FCE948016801220A43026080BDC04643
:101DB00080B5FFF7F3FF002001A1FFF79FFE80BD74
:101DC000496E666F3A20205B7369373032315D208F
:101DD0007369373032312069326320696E69740D5E
:101DE0000A000000F0B585B00A460290824B581CEC
:101DF0000124A1030391E603804F7969314206D0A3
:101E0000401E0104F9D100207D493C226AE0386877
:101E10007C49084038607C48451C3968294080313D
:101E200039603968014039603868784908402104D0
:101E30004018386061033868019108433860581CC5
:101E40007969C90706D1401E0104F9D100206C4907
:101E5000442247E002987862581C7969490606D402
:101E6000401E0104F9D10020654946223AE0009263
:101E70006420FFF747FB604B3868624908403860D0
:101E800038682840802101433960A0023968014345
:101E9000396038685D49084003210904014339600D
:101EA0003868019908433860581C7969C90706D118
:101EB000401E0104F9D100205149502212E00020B7
:101EC000032819D0591C7A69520703D4491E0A0401
:101ED000F9D104E0396A04AA1154401CF0E700204B
:101EE00047495222FFF70AFE3868039908433860D1
:101EF0000024204605B0F0BD3868039908433860D7
:101F0000B86920210143B961581C7969314206D072
:101F1000401E0104F9D1002039495822E2E702208D
:101F2000002204A9030610D0401E0B785A4000235B
:101F3000072B08D8550052B2002A01DA3122554049
:101F40002A465B1CF4E7491CECE704A88078D1B270
:101F5000814225D104A8008840BAFEF7BFFA029A50
:101F6000E32A22D1384A394BFEF750FAFEF7F1FA4C
:101F70006F21C905FEF75BF9FEF7D7FA344A354BF6
:101F8000FEF792F9FEF7E5FA2E49FEF750F9FEF753
:101F9000B3FA009A1080184988421FDD1180A8E723
:101FA00000201BA1FFF7AAFD9EE70022234BFEF7AE
:101FB0002DFAFEF7CEFA6F21C905FEF738F9204950
:101FC000FEF7DCF81F49FEF732F9FEF795FA0099A3
:101FD0004880094A904209D94A808AE7C821C94302
:101FE000884286DCC720C043108082E7C72800D91A
:101FF0007FE7C82048807CE7E703000004540040E6
:10200000EA5B0008FFFFFFFDFFFBFFFFFFFF00FF94
:102010004572726F723A205B7369373032315F6993
:1020200069635F68775D207369373032312063728E
:102030006338206572726F720D0A000000405F40C5
:102040000000C0C000002041D7A3703D0AF76540E2
:10205000CDCCCCCCCC6C47C0FEB51A4E3078401CF1
:102060003070C0B205282BD300203070B41CE320A0
:102070002146FFF7B7FE002822D00120FFF742FAE1
:10208000E5202146FFF7AEFE002819D0778838B248
:102090000A242146FEF798FA0546B688B0B22146D2
:1020A000FEF773FAC1B26043301A80B2009101901A
:1020B000EAB26C43381BC3B2002003A1FFF71EFD38
:1020C000FEBDC04646000020496E666F3A20205B88
:1020D0007369373032315D2025642E2530316443F9
:1020E0002025642E2530316425250D0A00000000CE
:1020F00010B57F2817D83F2915D8534253410A4CB1
:102100002478002C00D01A4607240C400123A34059
:10211000C908C9010818B1490C5C012A01D09C43C7
:1021200000E01C430C5410BD04050020944A51806B
:102130001080704780B5FFF779FA034801680122E3
:102140000A43026080BDC04600540040FEB50292C2
:1021500001917D21CB000127BA03FE032D4C1D46C2
:102160006169314203D06D1E2904F9D12EE0790650
:1021700025688D43256028494D1C00901046226833
:102180002A407832226022680A4022603904029A8A
:1021900012045118FF221204256895430D4325604F
:1021A000790322680A432260024600981D4661694D
:1021B000C90703D16D1E2904F9D107E060621846F2
:1021C0006169C9070AD1401E0104F9D12068104392
:1021D0002060002011A1FFF791FCFEBD00200299B4
:1021E00088420CD00199095C61621D466169C9078A
:1021F00003D16D1E2904F9D1E8E7401CEFE7206800
:102200001043206060693042E7D05B1E1804F9D1AA
:10221000DCE7C04604540040FFFBFFFF4572726FCD
:10222000723A205B737364323330365F6969635F7F
:1022300068775D20737364313330362069326320F0
:102240007772697465210D0A0000000080B5402096
:10225000FFF77CFF80BD0000F8B5FFF76BFFAE20F5
:102260005F4FB84720252846B84710263046B84764
:10227000B020B847C820B84700242046B8473046A9
:10228000B8474020B8478120B847FF20B847A12071
:10229000B847A620B847A820B8473F20B847A42091
:1022A000B847D320B8472046B847D520B847F020D4
:1022B000B847D920B8472220B847DA20B8471220BB
:1022C000B847DB20B8472846B8478D20B8471420C8
:1022D000B847AF20B8472E20B8470125A9023F488C
:1022E000FDF71FFF00F062F825484480048028466F
:1022F000F8BDC046F0B585B002920546204B18885F
:102300000C78221800207F2A37D85B8804914A78FD
:10231000D3183F2B31D80298414241410391009597
:10232000203D019500250499D0B285421FD2019A23
:102330005043401940004A68175A0026E0B28642CE
:1023400012D23846B0400004039A00D5029A0C49D4
:102350000888801980B24988491989B2FFF7C8FEF8
:10236000761C04990C78E9E74A786D1CDCE7E0B24A
:10237000034A118808181080009805B0F0BDC046C7
:102380004200002070B514460D46064630780028FD
:102390000AD029462246FFF7ADFF0146721C30786D
:1023A00081421646F2D070BD002070BD70B5002588
:1023B0000A4C0B4E082D0FD028465038C0B2B047FB
:1023C0000020B0471020B047402080222146FFF770
:1023D0003DFF80346D1CEDE770BDC0460805002050
:1023E000E5230008E0B501A9087000200122FFF7ED
:1023F000ADFE8CBD70477047F8B541490A680120B1
:1024000002430A600A68D207FCD03E4A13683E497C
:102410000B40C4021B1913605368DB06FCD43B4D10
:102420002B6803432B602B685B07FCD51F231B0223
:102430006C689C430303E3186B6004021368234336
:102440001360032632042F6D174003049F4206D009
:10245000C704296D39432965296DB9432965296D5B
:10246000294F39402965296D21432965296D890541
:10247000FCD5296D1140994203D0296D9143194330
:10248000296581042A6D0A432A65FD210904EA6849
:102490008A43112189045118E96000062968014323
:1024A000296028688001FCD5E868F0218843E8604D
:1024B00007200102EA688A43EA60C002E9688143B2
:1024C000E960E8683043E860E8680C2738400C2889
:1024D000FAD10F4C2046FEF70BFE2046FEF7BEFF5A
:1024E000E86CB043E864E86CB843E8643003E96C36
:1024F0008143E964B004E96C0143E964F8BDC04676
:102500000020024000700040FFE7FFFF0010024083
:102510000048E8017047000010B5074C2068C0066D
:1025200009D5E069C00606D5012000F079FD10202C
:10253000206200F0D5FB10BD0044004010B50446F9
:10254000002003A1FFF7DAFA01202071A07010BD6E
:10255000496E666F3A20205B657370383236365D9F
:10256000207769666920636F6E6E65637465640DBC
:102570000A00000010B50446002005A1FFF7BEFACE
:102580001D488068FFF718FA0320207110BDC0466F
:10259000496E666F3A20205B657370383236365D5F
:1025A000207769666920636F6E6E6563742066616B
:1025B000696C0D0A00000000B0B50446002505A1B5
:1025C0002846FFF79BFAFF488068FFF7F5F9257169
:1025D000A570B0BD496E666F3A20205B6573703898
:1025E0003236365D207769666920646973636F6E81
:1025F0006E6563740D0A00001C00002010B50446CF
:10260000002005A1FFF77AFAA078012801D1022065
:10261000A0710220207110BD496E666F3A20205BC8
:10262000657370383236365D207769666920676F6A
:10263000742069700D0A0000B0B5002818D0044657
:102640000C4D01290BD112212046FDF76AFD78209F
:102650006071022028600120207010A105E0002098
:10266000607102212961207003A10020FFF746FA62
:10267000B0BDC04618000050496E666F3A20205B1E
:10268000657370383236365D207769666920706F01
:10269000776572206F66660D0A000000496E666FEE
:1026A0003A20205B657370383236365D2077696674
:1026B0006920706F776572206F6E0D0A0000000050
:1026C000F8B504460020002C16D00D46002913D082
:1026D0004720C043094E07460C370CD03018C16C58
:1026E0002846FDF729FD014600283846F4D0F019A8
:1026F000426C204690472079F8BDC046A05B000898
:10270000F0B58DB00D460446002669A13046FFF7AE
:10271000F5F904210B9421710C962B460D330CA86E
:102720006C4A00F0E7FC012800DA95E02C462134E1
:1027300069A7072E08D038680CA9FDF711FD0028FD
:1027400004D03F1D761CF4E7072000E0F0B20990AA
:10275000002768A138463246FFF7D0F92B461133DF
:102760000CA804215B4A00F0C5FC012874DB684E0C
:102770000D2F08D030680CA9FDF7F2FC002804D01A
:10278000361D7F1CF4E70D2000E0F8B20890002011
:1027900060A13A46FFF7B2F9687D654FB8470790E8
:1027A0000A200A90A87DB8470690287EB847059071
:1027B000687EB8470490E87EB8470390287FB84702
:1027C0000290A87FB8470190E87FB8470090207832
:1027D000B8477D25EE0046436078B8476421414301
:1027E0008E19A078B8470A9948433618E078B84758
:1027F000301881B20A097D2A2ED32A016332914210
:102800002AD80899002927D008990C2924D80A9990
:10281000079A4A43069989180A061DD0CAB21F2A88
:102820001AD8099A062A17D80A9A059B5343049A7C
:10283000D218D3B2172B0FD80A9B039C5C43029B80
:102840001B19DCB23B2C07D80A9C019D6C43009DF0
:102850002C19E5B23C2D15D3002537492846FFF742
:102860004DF90B9CE079042804D802212172401C08
:10287000E07105E0E57120462946FFF7DDFE657051
:102880000DB0F0BD0B9E30820898F0730998B073BC
:1028900071733273F372B4720520307100252549CB
:1028A0002846FFF72BF930462946FFF7C5FEE7E734
:1028B000496E666F3A20205B657370383236365D3C
:1028C00020776966692072657475726E2074696D0F
:1028D000650D0A00555D0008455D00083D5D000876
:1028E000295D0008255D0008605D0008315D000875
:1028F000585D0008496E666F3A20205B657370383A
:102900003236365D207765656B3A25640D0A000026
:10291000903A0008496E666F3A20205B6573703804
:102920003236365D206D6F6E74683A25640D0A008C
:102930009F090008AB5C0008165C0008B0B50028D1
:1029400028D004464078012807D0A078012804D078
:10295000E078032826D3012060706079002807D032
:10296000401E6071000603D100212046FFF764FE7F
:10297000207A002807D0401E2072000603D111489B
:102980000069FFF719F8A079002803D0401EA07154
:10299000000600D0B0BD0B48C068FFF70DF802205C
:1029A0002072B0BD8000074D2858FFF705F8E07889
:1029B00080002A58002004A1FFF7A0F8E078401C0E
:1029C000E070B0BD1C000020496E666F3A20205BAD
:1029D000657370383236365D207769666920696EB6
:1029E00069743A25730D0A0010B5C0B0FEF7D4FA29
:1029F0000446007800281DD00F486C3001210A02DF
:102A0000694600F079F9C2B20020002A0FD00BA16C
:102A1000FFF774F869462046FFF752FE052809D1F2
:102A20000A342046FEF7D6F8FEF70AF802E00CA1B9
:102A3000FFF764F840B010BD580F00204465627580
:102A4000673A205B776966695F756172745D2072B1
:102A50006561642073697A653A25640D0A00000097
:102A600044656275673A205B776966695F75617274
:102A7000745D20726561642073697A65203D203041
:102A80007830300D0A00000010B5124CA821204605
:102A9000FDF747FB0320206160610F49A1610F48EA
:102AA000E0610120800220620020A0626062E0629A
:102AB00021660B4961661021A1662067E0666067A8
:102AC00008490F31102804D00A782254491E401CAE
:102AD000F8E710BD4C000020E15B00080401002075
:102AE000F40000208D5B0008C2680169914201D9A1
:102AF000D04302E0D243891880680818704700006C
:102B0000F0B587B01C461546069001260D98049036
:102B10000C98029001910846A84204D32946FDF77B
:102B200034FD761CF8E70127A642059400D30596EC
:102B3000049908463840029E002E00901CD00028C0
:102B40001AD12020890701D4049001E0302104919A
:102B5000002C00D00490029E0394002E0CD0059807
:102B6000B04209D2069C2046049900F04FF8761E28
:102B7000E068039C0028F0D50698C06800283BD484
:102B80000296019E022C01D3641E05E030463946B0
:102B9000FDF7FBFCA84201D36F43F3E70495069DC4
:102BA00030463946FDF7F1FC044614A0015D284685
:102BB00000F02CF8E868002809D47C43361B38461E
:102BC000049C2146FDF7E1FCA7420746E8D20098A5
:102BD0000028029810D000280ED0069D441E844282
:102BE0000AD20599814207D22021284600F00EF82A
:102BF000E86800282046F1D507B0F0BD3031323307
:102C000034353637383941424344454610B50446D9
:102C100042688368581C904201D9184606E0226831
:102C2000D154A060E168491CE1606268904208D11B
:102C300021682069FEF716FFA168884202D10020B2
:102C4000A06010BD0020C043E06010BDFEB5164678
:102C50000D46C768002101900269BA42029103D96A
:102C6000F9435418826803E0F943511882688C18BC
:102C70004168D21B944200D31446C819B44200D311
:102C8000344629462246FDF733FAE7190198816850
:102C90008F4200D100270299C760361B2D19611899
:102CA000002ED9D10846FEBDF8B515460446406849
:102CB000A268E6688019971BAF4204D92A46FDF73F
:102CC00017FA751909E00E463A46FDF711FAF1199F
:102CD000ED1B60682A46FDF70BFAE560F8BD0000C1
:102CE00080B58820F2490858C82100F0ADF880BDB1
:102CF000EFF3108072B6704770B504460020002ACA
:102D000028D0002C26D00D46002923D0A668002EFE
:102D100020D0964200D316466069002800D0804734
:102D20003046002811D021694A1C22610978297097
:102D300006CC8A18A368083C934200D321616D1C1D
:102D4000A168491EA160401EEBE7A069002800D0E1
:102D50008047304670BD0161C16006C000990161C5
:102D6000C36000210160704762B6704770B50446C9
:102D70000020002A29D0002C27D00D46002924D07D
:102D80006168A368CE1A20D0964200D316466069C7
:102D9000002800D080473046002811D02978E2680A
:102DA000531CE360117006CC8A186368083C934298
:102DB00000D3E1606D1CA168491CA160401EEBE7D7
:102DC000A069002800D08047304670BD82B01A4804
:102DD00001680122114301600168114000910099CE
:102DE000110742680A434260406808400190019818
:102DF000FF24200611490A68824303208007101827
:102E00000860FFF7F9FAFEF7E5FBFEF7C9FBFEF7EE
:102E1000A1FCFEF76BFCFEF71FFDFEF7C9FC2004CA
:102E200007490A6882430A60064804210160FDF7E9
:102E300047FFFDF79BFFFCE73410024020ED00E068
:102E400000E400E000E100E0B0B5104A146801239E
:102E50009C431460224C25461C359560D060506818
:102E6000204D05400D435560EFF3108083F310882B
:102E7000216840250D43256080F3108810465438A2
:102E800019040160106818431060B0BD580002407A
:102E9000B0B5124A146801239C431460104C2546B7
:102EA00020359560D06050680E4D05400D4355604B
:102EB000EFF3108083F31088216880250D4325608F
:102EC00080F31088106802210143116010464038D9
:102ED00019030160106818431060B0BD440002403F
:102EE000084400400000FFFF0148006880B27047BE
:102EF0005C000240F8B501281CD000283ED1002318
:102F000000937B4E301D2449C8242246FFF723FF3F
:102F10001B4800903046203020491B4B2246FFF7CB
:102F20001AFF48203452402034521D4870641D4816
:102F3000F06321E0124F00976D4E3046503011493A
:102F4000C824114D22462B46FFF705FF0097304657
:102F50006C300E4922462B46FFF7FDFE942034527A
:102F600090200B4931508C203452882109487050F0
:102F70002146FFF769FF4C3600203070F8BDC0468F
:102F8000692D0008900E0020F12C0008C80D0020CB
:102F9000000D0020380C0020700B0020A80A002033
:102FA000E009002018090020B0B54C214143504AE7
:102FB00054184A25615B4022A25A521A92B2C000AC
:102FC000454B181843689B184360E06B4118204636
:102FD0002030FFF7CBFE00206053B0BD70B5044633
:102FE000012806D18C2042490D5AFFF77DFF2D1A8A
:102FF00000E00025E0003849081841684C2262438F
:103000003B4B9C184A26A35BEA1A92B2891841608E
:10301000E06BC11820462030FFF7A8FEA55370BD15
:10302000B0B50446012807D18C2031490D5AFFF76D
:103030005BFF281A82B200E000224C2060432C493A
:103040000818C16B2030FFF791FEB0BD4C21414301
:10305000274800224254704770B504464C20604314
:1030600013490A5C012A21D00E184820325A716C8B
:10307000301DFFF741FE85B2002D17D000200DA1B5
:103080002A46FEF73BFDE00013490A5852190A5040
:10309000012C04D0002C09D10120307070BD01201A
:1030A0003070443630682946FFF7F2FE70BDC046E6
:1030B000580F002044656275673A205B776966693E
:1030C0005F756172745D2073656E642073697A65E3
:1030D0003A25640D0A0000000809002080B54C2341
:1030E00043430348C018001DFFF740FE80B280BD77
:1030F000580F00200FB47CB50C0009AD01D0611E43
:1031000000E0002101910090074B6A46294608988B
:1031100000F012F9002C02D0009A002111707CBC42
:1031200008BC04B018470000713A00080FB410B58D
:1031300004A9074B02AA039800F0FEF8044602A96E
:10314000002000F0A0FC204610BC08BC04B01847CA
:10315000873A000837B514460846064B6A462146AA
:1031600000F0EAF804466946002000F08CFC204696
:103170003EBD0000873A00082021020C01D010213A
:103180001046020A01D010460839020901D0104643
:10319000091F820801D01046891E420801D0881EEE
:1031A0007047081A704702E008C8121F08C1002AB9
:1031B000FAD170477047002001E001C1121F002AB8
:1031C000FBD17047F0B51FB486B00998089A030D7B
:1031D0000021024314D05148514A18185043051495
:1031E0001198012810981AD0281A401C00264D4F1B
:1031F0004D49009601910490002812DA444211E0F2
:103200001198012449A3012801D11098C1430698BF
:10321000119A84600360C26041600BB0F0BD40420F
:10322000E4E70446210500203F4A001C5141039178
:10323000029012E0E00707D032463B460199009821
:10324000FDF7E4F80191009032463B4610461946DE
:10325000FDF7DCF806460F466410002CEAD104980E
:10326000039B0028029A0999089806DAFDF7CEF820
:10327000019B009AFDF7CAF805E0FDF7C1FA019B32
:10328000009AFDF7BDFA04460E460022284BFDF7D2
:103290004FFB03D80020C043014607E00022254B26
:1032A00020463146FDF700F8FDF722FB102409E027
:1032B000002C0ADB0A220023FDF7AEF9079B30320F
:1032C0001A55641E02460A43F2D11122641C079B60
:1032D000121B1C19119B012B03D0012308430ED193
:1032E0000AE0084304D0112010900020119077E7E5
:1032F0001098151A6D1E0BE01098824202DD002313
:103300006D1C03E0824201DA00236D1E002BEED01B
:10331000069811998260C16030C07EE701FCFFFF12
:10332000104D0000000014400000F03F300000008D
:103330000000F0430000E03FFFB597B006460025CF
:1033400018E2252877D100242746FD49049400E09F
:103350000443761C32780120203A90400842F7D18D
:1033600030782A280ED002223078014630390929D7
:1033700016D804990A235943303940181443761C4F
:103380000490F1E7189802C804911890002904DA13
:103390000120400304434842049002200443761C69
:1033A00030782E2814D1042004437078761C2A2803
:1033B00009D11898761C80C8189009E00A214F435B
:1033C000303FC719761C3078014630390929F5D9C4
:1033D00030786C2810D006DC4C281AD068280ED023
:1033E0006A2817D104E0742813D07A2812D110E08B
:1033F0000120400504430CE00121090501E00321FF
:1034000009050C437178814203D10120000524187D
:10341000761C761C3078119066280BD013DC582867
:103420007DD009DC00287BD04528F6D04628F4D092
:1034300047281AD1A5E118E0632835D0642870D058
:10344000652812D19DE170286CD008DC6728F1D086
:1034500069287BD06E280DD06F2806D1BAE073287A
:103460002ED0752871D0782859D01A9A199990477A
:103470006D1C7EE16002400F022809D003280DD0A8
:103480000428189801680DD00D60001D189070E197
:103490001898EA1701680D604A60F6E71898016805
:1034A0000D80F2E70D70F0E718986A460178117206
:1034B000001D18900020507202A80090012005E025
:1034C000189802C8189000200091C04361070DD5DC
:1034D000002101E00199491C0191B94212DA8142AF
:1034E000F8DB009A515C0029F4D10BE0002101E0E7
:1034F0000199491C01918142FADB019A0099895C8A
:103500000029F5D1019904981A9B471A214638469B
:10351000199A00F097FA0199401945180BE04FE00D
:103520002CE113E04EE0009800990078491C0091CE
:103530001A9A199990470198401E0190401CF2D1A7
:10354000214638461A9B199A10E137E00A200021DB
:10355000009001916002410F022907D0189A01CA18
:103560001892C2179446032908D00AE01898C01D83
:10357000C108C90005C91891944607E000B2C217F6
:103580009446042902D140B2C1178C4600226146FC
:10359000944506DA0A460021404291418C462D218D
:1035A00002E0210504D52B216A461173012103E0B5
:1035B000E10701D02021F7E7029155E00A200AE057
:1035C000102008E010200090002104200443019105
:1035D000082703E008200021019100906002410FBC
:1035E000022907D0189A01CA18920022944603298A
:1035F00008D008E01898C01DC108C90005C9189175
:10360000944603E080B2042900D1C0B200210291A7
:10361000210729D51199702906D0009A1021019B04
:103620004A401A4305D00EE040216A461173012139
:1036300008E06146014306D030216A4611731199B2
:10364000517302210291009A0821019B4A401A43BA
:103650000AD16146014301D1610705D530216A468F
:10366000117301217F1E02911199582904D035A1AF
:103670000E910DA90D910DE037A1F9E76146019B6F
:10368000009AFCF7C9FF0E9B8C469B5C0D9A521E5C
:103690000D92137061460143F0D10D9805A9081AE7
:1036A00020300190600703D501200004844300E02E
:1036B00001270198874201DD381A00E000200199B6
:1036C00000904118029809180498401A0490E003E9
:1036D00006D421461A9B199A049800F0B3F94519AB
:1036E000002706E003A81A9AC05D199990476D1C3F
:1036F0007F1C02988742F5DBE0030CD521461A9B1C
:10370000199A049800F09EF9451904E01A9A30209D
:10371000199990476D1C0099481E00900029F5DC0E
:1037200008E00D980D990078491C0D911A9A199985
:1037300090476D1C0199481E01900029F1DC63E15E
:103740000928010030313233343536373839616277
:10375000636465660000000030313233343536373B
:1037600038394142434445460000000000F05AF910
:103770004519761C3078002800D0E2E528461BB0B9
:10378000F0BD600700D406271898C01DC108C90005
:1037900048680A680831C30FDB071891190001D087
:1037A0009CA108E0210501D59BA104E0E10701D01F
:1037B0009AA100E09AA1430011985B081091652836
:1037C0000CD006DC452809D046281DD0472841D119
:1037D00041E0662818D067283CD13CE00021112F39
:1037E00001DB112000E0781C0191009008A911A8CC
:1037F000FFF7E8FC139905910021119A15927F1C9F
:1038000012980197009150E00120C0070390012019
:10381000019008A9009711A8FFF7D4FC139A1499F6
:1038200005920022119B009212981593059A01921D
:10383000002901D0104602E0791C40180190381A86
:1038400001D5019804E04042401E0090781C019090
:10385000C01B029043E0012F00DA01270021112F45
:1038600001DD112000E038460191009008A911A85F
:10387000FFF7A8FC13990591119A0021129815924F
:103880000091019721070CD40599B94201DB0199F8
:1038900000E00191012904DD159A491E515C30298F
:1038A00006D0B84201DA011D05DA0121029115E0C6
:1038B0000199491EEDE7002805DC009941180091A7
:1038C0000199091A03E0019A411C914200DD01911E
:1038D0000099401A401C02900120C0070390200765
:1038E00006D402990198814202DB0020C043029075
:1038F00000206946C87707AF012103980337C9073D
:10390000884224D0022011902B2012900398002886
:103910000CDA404203902D20129007E00A21039810
:10392000FCF733FE30317F1E039039701199481E29
:1039300011900029F2DC03980028EFD1791E12982B
:1039400008703078202108404530BF1E387006A826
:10395000C01BC01D039010980078002800D00120E3
:10396000019941180298C01709180398091804987A
:10397000401A401E0490E00306D421461A9B199A6F
:10398000049800F05FF8451910980078002803D0DB
:103990001A9A199990476D1CE00324D521461A9B69
:1039A000199A049800F04EF845191CE00098002878
:1039B00007DB00990598884203DD1598405C19994A
:1039C00001E0199930201A9A904700986D1C401C0C
:1039D00000900298401E0290002804D11A9A2E20CE
:1039E000199990476D1C0199481E01900029DDDC52
:1039F00005E038781A9A7F1C199990476D1C039935
:103A0000481E03900029F4DC21461A9B199A049859
:103A1000ACE600002D0000002B000000200000009C
:103A200000000000F8B5044600251E46174688042D
:103A300004D405E039462020B0476D1C641EF9D53A
:103A40002846F8BDFFB50446002581B01E46C803D0
:103A500001D5302700E02027880404D505E038464A
:103A60000399B0476D1C641EF9D5284605B0F0BD1A
:103A70004A68002A06D00A68531C0B601070486818
:103A8000401E486070470A68531C0B6010707047F6
:103A9000D95C0008395D00081D5D00084D5D000817
:103AA000515D0008685D0008415D0008355D000853
:103AB0002D5D0008495D00085C5D0008645D00083C
:103AC000215D000800000000000000000102030466
:103AD00006070809000000000102030400000000BE
:103AE00000000000000000000000000000000000D6
:103AF00000000000000000000000000000000000C6
:103B00000000000C000C000C000C000C000C000C61
:103B1000000C000C000C000C0000000C000C00005D
:103B2000000000000000001B001B001B001B001B0E
:103B30000000000000000000000000000000000085
:103B400000000000000000000000801980198019AA
:103B50008019C07FC07F80190033C07FC07F0033D1
:103B60000033003300330000000000000000001E9E
:103B7000003F807580650074003C001E00078005D2
:103B8000806580658075003F001E00040004000011
:103B90000000007000D840D8C0D880D9007300065B
:103BA000000C801BC036C066C046C0068003000003
:103BB000000000000000001E003F0033003300330F
:103BC000001E000CC03CC066806380618063C03E04
:103BD000801C0000000000000000000C000C000C25
:103BE000000C000C000000000000000000000000BD
:103BF0000000000000000000000000008000000144
:103C00000003000600060004000C000C000C000C71
:103C1000000C000C000400060006000300018000F8
:103C2000002000100018000C000C00040006000624
:103C300000060006000600060004000C000C001838
:103C4000001000200000000C002D003F001E00337B
:103C50000000000000000000000000000000000064
:103C60000000000000000000000000000000000C48
:103C7000000C000C000CC0FFC0FF000C000C000C7E
:103C8000000C000000000000000000000000000028
:103C90000000000000000000000000000000000024
:103CA000000000000000000C000C000400040008EC
:103CB0000000000000000000000000000000000004
:103CC0000000001E001E00000000000000000000B8
:103CD00000000000000000000000000000000000E4
:103CE0000000000000000000000000000000000CC8
:103CF000000C0000000000000000000300030003AF
:103D00000006000600060006000C000C000C000C6B
:103D10000018001800180000000000000000001E3D
:103D2000003F0033806180618061806D806D8061C3
:103D3000806180610033003F001E00000000000031
:103D400000000006000E001E0036002600060006D9
:103D50000006000600060006000600060006000039
:103D6000000000000000001E003F80738061806141
:103D7000800100030006000C001800300060807F06
:103D8000807F0000000000000000001C003E006377
:103D900000630003000E000E0003800180018061BB
:103DA0008073003F001E00000000000000000006BD
:103DB000000E000E001E001E0016003600360066C3
:103DC000807F807F000600060006000000000000E3
:103DD0000000007F007F006000600060006E007FD8
:103DE00080638001800180618073003F001E0000BD
:103DF000000000000000001E003F80338061006072
:103E0000006E007F80738061806180618033003F3D
:103E1000001E0000000000000000807F807F800105
:103E20000003000300060006000C000C000C000854
:103E30000018001800180000000000000000001E1C
:103E4000003F8063806180610021001E003F80612F
:103E5000806180618061003F001E00000000000062
:103E60000000001E003F00738061806180618073EC
:103E7000803F801D800180610073003F001E0000B4
:103E80000000000000000000000000000000000C26
:103E9000000C000000000000000000000000000C0A
:103EA000000C000000000000000000000000000006
:103EB00000000000000C000C0000000000000000EA
:103EC0000000000C000C00040004000800000000CA
:103ED0000000000080008003000E00380060003801
:103EE000000E8003800000000000000000000000C1
:103EF00000000000000000000000807F807F0000C4
:103F00000000807F807F00000000000000000000B3
:103F100000000000000000000000000000400070F1
:103F2000001C000780010007001C0070004000001A
:103F300000000000000000000000001F803FC07172
:103F4000C060C000C00180030007000E000C000C20
:103F50000000000C000C0000000000000000001E2B
:103F6000003F803180718063806F806D806D806FD5
:103F7000806700600032003E001C0000000000006E
:103F80000000000E000E001B001B001B001B8031F8
:103F90008031803F803F8031C060C060C0600000E1
:103FA000000000000000007C007E006300630063EE
:103FB0000063007E007E0063806180618063007F1B
:103FC000007E0000000000000000001E003F803165
:103FD00080610060006000600060006000608061DF
:103FE0008031003F001E0000000000000000007C47
:103FF000007F006380638061806180618061806197
:10400000806100630063007E007C0000000000000F
:104010000000807F807F0060006000600060007FA3
:10402000007F0060006000600060807F807F000093
:10403000000000000000807F807F00600060006062
:104040000060007F007F0060006000600060006032
:1040500000600000000000000000001E003F8031F2
:1040600080610060006000608063806380618061C7
:104070008031803F001E00000000000000008061D1
:1040800080618061806180618061807F807F8061EC
:1040900080618061806180618061000000000000BB
:1040A0000000003F003F000C000C000C000C000C56
:1040B000000C000C000C000C000C003F003F000046
:1040C000000000000000800180018001800180016B
:1040D0008001800180018001806180618073003FE8
:1040E000001E0000000000000000C060806100634E
:1040F00000660066006C0078007C00660066006365
:1041000080618061C060000000000000000000606D
:10411000006000600060006000600060006000609F
:10412000006000600060807F807F00000000000071
:104130000000C071C071C07BC07AC06AC06AC06E26
:10414000C064C060C060C060C060C060C06000008B
:104150000000000000008071807180798079807992
:10416000806D806D806D806580678067806780630B
:1041700080630000000000000000001E003F0033CC
:104180008061806180618061806180618061806127
:104190000033003F001E0000000000000000007E11
:1041A000007F80638061806180618063007F007E2A
:1041B000006000600060006000600000000000001F
:1041C0000000001E003F00338061806180618061DB
:1041D00080618061806580670033803F401E000001
:1041E000000000000000007E007F8063806180612D
:1041F0008063007F007E00660063006380618061F1
:10420000C0600000000000000000000E001F8031B0
:10421000803100300038001E00078003806180611B
:104220008031003F001E0000000000000000C0FFC1
:10423000C0FF000C000C000C000C000C000C000C6B
:10424000000C000C000C000C000C00000000000032
:104250000000806180618061806180618061806137
:1042600080618061806180618073003F001E00007A
:10427000000000000000C060C060C060803180317C
:104280008031001B001B001B001B000E000E000EE7
:1042900000040000000000000000C0C0C0C0C0C09A
:1042A000C0C0C0C0C0CC804C804C805E8052805268
:1042B0008073806180610000000000000000C0C0C9
:1042C000806080610033003B001E000C000C001E6B
:1042D000001F003B80718061C0C000000000000032
:1042E0000000C0C08061806100330033001E001EEA
:1042F000000C000C000C000C000C000C000C00006A
:10430000000000000000803F803F800100030003A8
:104310000006000C000C0018001800300060807FC0
:10432000807F000000000000000F000F000C000C58
:10433000000C000C000C000C000C000C000C000C1D
:10434000000C000C000C000C000F000F0000001807
:1043500000180018000C000C000C000C00060006F1
:104360000006000600030003000300000000000038
:10437000001E001E000600060006000600060006DD
:1043800000060006000600060006000600060006FD
:10439000001E001E0000000C000C001E0012003366
:1043A0000033806180610000000000000000000018
:1043B00000000000000000000000000000000000FD
:1043C00000000000000000000000000000000000ED
:1043D0000000000000000000E0FF000000000038C6
:1043E0000018000C000000000000000000000000A9
:1043F00000000000000000000000000000000000BD
:1044000000000000000000000000001F803F8061ED
:104410008001801F803F80618063807FC038000002
:104420000000000000000060006000600060006E9E
:10443000007F807380618061806180618073007F14
:10444000006E0000000000000000000000000000FE
:104450000000001E003F807380610060006080618A
:104460008073003F001E000000000000000080017B
:10447000800180018001801D803F807380618061A8
:10448000806180618073803F801D0000000000001B
:1044900000000000000000000000001E003F00734C
:1044A0008061807F807F00608071003F001E00007F
:1044B000000000000000C007C00F000C000C807F4F
:1044C000807F000C000C000C000C000C000C000C99
:1044D000000C0000000000000000000000000000D0
:1044E000801D803F80738061806180618061807306
:1044F000803F801D80018063007F003E00000060DF
:10450000006000600060006F807F8071806180616A
:104510008061806180618061806100000000000036
:1045200000000006000600000000003E003E0006FD
:104530000006000600060006000600060006000051
:10454000000000000006000600000000003E003EE3
:10455000000600060006000600060006000600062B
:1045600000060046007E003C000000600060006025
:104570000060806100630066006C007C0076006370
:1045800000638061C0600000000000000000003E89
:10459000003E0006000600060006000600060006B3
:1045A00000060006000600060006000000000000ED
:1045B0000000000000000000000080DDC0FFC0CE51
:1045C000C0CCC0CCC0CCC0CCC0CCC0CCC0CC000017
:1045D0000000000000000000000000000000006F6C
:1045E000807F807180618061806180618061806195
:1045F00080610000000000000000000000000000DA
:104600000000001E003F80738061806180618061D6
:104610008073003F001E000000000000000000004A
:1046200000000000006E007F807380618061806107
:1046300080618073007F006E006000600060006039
:104640000000000000000000801D803F807380613A
:104650008061806180618073803F801D8001800166
:1046600080018001000000000000000000000067E1
:10467000803F003900300030003000300030003022
:1046800000300000000000000000000000000000FA
:104690000000001E803F80610060007F803F80013D
:1046A0008061007F001E000000000000000000008C
:1046B000000800180018007F007F0018001800187C
:1046C000001800180018801F800F00000000000074
:1046D0000000000000000000000080618061806137
:1046E00080618061806180618063807F803D0000A7
:1046F0000000000000000000000000000000C0609A
:10470000803180318031001B001B001B000E000E29
:104710000006000000000000000000000000000093
:10472000000080DD80DD80DD0055005500550077FC
:1047300000770022002200000000000000000000BE
:10474000000000000000806100330033001E000CF8
:10475000000C001E003300338061000000000000E8
:1047600000000000000000008061806180310033A3
:104770000033001B001B001B000E000E000E001C6F
:10478000007C007000000000000000000000C07FFE
:10479000C07F800100030006000C00180030C07FBD
:1047A000C07F0000000000008003800700060006B4
:1047B000000600060006000E001C001C000E00068D
:1047C00000060006000600068007800300060006BB
:1047D00000060006000600060006000600060006A9
:1047E0000006000600060006000600060006000699
:1047F0000038003C000C000C000C000C000C000EFB
:1048000000070007000E000C000C000C000C000C50
:10481000003C003800000000000000000000000024
:1048200000008038807F004700000000000000008A
:104830000000000000000000000000000000000078
:104840000000000000000000000000000000000068
:104850000000000000000000000000000000000058
:10486000000000000000000000000000E003E00382
:10487000E003E003E003E003E003E003C003C00360
:10488000C001C001C001C001C00100000000000063
:10489000E003E003E003000000000000000000006F
:1048A0003C1E3C1E3C1E3C1E3C1E3C1E3C1E000092
:1048B00000000000000000000000000000000000F8
:1048C00000000000000000000000000000000000E8
:1048D00000000000CE01CE03DE039E039C039C0774
:1048E000FF3FFF7F3807380F780F780F780EFFFFF4
:1048F000FFFFF01EF01CE01CE03CE03DE039000052
:104900000000000000000000FC03FE0FEE1FE01E90
:10491000E01EE01EE01EE01FE00FE007F003FC01D8
:10492000FE01FE01FE01FE01FE01FE01FE3DFC3F17
:10493000F00FE001E001000000000000033E07F777
:104940008FE78EE79EE3BCE3B8E7F8E7F0F7E03FD8
:10495000C001FF03FF07F307F30FF31EF33CF33827
:10496000F3787FF03FE0000000000000000000004E
:10497000E007F80F780F781F781F781F780FF00F77
:10498000E00F801FC37FC3FBE7F3F7F1F7F0FFF001
:104990007FF03EF87F7CFF3FEF1F0000000000002B
:1049A00000000000E003E003E003E003E003C003D5
:1049B000C001000000000000000000000000000036
:1049C00000000000000000000000000000000000E7
:1049D00000000000000000003F007C00F001E0014A
:1049E000C003C00780078007800F000F000F000F73
:1049F000000F000F000F800F80078007C007C00363
:104A0000E001F0017C003F000F000000007E001F6D
:104A1000C007C003E001F001F000F000F8007800EA
:104A200078007800780078007800F800F000F00056
:104A3000F001E001C003C007001F007E0078000005
:104A4000E003C003C001CE39FF3F7F3F2003700366
:104A5000F807780F3C1F3806000000000000000037
:104A60000000000000000000000000000000000046
:104A70000000000000000000000000000000000036
:104A8000C001C001C001C001C001C001C001FFFFE1
:104A9000FFFFC001C001C001C001C001C001000092
:104AA0000000000000000000000000000000000006
:104AB00000000000000000000000000000000000F6
:104AC00000000000000000000000E003E003E0033D
:104AD000E003E001E001E001C0018003000000000C
:104AE00000000000000000000000000000000000C6
:104AF0000000FE3FFE3F000000000000000000003C
:104B000000000000000000000000000000000000A5
:104B10000000000000000000000000000000000095
:104B20000000000000000000000000000000000085
:104B30000000E003E003E003E003000000000000E9
:104B4000000000000F000F001E001E003C003C0093
:104B500078007800F000F000E001E001C003C0033D
:104B600080078007000F000F001E001E003C003C65
:104B70000078007800F00000F007F80F7C1F3E3E40
:104B80001E3C1F7C1F7C0F780F780F780F780F78F2
:104B90000F780F781F7C1F7C1E3C3E3E7C1FF80F59
:104BA000F00700000000000000000000F000F00727
:104BB000F03FF03FF001F001F001F001F001F001F1
:104BC000F001F001F001F001F001F001F001F0015D
:104BD000F001FF3FFF3F0000000000000000000068
:104BE000E00FF83F7C3C3C003E003E003E003C00B5
:104BF0003C007C00F800F001E003C0078007000FD4
:104C0000001E003E003CFE3FFE3F00000000000092
:104C100000000000F00FF81F7C1C3E003E003E002C
:104C20003C003C00F800F00FF80F7C003E001E0036
:104C30001E001E001E003E007C1CF81FE01F00002E
:104C400000000000000000007800F800F800F80103
:104C5000F803F807F807780F781E781E783C787804
:104C60007878FFFFFFFF7800780078007800780000
:104C7000780000000000000000000000FC1FFC1F86
:104C8000FC1F001E001E001E001E001EE01FF81F5D
:104C9000FC007C003E003E001E003E003E003C004A
:104CA0007C1CF81FE01F0000000000000000000056
:104CB000FC01FE078E0F001F001E003E003C003C62
:104CC000F83DFC3F3E7F1F7E0F3C0F3C0F3C0F3CEE
:104CD0000F3E1F1E3E1FFC0FF003000000000000EF
:104CE00000000000FF3FFF3FFF3F0F001E001E00BF
:104CF0003C0038007800F000F000E001E001C00363
:104D0000C0038007800F800F000F001F001F0000EE
:104D10000000000000000000F807FC0F3E1F1E1EF0
:104D20001E3E1E3E1E1E3C1FF80FF007F80FFC1E15
:104D30003E3E1F3C1F7C0F7C0F7C1F3C3E3FFC1FF8
:104D4000F00700000000000000000000F007F80F6E
:104D50007C1E3E3C1E3C1F7C1F7C1F7C1F7C1F3C1E
:104D60003F3EFF1FEF071F001E001E003E003C00DD
:104D7000F838F03FE01F00000000000000000000D5
:104D8000000000000000000000000000E003E0035D
:104D9000E003E0030000000000000000000000004D
:104DA0000000E003E003E003E00300000000000077
:104DB00000000000000000000000000000000000F3
:104DC000E003E003E003E003000000000000000057
:104DD000000000000000E003E003E003E003E00166
:104DE000E001E001C00380030000000000000000BB
:104DF0000000000003000F003F00FC00F003C00FA4
:104E0000003F00FE003FC00FF003FC003F000F001A
:104E1000030000000000000000000000000000008F
:104E20000000000000000000000000000000000082
:104E3000FFFFFFFF000000000000FFFFFFFF00007A
:104E40000000000000000000000000000000000062
:104E500000000000000000000000000000E000F87A
:104E6000007E801FE007F8017E001F007E00F80131
:104E7000E007801F007E00F800E000000000000056
:104E800000000000F01FFC3F3E381F381F381E0096
:104E90001E003C007800F000E001C003C003C00722
:104EA000C007000000000000C007C007C0070000E6
:104EB0000000000000000000F803FE0F1E1F0F3E60
:104EC0007F3CFF78EF79C773C7F38FF38FF38FF3CE
:104ED0009FF39FF3FF73FF7BF779003C1C1FFC0FD0
:104EE000F8030000000000000000000000000000C7
:104EF0000000E003E003F007F007F007780F780FF9
:104F00007C0E3C1E3C1E3E3CFE3FFF3F1F780F7850
:104F10000FF007F007F000000000000000000000A4
:104F2000000000000000F83FFC3F3E3C1E3C1E3CE1
:104F30001E3C3E3C7C3CF03FF83F7E3C1F3C1F3C0F
:104F40000F3C0F3C1F3CFE3FF83F000000000000FC
:104F500000000000000000000000FF01FF07871FA5
:104F6000003E003C007C00780078007800780078F3
:104F7000007C007C003E003F831FFF07FF01000014
:104F80000000000000000000000000000000F07FB2
:104F9000FC7F7E781F781F780F780F780F780F7856
:104FA0000F780F780F780F781F781E787E78F87F4B
:104FB000E07F000000000000000000000000000092
:104FC0000000FF3FFF3F003E003E003E003E003E2F
:104FD000003EFE3FFE3F003E003E003E003E003EE3
:104FE000003EFF3FFF3F0000000000000000000007
:104FF000000000000000FF1FFF1F001E001E001E1B
:10500000001E001E001EFF1FFF1F001E001E001EB0
:10501000001E001E001E001E001E000000000000FA
:1050200000000000000000000000FE03FF0F871FCB
:10503000003E007C007C007800F800F87FF87FF8E4
:105040000F780F7C0F7C0F3E8F1FFF0FFE030000B9
:1050500000000000000000000000000000001F7CB5
:105060001F7C1F7C1F7C1F7C1F7C1F7C1F7CFF7F85
:10507000FF7F1F7C1F7C1F7C1F7C1F7C1F7C1F7C75
:105080001F7C000000000000000000000000000085
:105090000000FF3FFF3FE003E003E003E003E00325
:1050A000E003E003E003E003E003E003E003E003E8
:1050B000E003FF3FFF3F0000000000000000000091
:1050C000000000000000FC1FFC1F7C007C007C0036
:1050D0007C007C007C007C007C007C007C007C00F0
:1050E00078007800F838F03FC03F00000000000072
:1050F000000000000000000000001F3C1E3C3C3C83
:10510000783CF03CE03DE03FC03F803FC03FE03FA7
:10511000F03DF03C783C7C3C3E3C1F3C0F3C0000AA
:105120000000000000000000000000000000003E41
:10513000003E003E003E003E003E003E003E003E7F
:10514000003E003E003E003E003E003E003EFF3F6F
:10515000FF3F000000000000000000000000000011
:1051600000001FF81FFC1FFC3FFE3FFE3FFE7FFFBD
:1051700077FF77FFF7F7E7F7E7F3E7F3C7F307F012
:1051800007F007F007F0000000000000000000003A
:105190000000000000000F7C0F7C0F7E0F7F0F7F50
:1051A0008F7F8F7FCF7FEF7BEF79FF79FF78FF785D
:1051B0007F783F783F781F781F780000000000005C
:1051C00000000000000000000000F007FC1F3E3E51
:1051D0001F7C0F780F780FF80FF80FF80FF80FF803
:1051E0000FF80F780F781F7C3E3EFC1FF007000081
:1051F0000000000000000000000000000000FC3F74
:10520000FF3F1F3E0F3E0F3E0F3E0F3E1F3E3F3EF5
:10521000FC3FF03F003E003E003E003E003E003EB0
:10522000003E000000000000000000000000000040
:105230000000F007FC1F3E3E1F7C0F780F780FF830
:105240000FF80FF80FF80FF80FF80F780F781F7C92
:105250003E3EFC1FF8077C003F000F0003000000EB
:10526000000000000000F03FFC3F7E3C3E3C1E3C46
:105270001E3C3E3C3C3CFC3CF03FE03FF03DF83CFB
:105280007C3C3E3C1E3C1F3C0F3C000000000000EC
:1052900000000000000000000000FC07FE1F0E3EA2
:1052A000003C003C003C003EC01FF80FFE037F00A6
:1052B0001F000F000F001F203E3CFC3FF01F0000AE
:1052C0000000000000000000000000000000FFFFE0
:1052D000FFFFE003E003E003E003E003E003E0039B
:1052E000E003E003E003E003E003E003E003E003A6
:1052F000E0030000000000000000000000000000CB
:1053000000000F7C0F7C0F7C0F7C0F7C0F7C0F7CD0
:105310000F7C0F7C0F7C0F7C0F7C0F7C1E3C1E3C97
:105320003E3EFC1FF00700000000000000000000EF
:1053300000000000000007F007F007F80F780F7C6E
:105340001E3C1E3C1E3E3C1E3C1F781F780FF80F73
:10535000F007F007F007E003E003000000000000A2
:105360000000000000000000000003E003F003F074
:1053700007F0E7F3E7F3E7F3E773F77BF77FFF7FE8
:105380007F7F7F7F7E7F7E3F3E3E3E3E3E3E0000F3
:10539000000000000000000000000000000007F80E
:1053A0000F7C1E3E3E3E3C1FF80FF007E007E00377
:1053B000E003F007F80F7C0F7C1E3E3C1F780F784F
:1053C0000FF00000000000000000000000000000DE
:1053D000000007F807780F7C1E3C1E3E3C1F780F2C
:1053E000F80FF007E003E003E003E003E003E0036D
:1053F000E003E003E0030000000000000000000004
:10540000000000000000FF7FFF7F0F001F003E0034
:105410007C00F800F000E001E003C007800F000FFF
:10542000001E003E007CFF7FFF7F000000000000A8
:1054300000000000FF0780078007800780078007C3
:105440008007800780078007800780078007800724
:105450008007800780078007800780078007800714
:105460008007FF07FF07000000780078003C003C41
:10547000001E001E000F000F80078007C003C0033E
:10548000E001E001F000F000780078003C003C0012
:105490001E001E000F000F0007000000F07FF0004C
:1054A000F000F000F000F000F000F000F000F0007C
:1054B000F000F000F000F000F000F000F000F0006C
:1054C000F000F000F000F000F000F07FF07F00004E
:1054D000C000C001C001E003E003F007F007780757
:1054E000780F380F3C1E3C1E1E3C1E3C0F380F78B8
:1054F000077800000000000000000000000000002D
:10550000000000000000000000000000000000009B
:10551000000000000000000000000000000000008B
:105520000000000000000000000000000000FFFF7D
:10553000FFFF000000000000F0000000000000007D
:10554000000000000000000000000000000000005B
:10555000000000000000000000000000000000004B
:10556000000000000000000000000000000000003B
:105570000000000000000000F80FFC3F7C3C3E00F3
:105580003E003E00FE07FE1F3E3E3E7C3E783E7CD7
:105590007E7CFF3FCF1F00000000000000000000E5
:1055A000003C003C003C003C003C003CF83DFE3F21
:1055B0003E3F1F3E0F3C0F3C0F3C0F3C0F3C0F3C4F
:1055C0001F3C1E3C3E3FFC3FF03B00000000000043
:1055D00000000000000000000000000000000000CB
:1055E000FE03FF0F871F003E003E003C007C007C56
:1055F000007C003C003E003E871FFF0FFE030000C2
:1056000000000000000000001F001F001F001F001E
:105610001F001F00FF07FF1F3F3E1F3C1F7C1F7C1A
:105620001F7C1F781F781F7C1F7C3F3C7F3EFF1F25
:10563000DF0F00000000000000000000000000007C
:105640000000000000000000F803FC0F3E1F1E3E9B
:105650001F3C1F7CFF7FFF7F007C007C003C003EE6
:10566000071FFF0FFE030000000000000000000005
:10567000FF01E103C003C007C007C007FF7FFF7F32
:10568000C007C007C007C007C007C007C007C007E2
:10569000C007C007C007C007C00700000000000027
:1056A00000000000000000000000000000000000FA
:1056B000EF07FF1F7F3E1F3C1F7C1F7C1F781F785A
:1056C0001F781F7C1F7C3F3C7F3EFF1FDF0F1E00AB
:1056D0001E001E007C38F83F003C003C003C003CB3
:1056E000003C003CFC3DFE3F9E3F1F3F1F3E1F3CD9
:1056F0001F3C1F3C1F3C1F3C1F3C1F3C1F3C1F3CD2
:105700001F3C00000000000000000000F001F0015C
:105710000000000000000000E07FE07FE001E00109
:10572000E001E001E001E001E001E001E001E00171
:10573000E001E001E00100000000000000000000C6
:10574000F800F8000000000000000000F83FF83FFB
:10575000F800F800F800F800F800F800F800F80089
:10576000F800F800F800F800F800F800F800F00081
:10577000F071E07F003C003C003C003C003C003C01
:105780001F3C3E3C7C3CF83CF03DE03DC03FC03F10
:10579000E03FF03DF83C7C3C3E3C1F3C1F3C0000A1
:1057A0000000000000000000F07FF001F001F001B7
:1057B000F001F001F001F001F001F001F001F00161
:1057C000F001F001F001F001F001F001F001F00151
:1057D000F0010000000000000000000000000000D8
:1057E00000000000000000009EF7FFFFFFFFFFFF2A
:1057F000E7FBE7F9C7F1C7F1C7F1C7F1C7F1C7F197
:10580000C7F1C7F1C7F10000000000000000000070
:10581000000000000000000000000000FC3DFE3F12
:105820009E3F1F3F1F3E1F3C1F3C1F3C1F3C1F3C19
:105830001F3C1F3C1F3C1F3C1F3C000000000000A1
:105840000000000000000000000000000000000058
:10585000F007FC1F3E3E1F3C1F7C0F780F780F782F
:105860000F780F781F7C1F3C3E3EFC1FF0070000A6
:105870000000000000000000000000000000000028
:1058800000000000F83DFE3F3E3F1F3E0F3C0F3C36
:105890000F3C0F3C0F3C0F3C1F3C1E3E3E3FFC3F6D
:1058A000F83F003C003C003C003C003C0000000095
:1058B0000000000000000000EE07FE1F7E3E1E3CC0
:1058C0001E7C1E781E781E781E781E781E7C3E7CFC
:1058D0007E3EFE1FDE0F1E001E001E001E001E006C
:1058E0000000000000000000000000007F1FFF1FFC
:1058F000E71FC71F871F001F001F001F001F001F7B
:10590000001F001F001F001F001F000000000000FC
:105910000000000000000000000000000000000087
:10592000FC07FE1F0E1E003E003E003FE01FFC076E
:10593000FE003E001E001E003E3CFC3FF01F00002B
:1059400000000000000000000000000000008007D0
:1059500080078007FF7FFF7F800780078007800721
:10596000800780078007800780078007C007FF0344
:10597000FF01000000000000000000000000000027
:1059800000000000000000001E3C1E3C1E3C1E3CAF
:105990001E3C1E3C1E3C1E3C1E3C1E3C3E3C7E3CB7
:1059A000FE3EFE1FDE0F00000000000000000000B1
:1059B00000000000000000000000000007F00F7869
:1059C0000F781E3C1E3C1E3E3C1E3C1E780F780F7E
:1059D000F00FF007F007E003E00300000000000014
:1059E00000000000000000000000000000000000B7
:1059F00003F0E3F1E3F3E7F3F7F3F7F3F77F777FF0
:105A00007F7F7F7F7F7F3E3E3E3E3E3E3E3E0000AC
:105A10000000000000000000000000000000000086
:105A2000000000000F7C1E3E3C3E3C1FF80FF007BC
:105A3000F007E003F007F807F80F7C1E3E3E1F3C1E
:105A40001F780000000000000000000000000000BF
:105A5000000000000000000007F80F780F7C1E3CDB
:105A60001E3C3C1E3C1E3C1F780FF80FF007F00751
:105A7000E003E003C003C003C0038007800F007F82
:105A8000000000000000000000000000FF3FFF3F9A
:105A90001F003E007C00F800F001E003C007800F0B
:105AA000001F001E003CFF7FFF7F00000000000081
:105AB00000000000FE01E003C003C003C003C003F8
:105AC000E001E001E001C001C003803F803FC0036E
:105AD000C001E001E001E001C003C003C003C00356
